:02000004C0D06A
:1000000010B5044662B604F043FF002C0DD0012069
:1000100000022168814205D1606801280AD1A068E8
:10002000002803D104F004FE02E0002004F024FEC6
:10003000002010BD204604F0A1FEF0B581B00446BA
:100040000020002A1CD00B780A2B19D89D0001260D
:100050003543954214D82370002B10D00096271DED
:100060004D1C002601210022284602F029FA01C772
:100070002D1D761C20788642F4D3009800E030468F
:1000800001B0F0BDF0B58FB0012040024A4C00270E
:1000900001902754FF2040000290275203AE3046C3
:1000A00008F044FF0546B585A8B2002812D01028F4
:1000B00077D003A887850D9806F0E2F80220029910
:1000C00060523F486F21017045700121204602F0C7
:1000D0008BFD58E003A806F0D3F80D90208802F0BD
:1000E0008AFD2078002802D03448029D2FE0344A4F
:1000F000507813780021354D7D44354E7E446F5C39
:10010000BB4202D1775CB8420AD0491C0D29F6D314
:100110006D200002CBB20D210D2B029D01D116E006
:10012000029D2C487844405C002809D07F20830041
:10013000672000021279002A09D0E25A052A06D067
:10014000880025497944085805F0E0FD80471D499D
:1001500060529321C900615C00290CD0019BE15CD5
:10016000EF220A40E25409210903884203D05D21AD
:10017000154A01235354615B020A114B5A545A1811
:100180005070881C605306F06FF803A9884202D1B2
:100190000D9806F075F803A8808D002809D10FB0DE
:1001A000F0BD03A887850D9806F06AF8102004F0CA
:1001B000A9FE04F0A7FEC0467C180020AA6F00002C
:1001C000E01F00200202000000180020059100003E
:1001D0000E910000F3900000E0900000F0B583B0B5
:1001E00019480026FF243146224604F06CFE012007
:1001F00001904002154D02902E5464002E535D264E
:100200001348815D0298285C9322D700EA5D002A9A
:1002100006D0002904D020210843019949026854DE
:10022000295B05F0B9F87F2189006852E85D002854
:1002300006D00748805D002802D0002005F0E0FFCE
:10024000FFF720FFDBE7C046E01F00207C180020FE
:1002500000180020F0B581B0304C7C44204605F0F9
:1002600055FD808802F0C7FC204605F04FFD8088D0
:10027000C0B2264CFF2845D02948784405F046FDF9
:100280008088FF2108423DD0214804680546A088A7
:10029000204F7870000A3870E088F870000AB87053
:1002A000207A387109342046009108F0A5FE0246F4
:1002B0007A71B81D214604F0F0FD2C682046093003
:1002C00008F09AFE0546AE1D2734204608F094FE3D
:1002D000F1B27854EE1DF0B23D18204608F08CFEC5
:1002E00002462846214604F0D8FD09480068273018
:1002F00008F082FE8019C0B200994900064A5052A7
:1003000009200403204601B0F0BDC0468569000005
:10031000181D0020E01F00207C18002022A30000F0
:1003200002A3000010B51148784405F0EFFC807975
:10033000FF2149000B4A082353520B4930224A70CF
:1003400001228A700523CB7003230B714A710024AC
:100350008C71CB7110401B2242400A7009200003AF
:1003600010BDC0467C180020E01F002054A20000F1
:1003700070B5194C7C44204605F0C8FC808802F01A
:100380003AFC204605F0C2FC8088C0B20F4CFF2822
:1003900019D01248784405F0B9FC8088FF2528421E
:1003A00011D06B2004020A4EB07800280BD10C4803
:1003B000784405F0ABFC80886900064A012353525B
:1003C000307009200403204670BDC04685690000D6
:1003D000E01F00207C18002008A20000E8A1000017
:1003E000CCA1000010B50720C0430A4909790029B3
:1003F00000D00846C4B267200002F82C09D805488E
:10040000214605F0F1FDFF20400003490C52092070
:10041000000310BDE01F00207C180020F0B585B05F
:10042000524E3779554D7D44284605F06FFC808843
:1004300002F0E1FB284605F069FC8088C0B24C4C14
:10044000042800D98CE0012529468140162001426C
:1004500000D185E00497B1786B2007020020802945
:100460001CD000297FD1701D00262946324602F09B
:1004700027F83F21C9003F4A50507D208000165484
:10048000280215543D20C00016543B4816547B20CA
:10049000800016541675D677344E0420F178002962
:1004A00061D10499091AFF252A46EE32314FB95419
:1004B0003018401D1F2109017850012002F060FC16
:1004C00009200203387D08284CD1049535460026C2
:1004D0003E757D2080003946385CFB340028274675
:1004E00041D0202468462F463037076044600846D4
:1004F0002830012103923246334605F083FD08215E
:100500000291284605F070FD322028706E702A1D79
:10051000384621462346264605F0A0FD3F20C00070
:10052000144C21582846243002F07BF92846283004
:1005300021461531029A04F0B0FC1148784405F0C8
:10054000E5FB69460F604E600830302331462A468D
:1005500005F094FD0498400038212152039F02E0E9
:10056000274600E01746B8B205B0F0BDE01F0020F6
:10057000856900007C1800208604000056A1000058
:1005800040A00000F0B59FB014460E4602AD69468B
:100590000D60012115AF1A463B4602F0C2F908353D
:1005A0004127002E03D1284601F090FD212741224A
:1005B0002046294604F071FC38461FB0F0BD00000B
:1005C000F0B59DB0C44E7E44304605F09FFB857962
:1005D000BC4CA0780D90304605F098FB2927C05DF3
:1005E000012635400B95002500282A460AD0A07820
:1005F00002282A4606D1B448817901220020072921
:1006000000D002460C92B548784405F07FFBC05DEF
:100610000D9B012B29460DD00C990029294609D1A3
:100620000028294606D0A84881790020072900D053
:10063000064631460A910127012B384600D128464B
:100640009321C900A14A515CA14EFE36E2780029EF
:1006500003D0002801D1354630E16B200502A07897
:10066000022800D92AE1022A11D3032A08D0022A3B
:1006700000D023E197480068406B002807D11DE1B6
:10068000944800684021405C022800D016E16720B1
:1006900005022079002800D110E1012B099202D136
:1006A000601D04F05BFA08900C98002809D060796E
:1006B0008000801DC0B220180121002201F000FF3F
:1006C0001C90874D7D44284605F020FB808802F071
:1006D00092FA284605F01AFB7D49CD1C8088C0B2ED
:1006E000042800D9EAE00121079181401620014247
:1006F00000D1E3E005F048FDAA28754D00D0DDE00B
:10070000651D2846394602F0A5F906904120207063
:10071000671C14AB28460B993A46FFF733FF099B39
:100720000546012B14D0032B10D1E9B20EAD38468B
:100730002A4602F07EF800206946086022464332CD
:1007400014213223284603F043F843E0022B34D12E
:100750000EA8142104914170002105910170E9B2A5
:10076000821C38461F46039202F063F8594800681D
:10077000022F17D1049F406B00282CD005F0C6FA39
:100780000146684607602746433700223846039BE8
:1007900005F084FB0546E8B201281CD1384608F074
:1007A0002BFC17E0C088694608600598486022461F
:1007B00043320EA8162196230AE046480068808836
:1007C00000216A4603C2E9B22246433296233846E4
:1007D00002F05EF80546422025540B98002801D10E
:1007E00004206070EFB2E5192846433014A9202296
:1007F00004F053FBFF20400039466331334B19525C
:100800000D98012830D0069800282DD00C9800288B
:1008100047D02425585D002808D0194620311CA84F
:10082000042204F059FB294B00283AD000265E55DB
:10083000184620301CA904221F4604F02EFB1C9BE6
:100840002046C8300925274A7A44294605F08AF807
:10085000D020265407984002395C10220A433A54AB
:1008600004F0A8F92D0329E00D95322F354625D83F
:100870002046C830433421463A461C4604F00DFB5E
:10088000C82000210D9A115407984002215C1022C3
:100890000A4322540898C0B204F06EF909200503F7
:1008A0000CE0092005030A98002807D007984002A9
:1008B000195C10220A431A5404F086F9A8B21DB03C
:1008C000F0BDC046E01F0020342100207C1800202D
:1008D00082690000181D0020B69F0000749F000070
:1008E000B89E0000FC880000B0B569230021852275
:1008F000002808D0FF2040000C49085A0C49411834
:100900000B32002001E010461A468BB2094CE2542B
:10091000FF2252008B1C054DAB52491C89B260541A
:1009200099B2202004F038FDB0BDC0467C180020EC
:10093000FEFF0000E01F0020B0B50848084D01216F
:100940002954084800242C52074828180822214618
:1009500004F0B9FA05482C54B0BDC0467C04000030
:100960007C1800206E0400007D0400008504000057
:10097000F0B595B08F20C500BB4F00267E51BB4C13
:10098000385D022822D0012800D069E1C14D7E5196
:10099000B748395A002900D14AE1B848385C0122E9
:1009A000FD281FD27851022139554721090178507D
:1009B000B24838188118AE4C15463A5B521B04F009
:1009C0006CFA385B401B3853012631E1A84C395B87
:1009D000092900D22CE1A74BF85CFD22FC2812D893
:1009E00009221FE0FE282FD0FD2800D038E103297E
:1009F00000D21DE1A848395C9F208000385C0002CD
:100A000008430322CEE7904200D029E10B2900D20F
:100A10000EE19948381800210A4601F02DFD954B4A
:100A2000395B0B221018884200D901E103950B9025
:100A30000020012691493A18525C401C002A0ED130
:100A400000240728F7D918E0052900D2F0E09248E1
:100A5000381800210A4601F033FD0522A2E7791873
:100A600013AC0822204601F052FF85483818014691
:100A7000224602F0C9F87F4B3446FD18284601F0A3
:100A800009FE0790284601F019FC05900A952846B2
:100A900001F04CFC02907B4800684023C05C0022BF
:100AA0001128114609920492089230D17B208100CE
:100AB00006910A9D2846019301F00EFE08902846F3
:100AC000069901F041FE09902846069901F041FE81
:100AD000019B01466B480068C05C112817D1099D35
:100AE00006910A9801F09CFB05990843002802D062
:100AF0000699019B0BE0284608990843002C01D178
:100B00000799084300280699019B00D1A8E05D4899
:100B10000068C05C11280B9A06911DD01D4601206B
:100B20000021079A002A00D0084604430A9801F0E1
:100B300077FB05990843012C069B02D1002800D1C0
:100B40008EE050480068415D0124002011290B9A75
:100B500000D1044604941946089D09980543002DC8
:100B60000A981CD000291AD00B460499002919466E
:100B700015D100210C9112917B218C000CAA12AB93
:100B8000214601F021FE395D1298002901D100288B
:100B900066D0002901D0002862D10B9A06990798E7
:100BA00000283DD13848385C002839D00B46059CD8
:100BB0000299214304250320002900D00546234340
:100BC000002B0BD131483918E8B23818294A80185F
:100BD000142204F081F90B9A002833D03D20C00084
:100BE000002C1DD0385C00281AD00CAC14220A92BC
:100BF00062700020207025483918A01C04F04DF9BF
:100C000016212046224601F014FEE8B23818194990
:100C1000401821460A9A04F05FF900280BD00B9A7D
:100C200003983A5001204002395C10220A433A549A
:100C3000304615B0F0BD134800684421405C4007C1
:100C40000ED50B9A1248395C002909D1012139547B
:100C5000472000013958491E3950002AE8D0A7E63C
:100C6000012004F04FF9C0467C1800207C040000ED
:100C70006E04000082020000830200007A0200007D
:100C80007D040000181D00207602000062020000B2
:100C900085040000740400007B02000070B59EB063
:100CA0000C4601AD69460D600126002214AB3146A9
:100CB00001F037FE0948784405F028F808358179B5
:100CC0004120314203D1284601F000FA212081B2AF
:100CD0002846224601F0ADFD1EB070BDC69800004A
:100CE000F0B59FB0E04A94786B210E021179002C88
:100CF00004D0FF2C02D0802C00D09CE10A90DB4B6A
:100D0000DB4F3D20C0000990385C0025002806918B
:100D100012D0F85C00280FD150790125FD21FD2863
:100D20000AD34A1CD5B205220023A84200D01A4695
:100D30000325884200D015460BAE304608F0F6F881
:100D4000B085CC49084208D00BA8002181851598B0
:100D500005F096FA6F20060249E10BA805F090FA1B
:100D60001590387DC44E092800D03DE10221C843CA
:100D7000801CC0B284423FD1787F002800D11FE19F
:100D80004F20C400385D002800D12DE100255822F5
:100D90000A98294604F097F8B3494879002800D109
:100DA0000EE10A9E2336491D2922304604F075F8CB
:100DB000B74839183046FFF771FF3D55B248012555
:100DC0003D5434463046AC4E294601F0F1FD002832
:100DD00000D1F5E09320C000385C002800D003E18A
:100DE000A848042139546802395C10220A433A5455
:100DF000204603F0F3FEE3E00791F5204000089061
:100E0000385C002813D1E8B206990B1A3446FB3639
:100E1000002B00DAE8E000216A4611605160924A36
:100E20001018421D3846283005F0ECF82646787F29
:100E300000282FD0914C385B069D4119FB367D224E
:100E40009200914200D9CFE038188D494018864968
:100E5000491D2A4604F021F8385B40193853FFF742
:100E600087FD002804D001204002385CC006F6D57A
:100E700047200001385800287F4E0BD10120410245
:100E8000795C1022114205D17E4B0324FC5411439E
:100E9000400239540998385C734A9178002925D06A
:100EA00000280A9C11D120206946486017A80860D4
:100EB000384694306C494A1D0121069B05F0A2F882
:100EC00069490998385C002853D00898385C002894
:100ED00023D020206946486017A808601720000129
:100EE0003A1838469430012160233FE000280BD1A6
:100EF0000021684601604160384694305A4A521DCC
:100F0000069B05F07FF8584A012058497854FF2184
:100F1000490078520020107052E020220392684667
:100F20001B2109017C18046042603D4628350121DF
:100F30000491002305932846224605F063F82846CD
:100F400005F080F8684622460260039B436028460D
:100F50000A9C04991D4605F055F86846456017A996
:100F6000016038469430404A0499059B05F04AF8E0
:100F70003D49787F002829D04348385C002804D1B7
:100F800000215822204603F09EFF40480068017966
:100F900061708079A07020464C30082105F024F85B
:100FA000FF2040000799395200202F4908704870EF
:100FB000787F002811D0E01C17A9202203F06DFFD4
:100FC000159805F05DF90920060334E0FF20400084
:100FD000079A3A52002048700870E11C17A8202296
:100FE00001F010FC002829D0159805F049F9FF20E0
:100FF0004400002038533875204D7A5B204839185A
:10100000194803F04AFF785B385305F02DF90BA916
:10101000884202D1159805F033F91A480121395454
:10102000164800243C521B4838180822214603F079
:101030004AFF19483C54B0B21FB0F0BD0898385C64
:101040007B218900795C014309983A5C0A20002AD7
:1010500005D0090603D1012008997854002038757D
:1010600009200603D1E7C046E01F002079020000F6
:101070007C180020FFFF0000856900006E0400005E
:101080007A0200007C04000076020000181D002097
:10109000620200007D0400008504000070B541205C
:1010A000C000134D2818FFF71BFE0446012046021E
:1010B000A85DC0061AD50F48295C042904D003296D
:1010C00005D103F019FD04E0012129540EE003F0DD
:1010D000E7FC00280AD1FF20400000212952A85D2A
:1010E000EF220240AA552975D520C401204670BDC3
:1010F0007C1800207C040000F0B581B009210D03AC
:10110000002800954BD0472007014B4EF0594B4B20
:10111000F15C022901D1401EF051002828462AD056
:10112000474830188F21CC0032598118454D735BE8
:101130009A1A03F0B2FE3059715B081A70530124F9
:101140006502705DEF2101407155FFF711FC002829
:1011500002D0705DC006F8D5705DC006009D2846BF
:10116000364B08D503F09CFC002862D10020307576
:101170003548FB30314BF15C022917D1F259002A76
:1011800014D103201F46F05403F0B6FC01240028BC
:101190004FD10022F2552C48FB3011461DE0264865
:1011A000002202752549415C27481CE0032915D11E
:1011B00000217177F5214B00F15C7B229200B45C39
:1011C0000C433D21C900755C03210A22002D04D087
:1011D000240602D10122F25400223275FF2252006D
:1011E000B25A1A4BD21893B2040A194DEC54FF2686
:1011F0007400931C104F3B53521C92B2A854009A97
:10120000904201D103290FD10C48012139540D48D6
:1012100000243C520F4838180822214603F053FEA0
:101220000D483C5470003B5A99B2202004F0B4F8A9
:101230000024204601B0F0BD7C1800207C04000092
:101240007A0200006E04000085690000FEFF0000C5
:10125000E01F00207D04000085040000F0B585B08B
:10126000704D2F79784C7C44204604F04FFD8088E7
:1012700001F0C1FC204604F049FD6B4EF21C808851
:10128000C0B2042800D9C9E004970127394681403B
:101290001620014200D1C1E0A878644A7632802845
:1012A00008D0002800D0B9E03902614B03245C5417
:1012B00000211975EC788023052C55D8012C53D0CA
:1012C00000286DD1581CC1B200208C4200D00746C6
:1012D000A01E02905648407F002803930CD1184668
:1012E0002A30C0B20090019104F04EFF0199009A9B
:1012F0009042324600D091E07B2080004C4A134659
:101300001F54012000228C4201461F4600D0114686
:10131000029BDBB2042B034600D3134619433D2343
:10132000DB00F9547877FA83424909684023CB5CA3
:1013300041497A540326744002265E402643002E1B
:1013400000D01046FF263246EA32B8541A2B12D883
:1013500001209840394A10420DD0E878052808D07D
:10136000042808D1012005E0802C19D0812CA7D0B9
:1013700054E002207854324800243C54F5204000C8
:101380003C54304838181822214603F09CFDEC36B6
:10139000BC554F20C00001213954EC78A878039B3C
:1013A000FF273946EC31224E3D22D2009C4229D003
:1013B000B25C002A26D0725C002A23D1984221D147
:1013C00028790A38C0B231281CD86879022819D87F
:1013D000012808D1A879382805D1E879322802D126
:1013E000287A00280ED09320C000305C00280F4AD5
:1013F00014D1012070544002315C10220A4332544F
:1014000003F00CFCEE370498F0551F200001691D15
:101410003150022001F0B4FC0920020390B205B063
:10142000F0BDC046E01F0020826900008A6A00000B
:101430007C180020181D0020860400008001400454
:10144000870400006202000016930000F0B593B01C
:101450006F4C7C44204604F059FC808801F0CBFBA3
:10146000204604F053FC8088C0B2604F04283ED868
:101470000124214681401620014238D05C4E6B2069
:101480000002B178002902D0F178002930D167201C
:101490000002317907292BD305AD284607F046FD18
:1014A000A8855449084208D005A8002181850F98D5
:1014B00004F0E6FE6F2007020EE005A804F0E0FE4F
:1014C0000F904D49087D0A2803D1FB3770790B280E
:1014D00011D30F9804F0D4FE47480021017504F0A1
:1014E000C3FE05A9884202D10F9804F0C9FE384610
:1014F00080B213B0F0BD41480818751D2922049030
:10150000294603F0CAFC707980002043295C281822
:101510004518681C00222146039200F0D1FF02907A
:101520006E79354D36482E543A48784404F0EEFB37
:101530008079042108420DD1324800684021415C85
:10154000022902D0816B00294BD0412EC1D1806B82
:10155000000206432C48285C00281CD111AF3846F5
:10156000029901F05EF9381D314601F05AF97B20ED
:101570008000285C002804D011A8082100F02EFE6D
:1015800009E068460399016041602846283011AAA5
:10159000082304F037FD0021049E304601F05AFA7A
:1015A000002804D00120014600F036F807E0600270
:1015B000295C10220A432A54304603F01FFB932073
:1015C000C000285C09210F03002888D00F488168DB
:1015D000491C81604268914281DB5D2101224254B5
:1015E0007DE7012E2646B5D073E7C0468569000029
:1015F000E01F0020FFFF00007C1800202B020000ED
:101600005E020000181D0020860400000018002063
:101610002A91000052900000F0B5B1B0002818D017
:1016200003910021684601603648374C201827ABEB
:101630000A4601F076F97B208000205C002810D05B
:101640002020694648601FAA0A60412080002018B7
:101650000EE0FF2043002C4A0020D052692285264C
:101660003CE02020694648601FAA0A6020462830D6
:101670000121002304F0C6FC04AF384604F0E2FC6C
:101680002025684645601FAE066001243846214685
:1016900032462B4604F0B6FC1E48784404F036FB74
:1016A0008079400820406946FF273A4652320A6056
:1016B000486027A8154C31462A46234601F068FAAF
:1016C00079006278D01C104B58521149595CA2180D
:1016D00091707A21CA430B320026039900290ED15A
:1016E00083B20A4CE254FF225200831C064DAB52D7
:1016F000401C80B2265499B2202003F04DFE31B038
:10170000F0BDC0462B0200007C180020E01F002026
:101710005E020000E28E0000F0B581B06720060294
:10172000284D287901282AD1284C7C44204604F0F1
:10173000EDFA808801F05FFA204604F0E7FA80882D
:10174000C0B2214FFF2819D02148784404F0DEFAB6
:101750008088FF21084211D0FE1E04F015FDAA2842
:101760000DD16C791B48784404F0D0FA09210903A3
:101770008088C0B2844205D10E4600E03E46B0B239
:1017800001B0F0BD3E46FB36082CF8D80091012090
:10179000A0408B2149000842F1D00F4D7D442846DE
:1017A00004F0B4FA408801F026FA284604F0AEFAB4
:1017B000408820423E46E2D0204600F08FFC009E4A
:1017C000DDE7C046E01F002085690000528E000062
:1017D000328E0000168E0000E08D00006D200002A9
:1017E00070470000F0B58BB009AD002106262846F1
:1017F000324603F068FB0A200A990143297101244B
:101800002846214601F0F0F902202843214601F044
:10181000EBF9124F7F44384604F078FA801C2946D1
:10182000324604F0D3FB6D4620262846314604F0AC
:10183000DBFB384604F06AFA08302946324604F0E9
:10184000C5FB08AD2C70384604F060FA401C2946F0
:10185000224604F0BBFB0BB0F0BDC046688D000013
:10186000F0B581B0017800250091002918D0441C02
:1018700000270125002620462946324600F020FE9A
:1018800080B2094988420BD00849884207D0241DFC
:101890007F1CF8B2009988423546EAD300E0022561
:1018A000E8B201B0F0BDC0461DB100001EB100009D
:1018B000F0B59BB0B54A9778802038436B210E0273
:1018C000802800D034E110790C90D578002F04D115
:1018D000022D02D3802D00D02AE1D520C401264656
:1018E000FE3EAA200B9004F04FFCAA2800D01FE176
:1018F0000FAE304607F01AFBB085A549084208D064
:101900000FA800218185199804F0BAFC6F20040209
:10191000FDE00FA804F0B4FC1990002F16D0972119
:1019200089009C4D695A13225201002900D1ECE034
:10193000AA5A8A4200D0E8E097482818FFF790FF9B
:10194000002864D000F032F90446E8E0012D2AD8DE
:101950004120C0008F4F381800265822314603F02E
:10196000B2FA8A4B58790B2800D3CDE08B48006837
:1019700001798B4AB95480798A4978548648381855
:10198000591D292203F089FA8048024650798100C6
:101990000120084312185179002D49D0927909028B
:1019A0001143072245E097218F007A4DE95B13220E
:1019B0005601AA5B0C9BD2188A4200D9A5E00024EC
:1019C0006846046044602846283070494A1D0392E6
:1019D000214604971F4604F015FB684604604460E6
:1019E000284694302146039A3B4604F00BFB674A95
:1019F000A85BC019A85314700499695A80B2814237
:101A000011D1FF204000022129525470BBE0012077
:101A10004002295C10220A432A54199804F030FC31
:101A20000920060384E0FF20400001212952AAE09A
:101A3000062297239B00F9528018002964D0089051
:101A40001320400135460A903D523E46283738461D
:101A5000069304F0F7FA30469430079004F0F2FA57
:101A60004E4E3068093007F0C7FA11300EAA1070D8
:101A7000684605604560012338462946099304F00D
:101A8000C1FA36680936304607F0B6FA03466846AA
:101A90000560456038462946324604F0B3FA684688
:101AA00005604560404A7A4411233E46384629463F
:101AB00004F0A8FA06993748405AFC280F4603D884
:101AC0000DA90870012307E00DA948700B9A533245
:101AD0000A70000A8870032330463E460590694626
:101AE0000D604D600DAA294604F08CFA0C98FB3865
:101AF0000899401A0EA90870264F0A9AB95AC3B21B
:101B00005818B95B884216D9199804F0B9FB4120DE
:101B1000C000204908180021582203F0D4F904F02D
:101B2000A3FB0FA9884202D1199804F0A9FB26460D
:101B3000B0B21BB0F0BD6846056045602C46134E40
:101B40000899761805982146324604F05BFA0EADE6
:101B50002B7868460460446007982146324604F0BA
:101B600051FA0A4E0A9AB85A29784018B852347075
:101B70000699795A80B28142099901D17470022183
:101B8000FF204000395209200403C8E7E01F00206D
:101B9000FFFF00007C1800202B020000181D002011
:101BA000090200000A02000046770000F0B5A3B069
:101BB000FF204600374F0024BC5305AD284607F0F0
:101BC000B5F9A8853449084207D005A884850F983F
:101BD00004F056FB6F20040243E005A804F050FB1C
:101BE0000F90202103916846416004961BAE066069
:101BF000284F28370125384629463246234604F027
:101C000001FA384604F01EFA68460660039B4360FA
:101C100038462946324604F0F5F9684604601F4804
:101C20001C49081811AF214622463B4600F079FEB8
:101C30001C48784404F06AF88079400828406946D6
:101C400064220A604860164C3846124F3146039AA7
:101C5000234600F09DFF6078801C0499785209208B
:101C6000040304F001FB05A9884202D10F9804F097
:101C700007FB4120C00038180021582203F023F947
:101C800005A8808D002802D1204623B0F0BD03F0C6
:101C900039F9C0467C180020FFFF00002B0200002D
:101CA000E01F00204A89000070B59320C000094D54
:101CB000285C002801D0084C09E001204602FFF70B
:101CC000F7FD0446A85DC00601D502F03BFF2046A3
:101CD00070BDC0467C18002082690000B0B5014686
:101CE00069228520002902D0FFF760FF020AFF2148
:101CF0004900074B5C5A074D2A55A21C5A52611CD9
:101D000089B2685491B2202003F046FBB0BDC046B2
:101D10007C180020E01F00206D20000270470000AA
:101D2000F0B589B01E4617460A460024E543782AD6
:101D300000D987E0002A06D00024015D002902D1E5
:101D4000641C9442F9D30490111B8A2048436421F7
:101D5000069206F039FE03465A1C306898423FD975
:101D600001960295002138460092059303F0ABF8E6
:101D7000059B03940698844226D21946039A049838
:101D80000792805C491E08911C46395D09020E18B5
:101D90003D463A273046394606F0A0FE4743F11B40
:101DA0002F463955393608998C4201D8732E04D301
:101DB000611E002C0C46E8DC00E02146079A521C0C
:101DC00006988242059BDAD10021039A029D019E6A
:101DD000785C002806D1481C99420146F8D302E0FD
:101DE00032602FE0084600998918091A336831607B
:101DF0008B4227D3131A002B10DB481E0028059BAB
:101E000019DB134878447C181E46BB5DC35C6355E0
:101E100033465B1E491E0029F5DC0CE08A420AD2DB
:101E20000A49794414463B5CCB5C3B55401C641C1E
:101E300033689C42F7D3074878440178384603F06A
:101E400042F80025284609B0F0BDC0469073000056
:101E5000AE7300007A730000F0B595B000920F46A3
:101E600002900AAC2A21204606F024FF02200443F7
:101E70000594790001400D220A4303924140881DD8
:101E800001901325002102980491405C06900021E6
:101E900007200991401A01210891814006980140CC
:101EA0000791ECB2142C0ED81520021B60000AA971
:101EB0000E183188C81C042900D808463080521EEC
:101EC000B61C002AF5D160000AA9085AFF34072879
:101ED00000D82C46E0B2132817D814210D1A400060
:101EE00005990A180AA90E5A138801210027072B01
:101EF000084600D8384676000E2737400743C843C7
:101F00001752921C6D1E1E46EED107980028089AA3
:101F100000D10246149840000E21014011430AA846
:101F200001850999491C08292546B1D10499491C04
:101F300008292546A7D100210B460A460C46009EDB
:101F4000D8B240000AAD285A240603D1002801D196
:101F50000C4604E0D4B230303055521C01245B1CD6
:101F6000D8B2039D8542EBD81106019D02D13021E4
:101F70003170012200242146CEB2B5420D4622D94D
:101F8000361876000AAFBE5B6D1C002E04D1EEB28F
:101F9000019FB742F4D816E02506009F04D1D4B2C1
:101FA0002E253D55521C0124DDB26D000AAE755B35
:101FB0003035D6B2BD55521C5B1C491CCDB2019EBA
:101FC000AE423546D8D8D0B215B0F0BD80B581212B
:101FD0008900044A525804490968496CFFF73CFFDC
:101FE00080BDC0467C180020181D0020F0B583B0CD
:101FF0002B4D00262B4A2846314602F064FF284626
:10200000314600F0F1FD28482E529320C0002E5496
:10201000264801242C54264828180822314602F06C
:1020200052FFFF20EC302E5422482E542248784490
:1020300003F06CFE4078012801D0FFF7D3FB1F4866
:10204000784403F063FE4078002807D01C487844A9
:1020500003F05CFE808800F0CEFD02E0FF2000F07F
:102060003DF81848784403F051FE0078002814D158
:1020700002AD2C7001AE3470134F7F44384603F02C
:1020800045FE29303146224603F0A0FF384603F0D2
:102090003DFE2946224603F099FF03B0F0BDC0463D
:1020A0007C1800209C0400006E0400007C040000EA
:1020B0007D040000850400004E8500003C85000082
:1020C0002E85000018850000028500004021415C3B
:1020D00001220A40022111430170704710B582B0FD
:1020E000014601AC204600F07FFD0548784403F02E
:1020F0000DFE001D0222214603F068FF02B010BD54
:1021000090840000F0B58DB0074641208000324930
:102110000D180C46284603F095FF00266846066019
:10212000466077208000221804232846314603F0B9
:1021300069FF6846066046601720000122182024C7
:1021400028463146234603F05DFF68460660466038
:102150001920000120490A1828463146234603F079
:1021600051FF0C960B96039708377D2084000CAA2C
:102170000BAB3846214600F0C7F9002828D00B9851
:102180000C9900266A46166056600B1808332846DC
:102190003146039A03F036FF04AA3846214600F080
:1021A000DDFA002813D068460660466004AA1A23A8
:1021B0002846314603F026FF68460660466008233D
:1021C00028463146039A03F01DFF012600E0002651
:1021D00030460DB0F0BDC0467C180020F0B583B08D
:1021E0000C46054600266846066046604120800091
:1021F0000A490F181B2000010A18202338463146CF
:1022000003F000FF684606604660384631462A46BD
:10221000234603F0F7FE03B0F0BDC0467C18002053
:1022200070B504461E4E3068416B002911D01D491F
:1022300079440322204602F04FFE012500282CD0CD
:10224000194979440322204602F046FE002824D092
:1022500030684021405C13280CD114497944042291
:10226000204602F039FE002816D11834104979446E
:1022700028220BE00F4979440422204602F02CFE6C
:10228000002809D118340C4979440222204602F072
:1022900023FE0125002800D00025284670BDC04639
:1022A000181D00204D6F00003E6F0000276F0000DA
:1022B000196F0000D36E0000C56E0000B0B5044673
:1022C000154800684021405C132810D11349794417
:1022D0000322204602F000FE00281AD117341049CC
:1022E00079442722204602F0F7FD01250FE00D4931
:1022F00079440322204602F0EFFD002809D117346B
:1023000009497944012520462A4602F0E5FD0028C6
:1023100000D000252846B0BD181D0020856E0000A5
:10232000766E00005F6E0000506E0000B0B504468F
:102330000C480068406B002810D00B4979440322F8
:10234000204602F0C9FD0125002808D0074979443C
:102350000322204602F0C0FD002800D000252846B8
:10236000B0BDC046181D0020416E0000326E000056
:10237000F0B586B0FF241470046800278C421AD28E
:102380000B9E002B01D000241C60002E01D00024E5
:10239000346005684C1B012C0DDB05922A46551C48
:1023A000056014784E2C5FD804954C2C039704D20A
:1023B0002746049D45E03C4659E000274E2C26D098
:1023C0004D2C0DD04C2CF4D102943746049C0E1B9E
:1023D0000024012E3E464ADB951C056057782FE00D
:1023E00002940196049C0E1B0024022E15463EDB2F
:1023F000009300231C461F46049AD65CE4B2A64014
:10240000F7195B1C0834022BF7D1ED1C15E0029480
:102410000196049C0E1B0024042E154627DB009316
:10242000002423462746049A165DDBB29E40F71926
:10243000641C0833042CF7D16D1D0560009B019EC0
:10244000029C491B002915DB04952546B942039CD3
:102450000DD3002B01D004991960002E2C4600D01A
:1024600037600168C919016005980470012420468D
:1024700006B0F0BD039CFAE7F0B581B000920722E8
:10248000D34308240029224600D01A46002900D14F
:102490000C4600252946465D7F273740002D3346F0
:1024A00000D13B46009F002F00D01E46E3B29E4065
:1024B00071189C186D1C022DEDD1084601B0F0BDBD
:1024C000F0B581B000920722D3430822002900D042
:1024D0001A461824002900D10C4600252946465DDD
:1024E0007F273740002D334600D13B46009F002F09
:1024F00000D01E46E3B29E4071189C186D1C042D3E
:10250000EDD1084601B0F0BDF0B5044600201060E2
:10251000186000291FD02578FD26FC2D01D8012741
:1025200010E0032917D3B54215D1601C00242646BC
:102530002546075DF6B2B7407D19641C08360327AF
:10254000022CF6D115601F601068C319012000220B
:102550008B4200D91046F0BDF0B585B01446024656
:102560000020FD26002B029608D0002300291BD056
:102570001578B54205D201212B4616E00B460146DF
:1025800013E0032910D3B54219460ED1561C00257D
:102590002F462B46715DFFB2B940CB186D1C083732
:1025A0000321022DF6D100E01946029DAD1C04AEB8
:1025B000357055180395D2185518002B17D00026E2
:1025C00037466846066003A804AA29463346FFF743
:1025D000CFFE00280AD004A80178781CA14200D0C0
:1025E00038460399A9420746EBD100E0384605B0CA
:1025F000F0BDF0B585B002920027FD22002B08D077
:10260000002300291BD00478944205D201212346DF
:1026100016E00B46394613E0032910D394421946BD
:102620000ED1441C00252E462B46615DF6B2B1400A
:10263000CB186D1C08360321022DF6D100E0194697
:10264000921C04AC227042180392C01845180298DC
:102650000128019716DB002B019F13D00B9C0A9ECB
:1026600000276846046003A804AA29463346FFF7FA
:102670007FFE002806D07F1C0298874202DA03986A
:10268000A842EED1012002998F4200D0019805B0F6
:10269000F0BD000070B501464A78012300246A2A83
:1026A000184600D020460B4D2D684026AD5D022D0A
:1026B00000D023461843022D0AD16A2A08D00020F0
:1026C000002A05D18A78012000216A2A00D0084614
:1026D00070BDC046181D002080B5C12200F002F870
:1026E00080BD0000F0B581B015460E460746FFF7E5
:1026F00097FD0024002804D13846FFF7DFFD0028AD
:1027000002D0204601B0F0BD0E4800684021405C78
:102710007978022807D16A2905D0002907D1B8782D
:102720006A28EED003E06A29EBD00228E9D0012321
:10273000384631462A46FFF70FFF00240128E0D132
:102740000446DEE7181D002080B5C222FFF7CAFF4D
:1027500080BD80B5C422FFF7C5FF80BDF0B585B050
:10276000144600270497039703AA6B465A6004AAED
:102770001A60022201263346FFF73BFF01283D463F
:1027800000D1054604990029304600D1084605408D
:102790000398142800D03E463540002D11D07620F5
:1027A0006070192020701422E2707720C6433046F2
:1027B0002130A070201D02F070FB24366676882040
:1027C0002076284605B0F0BDF0B583B01D4616460C
:1027D0000024002E13D0002D11D06A4616605560DB
:1027E000032201273B46FFF704FF002807D030688B
:1027F000002804D02868002800D107463C4620461F
:1028000003B0F0BD70B50023002A08D00023521E8B
:1028100094B2055D0E5D6E403343002CF7D1D8B203
:1028200070BD01700A0A42700A0C8270090EC170F4
:102830007047F0B5A3B0164603AC202522462B46C0
:1028400003F00CFC0BAF384603F0F0FB1420694694
:102850000E6048600121384622462B4603F0D2FB29
:1028600023B0F0BD70B588B014466D4620262A46C8
:10287000334603F0F3FB284631462A46334603F03D
:10288000EDFB04222046294602F007FB08B070BD8C
:10289000F0B58BB01D4614460346109E022701205A
:1028A000FF2E00D807461198002808D0142038437E
:1028B000C2B202A8194602F0F0FAFFB20EE0FFB26F
:1028C00002A8C2191846FFF7B4FF300A04D002A8C4
:1028D0004670310A017001E002A8067014213943E4
:1028E00002AEF21914323046FFF7BCFF01951821F1
:1028F000394301AB30462246FFF712FA002803DBCA
:1029000001A800880BB0F0BD012002F0FBFA002AFC
:1029100006D0491E8B5C0370521E401C002AF9D160
:102920007047F0B58DB0174606780B2E3CD201915A
:102930000293002E13D0401C0021182200252B46A4
:10294000445DD2B29440E3186D1C083A042DF7D1CF
:102950008A0003ACA350491C001DB142EDD102F026
:10296000BBFE68460760212703AD3846294632463C
:102970002B4603F0EBFB202238462946029C2346D7
:1029800003F090FB0198002805D012992120012323
:10299000224603F097FB02F09FFE03A800212022AD
:1029A00002F091FA0DB0F0BD022002F0ABFA000087
:1029B000F0B58DB0024610780B2843D201260028CE
:1029C0003DD002960191521C0024182500273E4656
:1029D000D35DEDB2AB409E197F1C083D042FF7D1AB
:1029E000A30003ADEE50641C121D8442EDD10528F6
:1029F000029E24D10126F207039B53402C2B03D0C7
:102A0000542B01D0312B1AD110490B681C88002C93
:102A100006D0049D5540A54202D059888D420ED162
:102A20006432059991420ADC06990198814206D1E7
:102A3000074A079B01260021934200D80E463046E4
:102A40000DB0F0BD022002F05DFAC046181D002056
:102A500050C30000F0B58DB002461F4803681C88C3
:102A60000120002C33D01078022801D208462EE035
:102A7000019102930B282CD2521C00251826002706
:102A80003B46D15DF6B2B140CB187F1C083E042F07
:102A9000F7D1A90003AE73506D1C121D8542EDD114
:102AA0000122D307039858402C280299019D04D095
:102AB000542802D03128284609D1049D5D40A54202
:102AC000104604D04A88012000219542CED10DB095
:102AD000F0BD022002F016FA181D0020F0B585B0F6
:102AE00004920C4602780B2A4CD22021217001213D
:102AF000002A3DD00499891E0191461C0023012122
:102B000002920393182000221546B35CC0B28340A2
:102B10005D19521C0838042AF7D1C9B26018049A0A
:102B2000511A0122D2072B469343184A7A4402F0E5
:102B300019FF27462046049906F0F6FAC1B2361D61
:102B4000019A91421BDA002D039B01DB3C4603E016
:102B500027223C466254401CC1B22F226254411CC1
:102B6000C8B2002222545B1CD8B2029A9042C8D349
:102B7000C8B2401E00212154C0B205B0F0BD0320F0
:102B800002F0C0F9022002F0BDF9C04683660000E1
:102B9000F0B587B01C4617460591064602F09CFD2D
:102BA0000020069006AD6846C5600C9981604460BF
:102BB00007600D98002801D00A4900E00849032267
:102BC0003046059B03F08EFA2878C00703D02078A2
:102BD00001210143217002F07FFD07B0F0BDC04626
:102BE00001040000010600000A020A43FF21090255
:102BF00051400180704780B5FF218143000A814226
:102C000001D003F0D9F980BDF0B5002307241E469A
:102C1000155D0F5DF619751905550126FF2D00D8B4
:102C20001E46671E002C3C46F2D101200021FF2DDC
:102C300000D80846F0BDF0B581B000260724009604
:102C4000155D0F5D330604D0AF4204D97F1E00230B
:102C500003E0009B01E0FF373346BFB27E1B065501
:102C60000126AF4200D31E46631E002C1C46E7D14E
:102C7000F0B201B0F0BD000070B582B0044601268C
:102C80003002114D285C30420DD01F2000012A581F
:102C9000002168460160416028462830234603F041
:102CA000B1F93002285C80070BD51F2000012A589B
:102CB000002168460160416094352846234603F0B0
:102CC000A1F902B070BDC0467C180020F0B581B0FB
:102CD000FF26EE36294DA85D002848D01F200701A9
:102CE000E8590478FC2C05D801252846FFF7C4FFD5
:102CF000FF2031E0FE2C19D0FD2C3BD10120FFF745
:102D0000BBFFE859411CE951A95DFF31A955C9B282
:102D100001292CD941780091847802252846FFF7B3
:102D2000ABFF240200980443FE2015E00120FFF7CA
:102D3000A3FFE859401CE851A95DFF31A955C9B26C
:102D4000032914D900210A46FFF7BAFB04460425DB
:102D50002846FFF791FFFC2008490A46D159491936
:102D6000D151915D40189055204601B0F0BD012031
:102D700002F0C8F8022002F0C5F8C0467C18002016
:102D8000F0B5BFB00646EA48784402F0BFFF857947
:102D900033AC204606F0CAF8A085ED0801273D4077
:102DA00084B2002C01D000F067FC33A803F068FA6D
:102DB0003D90002D199700D119951B951DA8C01D98
:102DC000189025A8011D169128301790F2481C96DE
:102DD0001A9707466CE2072800D069E23C69002C8C
:102DE00000D163E2FF25EE35785D002801D100F0C7
:102DF00032FC844200D30446002CE74F01D100F09E
:102E00002AFCE0B2FFF738FF1F20000139580919EA
:102E10003950785D001B78553869001B386147E2EE
:102E20004E783446083CE1B2302901D900F021FC4B
:102E3000B11C1191C9B2884201D200F01AFCD748E6
:102E4000784402F063FFD449149D49596A4656609C
:102E500025AB059313608A1C08302021234603F01C
:102E60000DF9CD4840598019811F08220598FFF7B8
:102E7000C9FC002800D0FCE3C74D149EA8593D2191
:102E8000C9006A5C002A0DD03A22825C3223C25407
:102E9000A859401DA851EA5DF332EA55695C012248
:102EA00000293DD1811C25AE3046224601F0F5FFB8
:102EB0003078322800D0DCE3B7480546149EAC5980
:102EC0001698A8512420FFF7D7FE11996018A85131
:102ED000E85D401AE8552F461DA808221799FFF70C
:102EE00016FD002001460246189E735C7C18257F63
:102EF0005219D31823770122FF2B00D80246491E0E
:102F00000C460834F1D10125FF2B00D885E0B0E351
:102F10003D20C000A049085C0022002800D1A8E3A1
:102F2000139201263046FFF7A7FE9B4D149968586F
:102F3000421C6A50E85DFF30E855C0B2232800D833
:102F400097E3F5204000285C002826D034022E5557
:102F50002420FFF791FE00200C942855149C295939
:102F600024312951E85DDC30E855C0B2072800D88B
:102F70007FE30F20400128180822039201F08DFF03
:102F80000398FFF779FE0C982E54285908302851E1
:102F9000E85DF830E855139D3FE000216846016088
:102FA00041601720000128182424234603F02AF842
:102FB0002046FFF761FE1498295824312950E85D16
:102FC000DC30E855C0B2072800D852E31DA808221B
:102FD000FFF79DFC002001460246189B5B5C6E4C8F
:102FE0006418257F5219D3182377FF2B324600D857
:102FF0000246491E0C460834EFD1FF2B139D00D921
:1030000037E30820FFF738FE63480146149A8858D2
:1030100008308850C85DF830C8553D20C0005E4A71
:10302000105C002802D10120010250541C9E159C06
:10303000FFF74CFE584F3861022171403D22D2000B
:10304000BB5C2B430B430022002B214600D01146D2
:1030500000281A9A00D104460C4054401B980028BE
:1030600002D1002C00D104E302203875FF252C4644
:10307000EE34385D002800D1EDE2396901291A9B50
:1030800020D11F200601B859007801210022AE2866
:1030900000D11146199A1143012906D101210022BC
:1030A000AE2800D111465940F9770120FFF7E4FD21
:1030B000B859401CB851385DFF3038553969491E40
:1030C00039611C9E002917D04D1EC0B2854200D325
:1030D0000546002D304F00D1BDE2E8B2FFF7CCFD30
:1030E0001F200001395849193950385D401B3855A7
:1030F0003869401B3861DBE0022E1FD13D21C90039
:10310000795C002916D0F5214900795C002915D099
:1031100000216846016041600F2040013A1838469E
:103120002830082302F06EFFEE35785D06E0C046D9
:10313000F47700000121090203227A54C0B2032867
:1031400000D896E2F52040003D21C900795C0029B5
:103150000ED0385C00280BD11F2000013A58002106
:1031600068460160416038462830042302F04AFF77
:103170000420FFF781FD1F2000013958091D395037
:10318000385DFC30385501203875B868401EB8608D
:10319000F868401CF8608BE07C1800203C77000049
:1031A000F5204200B95C3D25E800385C00284FD08E
:1031B00000294DD120266846466025A90991016065
:1031C000172000013C180B9401210491002308935F
:1031D00020460F92099F3A460E9502F013FF2046B3
:1031E00002F030FF6846076046602046049D29468D
:1031F0003A46334602F006FF684646601DAF076058
:10320000ED4C2834204629463A46089B02F0FAFE47
:10321000204602F017FF68460760466020462946B0
:103220003A46334602F0EEFE0B980999324601F019
:1032300034FE19200001E04908183946DE4F3246B5
:103240001C9E01F02AFE0F98395C0E98C000385C75
:10325000002822D0002920D0D848385C00280BD183
:1032600000216846016041601B2000013A18384681
:103270002830202302F0C6FE0A20387518E0052801
:1032800016D1FF24EE34385D002800D1E3E13D691A
:10329000002D00D01AE7042076E7092139750028AF
:1032A00006D03846283002F0CDFE01E008203875FF
:1032B000397D00E03975C8B2042807DC02286EDDCC
:1032C00003282AD00428F3D1B86836E0062800DDA8
:1032D000BBE1D4D1FF242546EE35785D002800D12E
:1032E000B9E1032800D8C4E10420FFF7C5FC1F2082
:1032F0000001E74F3958091D3950785DFC30785589
:1033000008212042D6D00124250200207855FFF75D
:10331000DDFC7C5538610721CCE7022E00D13FE768
:10332000FF20EE30385C002800D194E1FFF7CEFC9E
:103330000021B860F9600421397506210028B9D050
:10334000FF24EE34385D002800D184E1072800D83E
:103350008FE1012ECE4F11D13F20C0003858F968BF
:1033600081420BD11F200001395838461530082200
:1033700001F093FD7D208000012139540820FFF7E2
:103380007BFC1F200001395808313950385DF83076
:103390003855FFF79BFC38610520387571E7002828
:1033A00006D0012802D0022882D15FE6B868E0E0AA
:1033B0000026BE60FE603E61384615300822314668
:1033C00001F081FD3D462835284602F03BFE3C4693
:1033D0009434204602F036FE3D20C000385C0028C0
:1033E0003AD0012000023E54F5204000385C00280D
:1033F0002DD0684606604660772080003A18042386
:103400002846314602F0FEFD6846066046601720F9
:1034100000013A1807922020069028463146069B64
:1034200002F0F0FD684606604660192000013A1877
:1034300028463146069B02F0E5FD68460660466078
:10344000602320463146079A02F0DCFD04E0172095
:103450000001381802F0F6FDFF261096EE36B85D32
:10346000032800D805E11F20050179597720800045
:103470001290381804240A90224601F00EFD2046CE
:10348000FFF7FAFB7859001D0D957851B85DFC30B7
:10349000B8558049795C002917D0C0B2032800D8FC
:1034A000E7E07B4F0D9D79599120C0003818042426
:1034B000224601F0F2FC2046FFF7DEFB7859001DA2
:1034C0007851B85DFC30B8551FE073480068402162
:1034D000405C16280A9C18D8012181406F4801429F
:1034E00013D0002120460A46FEF7EAFF00280CDA36
:1034F000002120460A46FEF7E3FF6949884204DBC3
:103500001099EE316248405CC7E763480068442187
:10351000415C890718D5007A022806D0042813D107
:103520005B481299405C01280ED8594CA05D0328D5
:1035300000D89EE00420FFF79FFB0D996058001D06
:103540006050A05DFC30A055FFF7C0FB504FB86045
:103550009321C9001C9E022E524A08D1795C002991
:1035600005D05168002900D150600021116001216F
:10357000397500281DD03846FF27EE37C05D00287A
:1035800069D00124022E1BD0012E254600D04FE524
:1035900023286ED92420FFF76FFB1F2000013C4930
:1035A0000A46115824311150D05DDC30D055012528
:1035B0003EE5032038757BE67C1800208604000079
:1035C000012856D91F210A011492314989580A78D5
:1035D000022A159400D19BE4012A00D120E4002A9C
:1035E00047D13D20C0002A49085C002841D12E4C1B
:1035F0007C44204602F08AFB8088FFF7FCFA2046D4
:1036000002F084FB8088C0B2042806D0022804D0CF
:1036100001282ED11B9800282BD01D4C149D6059D9
:10362000401C6051E05D401EE055C0B2232820D907
:103630002420FFF721FB605924306051E05DDC302D
:10364000E0550120A0770025E7E401460839032969
:1036500001D3FFF7C0FB02F007FE33A9884202D175
:103660003D9802F00DFE33A8808D00280DD13FB0AB
:10367000F0BD012001F046FC33A8002585853D986A
:1036800002F0FEFD02480575204601F03BFCC046F5
:103690007C18002086040000181D002080014000D6
:1036A00003000080001800208C6F0000F0B581B08E
:1036B00000900B09012213405B42194C1C40CD08BD
:1036C00015406D42174E2E404701774067404C0928
:1036D000144064421448204078408E0916407642D7
:1036E000124F37404740C80910404042104A02403C
:1036F0007A4098272F40009DED0E49012943C9B219
:10370000794079251D404D40F32121406940AE2389
:1037100033404B401E2101405940104601B0F0BDDE
:10372000E2996DB7618EBCF2C4B35F3EA8E2AB2EE6
:1037300070E4434FF0B581B015460E4607463C781D
:10374000012000210090FFF7B1FF002C12D07F1C58
:103750001F22224042403C781046FFF7A7FF7F1C03
:10376000002CF5D106E0FFF7A1FF0246307850406B
:103770006D1E761C002DF6D10824FFF797FF641EFE
:10378000FBD1009A504001B0F0BD000070B5144666
:103790000A4601460D487844FFF7CCFF2322054630
:1037A000D54020239E1A0B46B3402B431646203E9D
:1037B0000D46F540002E00DA1D461F232B402370D6
:1037C000531F641C002A1A46E9D170BDC25A00007A
:1037D000F0B599B01D460346002017901690107062
:1037E00014296FD11E990020002904D0012969D124
:1037F0000192082000E001920CAF3870781C14226E
:10380000194601F04AFB15210026324630463B7826
:1038100000021843134608337F1C491E0224E44368
:10382000A2420EDB0D3213460A3B0446DC401F2346
:10383000234002ACA355521F761C092AF3DC521F09
:1038400000E01A460029E2D1002A019F07D0052195
:10385000891A88401F21014002A88155761C02A8C0
:1038600016AA3146FFF792FF0020002E394611D0EC
:1038700002A801780023144A7A44202920D2581C37
:10388000AB421DD202ACE45C145DFC54B042034672
:10389000F3D3391800220D4B7B4416AC2478202C2E
:1038A0000ED28418641CAC420AD816ACA45C1C5D11
:1038B0008C54521C082AF0D300238B54801801E04A
:1038C0000020387019B0F0BDEC590000CC59000050
:1038D00070B594B014460A46014601A8FCF7ADFB4A
:1038E00001460020002912D001A8027800216B4671
:1038F0001960011D21250CAE2846334602F026FC36
:10390000202228463146234602F0CCFB012014B089
:1039100070BDF0B59DB0144613AAFFF7D9FF00257E
:10392000002811D021266F4613AA012530463946BA
:103930002B4602F0C7FB08373846FEF7C7FB204688
:103940003946324601F0A9FA28461DB0F0BD000004
:10395000F0B58BB00746119C012F17D0129E032F94
:1039600012D1212205AF084611463A46FEF761FF03
:103970000025684605601421384622463346FFF785
:1039800027FF002836D136E0022F25D10393049477
:1039900005A81425457000240470861C21220846C1
:1039A00011463246FEF745FF022F0DD1109900292E
:1039B00008D06846056000220498334602F06EFA8B
:1039C000002817D1002516E06846039912C005A803
:1039D00016219623049D09E025460024684614C05C
:1039E0000648301883B22122084611462A46FEF7BF
:1039F0004FFF2C54012528460BB0F0BDFFFF0000FF
:103A000070B59AB00E4604462069002500282AD0D9
:103A1000217BA068401CFF31C9B211AA00252B46AA
:103A2000FFF777FF00281ED0F388B288A0680078DF
:103A3000716B33256E46B56004AD22C611A9FFF740
:103A400087FF002500280ED0246904AD284605F024
:103A5000D3FA421C2846214605F042F901250021EF
:103A6000002800D00D4628461AB070BDF0B585B0CC
:103A70000A4606460020B07334460E34317B0829CE
:103A800027D803AF002101910825384602922A4623
:103A900001F019FA327BA81A3818B16801F0FDF963
:103AA000029D2735284605F0A7FAC6B220462946CA
:103AB000324601F0F2F92020A055A019421C0298CC
:103AC000416C3846FEF7C8F930182018019941704A
:103AD000012005B0F0BD000070B598B004466D46F9
:103AE0006021284605F0E6F8A16928461C304022EE
:103AF00005F0E4FA5C20295C0020002917D1227B24
:103B0000082A14D8267D082E11D86D46A81A14301C
:103B1000A16805F0D5F8A81B1C302169324605F0D4
:103B2000CFF804486022294605F0CAF8012018B0F1
:103B300070BDC0460018002010B50C490860FEF7A3
:103B400055FA9320C0000A4901240C5401F014FBDB
:103B50002102084805F0AEF8002003F0F1FF2046EE
:103B600003F0EEFFFCF73AFB10BDC046181D002025
:103B70007C1800201C1D002080B506480078002815
:103B800001D104F07DFE044979440020024604F08E
:103B9000E3F980BD1C1D00205C5C000080B582B094
:103BA00001900648784402F0B1F8293001A90122B9
:103BB00002F00CFAFFF7E0FF02B080BDD869000008
:103BC00001460020022903D8880002497944085898
:103BD0007047C046745B000080B5012805D00028FE
:103BE00007D10020FFF7DAFF80BD0120FFF7D6FFE5
:103BF00080BD002003497944034A7A4404F03AFE28
:103C000080BDC046130000002700000001460020D0
:103C1000012903D888000249794408587047C046F2
:103C2000345B000080B5002802D0FFF7A5FF80BDFF
:103C30000648784402F06AF82921435C00200449D0
:103C40007944044A7A4404F0F7FD80BD4A690000D3
:103C50007DFFFFFF91FFFFFF80B5002003497944FE
:103C6000034A7A4404F006FE80BDC046ABFFFFFF66
:103C7000BFFFFFFF80B5FF2002F0C2FA80BD80B514
:103C80000120FEF72BF8FFF777FF80BD80B50020FD
:103C9000FEF724F8FFF770FF80BD80B50120FDF727
:103CA0002BFA002800D080BDFFF766FF80BD80B5ED
:103CB0000020FDF721FA002800D080BDFFF75CFF4F
:103CC00080BD80B50120FDF717FA002800D080BD27
:103CD000FFF752FF80BD80B50020FDF70DFA0028E8
:103CE00000D080BDFFF748FF80BD80B50120FDF703
:103CF00003FA002800D080BDFFF73EFF80BD80B5ED
:103D00000020FCF7F1FDFFF737FF80BD80B50120F3
:103D1000FCF7EAFDFFF730FF80BD80B50020FCF71F
:103D2000E3FDFFF729FF80BD80B50120FCF7DCFD36
:103D3000FFF722FF80BD80B50020FCF7D5FDFFF71F
:103D40001BFF80BD80B50120FCF7CEFDFFF714FFFF
:103D500080BD80B50020FCF7C7FDFFF70DFF80BDDB
:103D600080B50020FCF7C0FDFFF706FF80BD80B5E1
:103D70000120FCF7B9FDFFF7FFFE80BD80B50020F4
:103D80000146FDF749FCFFF7F7FE80BD80B5012035
:103D90000021FDF741FCFFF7EFFE80BD80B500205C
:103DA000FCF7A2FDFFF7E8FE80BD80B50120FCF71F
:103DB0009BFDFFF7E1FE80BD80B50178490601D08B
:103DC00001F050FA80BD0000B0B50546072028403C
:103DD0000024012814D0022814D1002909D00B484E
:103DE00002F01AFA68B200280ADA02F0E5F80024B4
:103DF00006E0FF2152310548002202F025FA044670
:103E00002046B0BD022001F07DF8C046E01F002032
:103E1000F0B581B0E04D28780C2810DD0D286CD06D
:103E20000E2800D1C7E015280FD1DC488079012881
:103E30000BD1A879000708D4102001F063F80528F9
:103E400000D111E10C2800D181E2D54C0027676038
:103E500001202070204602F0A3F9042002F01CFA91
:103E60006060692800D05DE101F0A0F901F0A0F9DF
:103E7000BE25F84E7753042002F00EFA6060002849
:103E800000D164E2972800D161E2C02430590028B3
:103E900000D15CE2705BAA27C421715C80B28842C9
:103EA00000D354E202F0C4F9002800D04FE202F03F
:103EB00041F9B84204D102F067F9B84200D046E2B5
:103EC0003059715B49014018CC217158002902D04A
:103ED000884700280AD0012803D13059715B490175
:103EE00040180178490601D001F0BCF9705B401C14
:103EF000705331590029CFD129E2D54C0027676092
:103F000001202070204602F04BF9042002F0C4F991
:103F10006060002800D11AE2972800D117E26928D2
:103F200000D099E101F042F901F042F9BE25C94EF5
:103F30007753042002F0B0F96060002800D106E257
:103F4000972800D103E2C0243059002800D1FEE1B7
:103F5000705BAA27C421715C80B2884200D3F6E16D
:103F600002F066F9002800D0F1E102F0E3F8B8426F
:103F700004D102F009F9B84200D0E8E13059715B90
:103F800049014018CC217158002902D088470028E7
:103F90000AD0012803D13059715B490140180178DA
:103FA000490601D001F05EF9705B401C7053315935
:103FB0000029CFD1CBE1EA4D00276F6001202870A6
:103FC000284602F0EDF8042002F066F904466C6021
:103FD000692C00D0E6E001F0E9F801F0E9F8BE2430
:103FE000E04E3753042002F057F96860002800D1F2
:103FF000ADE1972800D1AAE1C0257059002800D171
:10400000A5E1305BAA27C421715C80B2884200D34D
:104010009DE102F00DF9002800D098E102F08AF845
:10402000B84204D102F0B0F8B84200D08FE1705924
:10403000315B49014018CC217158002902D08847D2
:1040400000280AD0012803D17059315B490140187A
:104050000178490601D001F005F9305B401C30536E
:1040600071590029CFD172E1BD4C00276760012052
:104070002070204602F094F8042002F00DF96060F0
:10408000002800D163E1972800D160E1692800D0C1
:1040900018E101F08BF801F08BF8BE25B14E775393
:1040A000042002F0F9F86060002800D14FE1972861
:1040B00000D14CE1C0243059002800D147E1705BA9
:1040C000AA27C421715C80B2884200D33FE102F08C
:1040D000AFF8002800D03AE102F02CF8B84204D141
:1040E00002F052F8B84200D031E13059715B490119
:1040F0004018CC217158002902D0884700280AD0E6
:10410000012803D13059715B4901401801784906F3
:1041100001D001F0A7F8705B401C705331590029A1
:10412000CFD114E1C0258F4C6059002800D106E1A1
:10413000BE26A05BAA27C421615C80B2884200D35E
:10414000FDE002F075F8002800D0F8E001F0F2FF81
:10415000B84204D102F018F8B84200D0EFE060593C
:10416000A15B49014018CC216158002902D0884741
:1041700000280AD0012803D16059A15B49014018E9
:104180000178490601D001F06DF8A05B401CA053F6
:1041900061590029CFD1D2E01C1E0020342100201B
:1041A000481F0020D8206F4D2958002911D06422C3
:1041B00064290B4600D31346CA1A2A50D421002A78
:1041C00007D16958002904D0DC22AA582A500020BF
:1041D0008847002C00D1BAE0972C00D1B7E0C0246A
:1041E000285900282FD0BE26A85BAA27C421695CC5
:1041F00080B2884227D202F01BF8002823D101F0B8
:1042000099FFB84203D101F0BFFFB8421BD1285932
:10421000A95B49014018CC216958002902D0884780
:1042200000280AD0012803D12859A95B4901401868
:104230000178490601D001F015F8A85B401CA8538D
:1042400029590029D2D1C420285CBE21695A7AE0BC
:10425000481F00201C1D0020C025424C605900282A
:104260006DD0BE26A05BAA27C421615C80B28842C3
:1042700065D201F0DDFF002861D101F05BFFB8429B
:1042800003D101F081FFB84259D16059A15B4901C6
:104290004018CC216158002902D0884700280AD054
:1042A000012803D16059A15B4901401801784906F2
:1042B00001D000F0D7FFA05B401CA053615900293A
:1042C000D2D13CE0D020274C2058002803D0E978F8
:1042D000490801F00BF8C025605900282FD0BE26F0
:1042E000A05BAA27C421615C80B2884227D201F07A
:1042F0009FFF002823D101F01DFFB84203D101F038
:1043000043FFB8421BD16059A15B49014018CC2141
:104310006158002902D0884700280AD0012803D11B
:104320006059A15B490140180178490601D000F0AD
:1043300099FFA05B401CA05361590029D2D1C42031
:10434000205CBE21615A814201D301F071FF01F06E
:104350006FFF002801D100F0DDFD012001B0F0BDAC
:10436000481F00201C1D0020B0B582B019481A4D0E
:104370002A18294615316846FEF75DFC00240028FE
:1043800025D1164914316846082204F0A9FC0028FA
:104390001DD100206877F5214A003D21C9006B5CE2
:1043A0000A21002B05D0AB5C002B02D10121A954BE
:1043B0000021092212030A4BEA52FF225200022373
:1043C000AB522975074990220A7048700124204693
:1043D00002B0B0BD7D0400007C1800200018002051
:1043E00002020000E01F0020F0B583B02A4EB07F2B
:1043F00000280BD0294C204655302B497944072200
:1044000000F04BFD5C20002121543FE0244832188D
:104410003146153101A8FEF70EFC224F3D680028F9
:104420000DD04020285C082833D11C4C2046553044
:104430001E497944062200F030FD5B3424E0273524
:10444000284604F0D9FD0246144C5534204629462E
:1044500000F023FD3D682735284604F0CDFD2021DE
:104460002154284604F0C8FD2018401C81218900F1
:10447000705001A8FDF7AAFD05463868273004F002
:10448000BBFD28182018441C00202070012003B018
:10449000F0BD0020FBE7C0467C180020001800207B
:1044A0007D040000181D0020895200005B520000AE
:1044B000F0B5A5B01E4614460F460546FEF7EAF8CD
:1044C000002807D0A74979440A22204604F0F8FBC7
:1044D00025B0F0BD0494A14800684024005D112877
:1044E00044D128463946FEF734F903909B480068CA
:1044F000005D11283AD128463946FEF7EDF800282C
:1045000012D07B208000039C002C07D09449085CCB
:10451000002803D0083D2846FDF7F4FD002C049840
:104520007ED0924979447DE08C480068005D112876
:104530001CD128463946FEF707F9002816D07B2003
:1045400080000399002907D08549085C002803D022
:1045500028460838FDF7D6FD2C78FD2C7F4F64D116
:104560006878A97809020143C81C5FE02846FDF776
:10457000DDFE002810D079480068406B0028A7D0E5
:1045800001F0C4FB0146A8786A461060EB1C0022CB
:10459000049801F083FC9BE7704F3868C488284674
:1045A000FDF73EFE0321002802D0386884880421EC
:1045B000200A04D005AA54701070022702E005A852
:1045C0000470012705A8C0196918142503902A460C
:1045D00000F063FCFF20EA306149085C002810D03D
:1045E0005E480068C28801200021944200D008463D
:1045F0006946086014210398049A3346FFF7E8F8E7
:1046000066E7012069460C6048602F43B9B2B3B237
:1046100005A8049C2246FEF73BF90021215457E7E8
:104620005149794404F0E0FC52E7601C291815391F
:1046300020AE1422304604F043FB307800281CD012
:10464000002020A94E4A7A440B781C09145D05AD60
:104650002C542C180F251D40535D6370491C801C81
:104660002928F1D3282005AB002119544121454ABE
:104670007A44049801F076F92AE703200121FD2C01
:1046800000D00846295C4018295C4118039800288E
:104690000CD0685C0818401C295C00290AD04C2901
:1046A00009D1291849784018801C04E0681840781E
:1046B000891C09E0401C291849784018801C295C95
:1046C0000818401C295C491C08182A5C411C4C2A0B
:1046D00000D001466C186078A17809020143E078A7
:1046E000227912020243100408431F901FA8204998
:1046F0007944042204F0AEFC00280DD01FA81E4906
:104700007944042204F0A6FC002800D0E0E61B490E
:1047100079440B220498D9E63D68287919AE3070A7
:1047200021461131701C15273A4604F0C9FAA888B1
:1047300001216A4603C205AD5023304639462A4658
:10474000FEF7A6F8002129544420205C6946086041
:104750004121084A7A4404982B468BE7181D002013
:104760007C180020C65900008350000070510000E2
:10477000BF4F0000604F0000CF4F0000885700007F
:104780008E50000075500000F0B597B001AD502478
:104790002846214604F08EFA4548464F391815A898
:1047A0000822FEF7B4F8444838187B2189002A46CD
:1047B0002346FFF77DFE414E40223046294604F055
:1047C0007DFCA1208000385C142811D13C483818A9
:1047D00040497944042200F07FFB002808D1394881
:1047E00038183D497944042200F076FB00282FD088
:1047F000354C374626682736304604F0FDFB024626
:104800003D4641352846314600F047FB26682736AD
:10481000304604F0F1FB2021295430463E4604F096
:10482000EBFB2818401C81218900224A505015A812
:10483000FDF7CCFB05462068273004F0DDFB281887
:10484000401C3018412100224254012017B0F0BD15
:104850001E48381801210022FDF732FE034630467B
:1048600041301F2B06D0032B07D0012B0BD11B4946
:10487000794404E01A49794401E01A49794406224E
:1048800004F01EFA04E01421174A7A4401F06AF891
:1048900035464135284604F0AFFBC4B228198121C2
:1048A000890078500A483818FDF790FB2018C8E7AF
:1048B0007A0200007C18002082020000001800200C
:1048C0008502000089020000181D00208D020000F2
:1048D00091020000244F0000BF5600008B4E0000E4
:1048E0008B4E00008B4E0000834E000070B58CB0E4
:1048F00020206946486004AE0E600C4894300C4D90
:104900002A46413201240023214601F07BFB684600
:10491000082306601836436086604121054A7A44C0
:10492000284601F01FF820460CB070BD7C1800200E
:1049300000180020FE4D0000F0B59BB007A85021E4
:1049400004F0B8F94F4F39680020002959D1009080
:104950004E4C0120029038604B482118264605AC89
:104960000825204601912A46FDF7D1FF39460C3132
:1049700020462A4604F0B4F9002841D144483018B2
:104980007B21890007AD50232A46FFF791FD394668
:104990001C31284604F0E4FA0028344630D13D4862
:1049A000205C022808D14720000121584A1E2250CD
:1049B00002230121002A30D08F20C50063590198BD
:1049C000C118354A1646A25BD21A00F066FA605941
:1049D000A15B081AA053029E7502605DEF210140A1
:1049E0006155FBF7C5FF002804D001204002205C80
:1049F000C006F6D5605DC00605D538680028A8D089
:104A000000981BB0F0BD472000012158002000296C
:104A100000D006461F48235C3146022B19D10029DD
:104A200017D003201B4960541C4822182146153119
:104A300003A8FEF700F9002807D1143703A80822BD
:104A4000394604F04DF9002801D00020D9E711487B
:104A5000235C0120032BD4D100206077F520410096
:104A60003D20C000225C0A20002A05D0625C002A9A
:104A700002D10120605400202075FBF75DFF01206A
:104A8000BFE7C046001800207A0200007C18002012
:104A9000820200007C0400006E0400007D0400001F
:104AA00010B59320C0000F4C205C002802D0FFF707
:104AB00043FF10BDFFF768FE4720000120580A4958
:104AC0006158491C0B1A094855301421084A7A4488
:104AD00000F048FF074979440020024603F03CFA01
:104AE000012010BD7C180020740400000018002074
:104AF0005A4C0000824E000010B59320C0000E4CAE
:104B0000205C002802D0FFF72FFC10BDFFF76CFCE3
:104B10000146002000290ED07B208000205C002868
:104B200002D00649794401E0054979440020024653
:104B300003F012FA012010BD7C1800202C4F000059
:104B4000124F000080B5FFF7D1FE034979440020E1
:104B5000024603F001FA80BD4C4D000010B504463A
:104B600004497A22FDF7BAFF00212046FDF720FF15
:104B700010BDC04600180020B0B504460A4DC83527
:104B8000284604F039FA20212954291800204870B9
:104B9000002C02D00649794401E0044979440246D8
:104BA00003F0DAF9B0BDC046E01F0020E84F000076
:104BB000CA4F000080B5034979440020024603F043
:104BC000CBF980BD4050000080B5034979440020F6
:104BD000024603F0C1F980BD9C50000080B5054934
:104BE0007A22FDF77BFF044979440020024603F056
:104BF000B3F980BD001800202451000080B505499C
:104C00007A22FDF76BFF044979440020024603F045
:104C1000A3F980BD00180020B051000080B5034901
:104C200079440020024603F097F980BD54520000F9
:104C300010B58CB06C46204604F078F9A0850D497B
:104C4000084206D1684601F01BFB0A90FF2001F0E4
:104C5000D7FA01F009FB6946884202D10A9801F0AF
:104C60000FFB6846808D002801D10CB010BD00F00C
:104C700049F9C046FFFF0000F0B59FB00446002C84
:104C80002FD10DAC002648222046314600F01BF9FA
:104C9000032525720D9633480E902046093034497D
:104CA00079440526324604F00BF820461730314F80
:104CB0007F443946324604F003F82046273039460F
:104CC000324603F0FDFF26462D362B497944304607
:104CD0002A4603F0F5FF4020112121541A960420A2
:104CE0001E9021480460214C01200102204603F05F
:104CF000E1FF01AD284604F019F9A88585B2002D21
:104D00000BD001A8002181850B9801F0B9FA0B980E
:104D100001F0B6FA102DE7D01FE001AD284601F0F2
:104D2000AFFA0B9000F028FAFDF760F9002002F0CE
:104D300007FF012002F004FFFEF71EFFFBF74EFA0B
:104D400001F092FAA84202D10B9801F099FA01A859
:104D5000808D0028C8D000F0D5F8FFF769FF1FB09C
:104D6000F0BDC04678006E00181D00201C1D0020FC
:104D7000934A0000884A0000714A0000F0B59FB0D5
:104D80000446A068002831D10DAD002748222846EE
:104D9000394600F098F80320009028720D973748A4
:104DA0000E90284609303749794405273A4603F0E2
:104DB00087FF28461730344E7E4431463A4603F08A
:104DC0007FFF2846273031463A4603F079FF2E46CA
:104DD0002D362E4979443046009A03F071FF402069
:104DE000112129541A9604201E90A5600027244EF4
:104DF00001AD284604F09AF8A885304207D101A8F1
:104E000001F03EFA0B90F8070FD001F0D5F901F050
:104E10002BFA01A9884202D10B9801F031FA01A8BE
:104E2000808D002828D10127E2E70A2001F0B8F898
:104E30006068022817D004280BD00328E5D1E06869
:104E400000218161A168E068FEF7DAFDE168886110
:104E5000DBE7E0680021C162A168E068FEF706FEBA
:104E6000E168C862D1E7E068FEF736FE0028CCD0E2
:104E7000A068FEF761FEC8E700F044F878006E0015
:104E8000FFFF00008B4900008049000069490000D5
:104E900080B5002001F0F4F980BDB0B5884208D992
:104EA000002A0FD0491E401E8B5C8354521EFBD13A
:104EB00008E0002A06D000239CB20D5D05555B1C5E
:104EC000521EF9D1B0BD80B50B46002A03D0114661
:104ED0001A4603F0FDFE80BDB0B50023002A0FD0B6
:104EE000401E491E8C5C855C521EA54202D1002AE0
:104EF000F8D105E00020C0430123A54200D80346B5
:104F0000D8B2B0BD10B5044601F0AEF9214604F0A8
:104F100019F8000080B501F08BF9002800D080BDA1
:104F20000648002141706022027002228270C17026
:104F30000171052101F070F980BDC0461C1E0020E2
:104F4000B0B51A48C078032807DC01280DD0022824
:104F500028D1174802F073F9B0BD04281FD00828E3
:104F600020D1134802F069F9B0BD114C012120464F
:104F700002F05EF9204602F03DF90E4CA0790028BF
:104F800011D120460C30002504222946FFF79BFF53
:104F90001034082220462946FFF795FFB0BD04488B
:104FA00002F049F9B0BD1020FFF7ACFF1C1E002035
:104FB000F4210020342100207F210140002003291A
:104FC00003D8C8B201490818007B7047342100207B
:104FD00080B516480179042918D0022906D0012984
:104FE00022D1811D134802F00DF880BDC2787F21C7
:104FF0001140032918D8C9B24A000D4B9A18002352
:105000001382821D0B4802F082F880BDC2787F2196
:105010001140032908D8C9B2054A521843791373BD
:10502000821D044802F01CF880BDC0461C1E0020F2
:1050300034210020F421002070B515460E460446A8
:10504000FF2D1BD80E4850210170202101714571A0
:10505000E91C817080222243C270090A4170062136
:1050600001F0DAF83046294601F0D6F87F202040DA
:105070004000044908187D210901018270BDC04625
:105080001C1E00203421002080B50A4601468220E3
:105090001423FFF7D1FF80BD80B50A460146832067
:1050A0001423FFF7C9FF80BD80B50C4801780029A3
:1050B00000D080BD062181710A21017008498B78DA
:1050C0004A7812021A43FF232A339A4200D31A461F
:1050D0004280C91C0348FFF7E0FE80BD3421002058
:1050E0001C1E0020E01F0020B0B5204882784178C7
:1050F0000902114300780F280ADC0E2810D00F286F
:1051000023D10020012927D1FFF71AFF0120B0BDCC
:1051100010281ED0162818D1FFF7C6FF0120B0BDF9
:1051200013488168643181601621124A435A002B6A
:1051300008D06424642B1D4600D325465B1B4352D4
:1051400013420ED0891E0E29F0D10220FEF760FE18
:10515000B0BD0020032900D2B0BDFFF739FF012008
:10516000B0BD002101701020FFF7CCFE1C1E0020F6
:1051700034210020FFFF0000B0B50A2000F010FF2E
:10518000084C0025182220462946FFF79CFE658022
:105190002570A571A56000F061FB034805604560BE
:1051A000B0BDC046342100204C21002070470000D3
:1051B00002480021016041607047C0464C21002038
:1051C000F0B589B00546084600F0A0FD0446002C65
:1051D00043D02069002840D0284600F097FD0146C2
:1051E00002AD1C2228460192FFF757FE2168E98094
:1051F00062682A81A0681A4F65233B7089B292B217
:105200004A434243D1084E1C07231A4200D10E469E
:10521000314600910426864070181D30B870000A8F
:1052200078700321384600F0F7FF2846019900F016
:10523000F3FFA06838700121384600F0EDFFE06808
:1052400000F064FDB1B200F0E7FF009885B220697C
:1052500000F05CFD294600F0DFFF09B0F0BDC0465C
:105260001C1E002070B500F051FD044620787F26FA
:10527000064000F0DDFF002830D1002E2ED0E0697E
:1052800000281DD000F042FD0546052E02D1A07E6B
:10529000002824D0284603F0AFFE064612486521B8
:1052A000017031461C318170090A4170032100F000
:1052B000B3FF1C21204600F0AFFFB1B228460BE03F
:1052C000094800214170652101701C25857003216A
:1052D00000F0A2FF2046294600F09EFF70BD204648
:1052E0002946FFF76DFF70BD1C1E002070B50446F7
:1052F000002C28D01448066845688E4201D16D1CE8
:1053000045600E43002902D00660324605E00022C7
:10531000026042600D4B5B1C1E438A4201D000219B
:105320004160082D0CD30321284603F0D3FB012252
:1053300090073043002900D03046D107884300E071
:1053400030462946A04770BD4C210020FFFFFF7F5B
:10535000F0B581B00F4E01243470B11CFF275037D7
:105360007A1C204600F03EFF054675707A1B7719BF
:10537000F91C022000F036FFB8702D187619F47071
:1053800000F024FF3071902070710020B071E81D92
:1053900001B0F0BDE01F0020F0B58BB00A46064614
:1053A00007210E4207D03346D8B291B2FEF70CFD6A
:1053B00080B20BB0F0BD4B20840083200390AA4D37
:1053C000A84F3346019109E06920A9490870039864
:1053D000801C487002220199079B2DE11021304664
:1053E0000840049292B20592002A069600D1B5E0D8
:1053F000002800D0B2E007930091029007E0A1B22C
:105400000022384600F020FF012000F03FF900F0B4
:105410000FFF0028F3D17D200001A9680E1828781D
:105420000928079A42DC072848D0092863D10021BF
:105430008E48079101F0F8FB10E0FFF76BFDA1B279
:105440000022384600F000FFA868B04200D3FEE01A
:10545000FFF74AFE00F0ECFE0028F0D1834801F08F
:1054600039F90028E9D0059AD01D4008A92800D3B1
:10547000F3E003980D307E4B9854981807994170CB
:10548000581D0499891C8AB205921946FFF705FD3B
:10549000052277480799FFF716FD0598401D83B24E
:1054A00072480399724A01F0D3FB3FE00A2804993D
:1054B0000AD00B2822D17148784401E06E48784424
:1054C000059900F035FA31E02046253080B2059E7E
:1054D000864200D9C1E053203870B970080A78704C
:1054E0000321384600F098FE6148314600F094FEF2
:1054F000002028701DE0002800D1ABE0D0B2059953
:10550000FEF762FC002811D0A4E0FFF703FDA1B272
:105510000022384600F098FEA868B04200D396E01A
:10552000FFF7E2FD00F084FE0028F0D12878002883
:10553000EBD10020A87128706880069EB10600D5C6
:1055400036E7FFF7E7FC30060298009906D5089188
:1055500008AA484B1846114601DF0298002804D1DA
:1055600070066ED40020A87128700020688000F0BA
:105570005FFE002801D1FFF7CDFCA1B20022384622
:10558000079200F061FE022806D8B9787A781202F4
:105590000A43D11C81423DD1FFF7A6FD68882978D6
:1055A0000029E4D00028E2D0354979440422304E65
:1055B0003046FFF791FC00282ED03249794404226E
:1055C0003046FFF789FC00282BD02F49794404226C
:1055D0003046FFF781FC002837D103982730C6B248
:1055E00000F0D2FDB04200D0EEE60120204E307037
:1055F000B01C402100F0BAFD7070811C184A121DC9
:105600001140039B0D337354C11C1140002373548C
:10561000021D10E00020A7E7FFF79AFE02460023D4
:1056200009E00020707003980D30307080200699DA
:10563000014302220B460199DEB20B4200D1CDE6B6
:10564000B2E6688806494018B2E66888B0E61020DD
:10565000FFF758FC0920FFF755FC0220FFF752FC2A
:10566000FBFF00001C1E00203421002054210020DC
:10567000E01F0020BE9A0060C7FBFFFFDDFBFFFFBD
:10568000FE480000F1480000E648000070B50446FE
:1056900000F0CEFD002801D1FFF73CFC4B2081003B
:1056A0000B4E002530462A4600F0CEFD30781528F6
:1056B00006D8012181400748014201D0002C05D1C4
:1056C000FFF712FD0125002800D10546284670BDD0
:1056D0001C1E00202070200010B5FFF71BFC084C9A
:1056E0004B2081000022204600F0AEFD20780E28DD
:1056F00001D0FFF7F9FC00F09BFD0028F0D110BDB0
:105700001C1E0020F0B581B000920F4604464B4E9F
:10571000B74210D0494D0021402628463246FFF7B7
:10572000D2FB00984028024600D33246284639462C
:10573000FFF7B3FB414EB07801280ADC002828D0DF
:10574000012869D1F01C042100F04EFC40213046B4
:105750002BE0022827D005285ED13079F1780902A4
:105760000143374C2068002781425BD12068002824
:105770001ED03448009D2918334A13686D1FADB2FE
:10578000AB4200D21168051D0D4030480068711D04
:1057900034E0F01C002704223946FFF794FB402137
:1057A0003046A0473EE025484021A047002739E089
:1057B000B0797179090201432548016001684908FF
:1057C000A8292FD801682048016071783278120228
:1057D0000A4320490A601D491F4A0A60009D691F4B
:1057E0008AB218495218D21C0368ED1FADB2AB4201
:1057F00000D202680D1D1540F11D17482A46FFF71B
:105800004CFB11480168491B0160104801684919A7
:1058100001602068401C20600B48016801200227BD
:10582000002907D1064800210160084801600648A8
:1058300001603846C0B201B0F0BDC04698210020DA
:10584000D8210020FBFF0000E0210020E4210020FF
:10585000DC210020E8210020E01F00200348002177
:10586000016003480160034801607047D8210020AF
:10587000E4210020E0210020F0B581B0264F3A68F5
:10588000264C2168002921D0002A1FD00090264DE7
:10589000002140222846FFF716FB0520A870234868
:1058A0000168090A2970006868701D490868000AC3
:1058B000E870086828710968206800290ED03B2626
:1058C0003B2800D826683968681D12E0144800217A
:1058D000016039601348017021601BE039263928C6
:1058E00000D826682068000A68712068A8713968A5
:1058F000E81D3246FFF7D1FA009A09492068801B5B
:1059000020603868801938600868401C08600648C4
:105910004021904701B0F0BDE4210020E0210020AB
:10592000D82100203421002098210020E8210020E7
:1059300080B500290BD0064A00231360054A116088
:10594000054A064B1360064A1160FFF795FF80BDBC
:10595000D8210020E0210020E4210020E01F0020C9
:10596000DC21002081B0F0B58EB015460C460690C3
:105970001393022C00D2BAE10698002800D1B6E1B8
:10598000002D00D1B3E10698214603F093F913A846
:1059900009902978002900D1A9E1671E002602E0BC
:1059A000A8194178761CC8B2002801D02528F7D163
:1059B000BE4200D33E46069C20462946324603F0AE
:1059C00083F9BF1BA4190694002F00D18FE1A95DB4
:1059D000AD19252900D087E16B1C002020210A2267
:1059E00008920490059007900446084604E009993F
:1059F0000A1D0992096804911D46224629786D1CEA
:105A000000242D29F9D0472918DC2F2926DD0B4643
:105A1000303B0A2B00D366E13029044600D10C4606
:105A2000079B002B00D004460A23079843435818CD
:105A3000303807902B4620461446DDE7672904DD01
:105A4000722921DD73293AD122E062293CDC482900
:105A50004BD1014601200590084617E0252958D072
:105A60002A2926D02E2900D03DE129782A2900D0E4
:105A70003AE16A786B1C01242A21482AB7D0682AA7
:105A8000B5D0732AB3D02FE1682936D110210891FF
:105A900009990B1D0993032313400968012B00D1B9
:105AA000BBE0022B00D1BAE0032B2B461446A3D057
:105AB000C6E02978022473292B4698D014E1752971
:105AC00029D078291CD00EE1632900D19BE06429FC
:105AD00000D008E1029003970998011D0991006820
