:02000004C0D06A
:1000000010B5044662B604F04BFD002C0DD0012063
:1000100000022168814205D1606801280AD1A068E8
:10002000002803D104F00CFC02E0002004F02CFCBA
:10003000002010BD204604F0A9FCF0B581B00446B4
:100040000020002A1CD00B780A2B19D89D0001260D
:100050003543954214D82370002B10D00096271DED
:100060004D1C002601210022284602F003FA01C798
:100070002D1D761C20788642F4D3009800E030468F
:1000800001B0F0BDF0B58DB04A484B4C0027275267
:100090004120C0000090275401AE304608F00CFD0E
:1000A0000546B585A8B2002812D0102877D001A83F
:1000B00087850B9805F0ECFE02203E4960524048CF
:1000C0006F21017045700121204602F049FD58E082
:1000D00001A805F0DDFE0B90208802F048FD207895
:1000E000002802D03548334D2FE0354A5078137838
:1000F0000021364D7D44364E7E446F5CBB4202D1BA
:10010000775CB8420AD0491C0D29F6D36D20000255
:10011000CBB20D210D2B274D01D116E0254D2D48D9
:100120007844405C002809D08120830067200002C9
:100130001279002A09D0E25A052A06D088002649F9
:100140007944085805F0EAFB80471E496052252192
:100150004901615C00290CD0009BE15CEF220A4060
:10016000E25409210903884203D05D21164A012384
:100170005354615B020A124B5A545A185070881C2F
:10018000605305F079FE01A9884202D10B9805F071
:100190007FFE01A8808D002809D10DB0F0BD01A817
:1001A00087850B9805F074FE102004F0B3FC04F072
:1001B000B1FCC046060200007C180020AA6F0000B7
:1001C000E81F00200A02000000180020068C000032
:1001D0000F8C0000F48B0000E48B0000F0B581B0C0
:1001E00018480024FF22214604F075FC41200090AD
:1001F000C600154FBC5515483C525D241448015D9E
:10020000B85D252255017A5D002A06D0002904D068
:10021000202108430099C90078540C49795A04F008
:10022000C3FE812189007852785D002806D00848F5
:10023000005D002802D0002005F0EAFDFFF722FF54
:10024000DBE7C046E81F00207C1800200602000003
:1002500000180020F0B581B0304C7C44204605F0F9
:100260005DFB808802F083FC204605F057FB808808
:10027000C0B2254CFF2843D02948784405F04EFBF6
:100280008088FF2108423BD0204804680546A088AA
:100290001F4F7870000A3870E088F870000AB87054
:1002A000207A38710934204608F028FC02467A7119
:1002B000B81D214604F0F9FB2C682046093008F0EF
:1002C0001DFC0546AE1D2734204608F017FCF1B290
:1002D0007854EE1DF0B23D18204608F00FFC02469F
:1002E0002846214604F0E1FB08480068273008F062
:1002F00005FC8019C0B20749074A5052092004037F
:10030000204601B0F0BDC04685690000201D0020D8
:10031000E81F0020060200007C180020629A0000FE
:10032000429A000010B51148784405F0F7FA807938
:100330000B490C4A082353520B4930224A700122C0
:100340008A700523CB7003230B714A7100248C71D2
:10035000CB7110401B2242400A700920000310BDDF
:10036000060200007C180020E81F0020949900007D
:10037000B0B51A4C7C44204605F0D0FA808802F0D3
:10038000F6FB204605F0CAFA8088C0B20F4CFF2861
:1003900019D01348784405F0C1FA8088FF2108423B
:1003A00011D06B2004020A4DA87800280BD10D480B
:1003B000784405F0B3FA80880649074A012353526E
:1003C0002870092004032046B0BDC046856900009E
:1003D000E81F0020060200007C1800204899000059
:1003E000289900000C99000010B50720C0430A4965
:1003F0000979002900D00846C4B267200002F82C11
:1004000008D80548214605F0F7FB044804490C527A
:100410000920000310BDC046E81F002006020000AE
:100420007C180020F0B585B0524E3779564D7D448A
:10043000284605F073FA808802F099FB284605F0FB
:100440006DFA8088C0B24C4C042800D98CE001259C
:10045000294681401620014200D185E00497B178F9
:100460006B200702002080291ED000297FD1701D3B
:1004700000262946324601F0FDFF6A023F498850B6
:100480007F2080000E5428020D543D20C0000E54E1
:100490003B480E547B2080000E541F2000010E505C
:1004A0000E75CE77334E0420F178002935465ED1A3
:1004B0000499091A7D229200304FB9542818401D22
:1004C0003F21C90078500126304602F015FC092072
:1004D0000203387D082849D100233B757F20800026
:1004E0003946385CFB340028274640D02024684633
:1004F0001F462B463033029318C008462830314639
:1005000004923A463B4605F085FB082103912846B4
:1005100005F072FB322028706F702A1D029F38464A
:100520002146234605F0A2FB7002144E315828469E
:10053000243002F032F92846283031461531039A2A
:1005400004F0B3FA1148784405F0E8F969460F6001
:100550004C600830302321462A4605F097FB0948B5
:1005600038213152049F02E0274600E01746B8B216
:1005700005B0F0BDE81F0020856900007C18002050
:100580008E040000060200008E980000769700009E
:10059000F0B59FB014460E4602AD69460D600121CC
:1005A00015AF1A463B4602F078F908354127002E70
:1005B00003D1284601F01EFD21274122204629466D
:1005C00004F073FA38461FB0F0BD0000F0B59DB0DE
:1005D000C44E7E44304605F0A1F98579BB4CA07825
:1005E0000D90304605F09AF92927C05D0126354067
:1005F0000B95002500282A460AD0A07802282A4612
:1006000006D1B348817901220020072900D0024693
:100610000C92B548784405F081F9C05D0D9B012B23
:1006200029460DD00C990029294609D100282946D0
:1006300006D0A74881790020072900D00646314618
:100640000A910127012B384600D12846252149016E
:10065000A04A515CA04EFE36E278002903D0002863
:1006600001D135462FE16B200502A078022800D980
:1006700029E1022A11D3032A08D0022A00D022E15C
:1006800096480068406B002807D11CE19348006839
:100690004021405C022800D015E167200502207946
:1006A000002800D10FE1012B099202D1601D04F056
:1006B00069F808900C98002809D060798000801DA6
:1006C000C0B220180121002201F0D4FE1C90874DF9
:1006D0007D44284605F022F9808802F048FA284631
:1006E00005F01CF97C49CD1C8088C0B2042800D9D3
:1006F000E9E0012181401620014200D1E3E005F04C
:100700004BFBAA28744D00D0DDE0651D2846394614
:1007100002F05CF90790412006902070671C14AB32
:1007200028460B993A46FFF733FF099B0546012BF4
:1007300014D0032B10D1E9B20EAD38462A4602F090
:1007400034F80020694608602246433214213223DF
:10075000284602F0F7FF43E0022B34D10EA8142103
:1007600004914170002105910170E9B2821C384664
:100770001F46039202F019F858480068022F17D15B
:10078000049F406B00282CD005F0C8F8014668464D
:1007900007602746433700223846039B05F086F959
:1007A0000546E8B201281CD1384608F0A7F917E041
:1007B000C0886946086005984860224643320EA802
:1007C000162196230AE045480068808800216A4681
:1007D00003C2E9B2224643329623384602F014F8A7
:1007E0000546422025540B98002801D10420607052
:1007F000EFB2E5192846433014A9202204F055F938
:10080000384663303649334B58520D98012830D062
:10081000079800282DD00C98002847D02425585D33
:10082000002808D0194620311CA8042204F05CF9E5
:10083000284B00283AD000265E55184620301CA9C7
:1008400004221F4604F031F91C9B2046C8300925BC
:10085000274A7A44294604F08DFED0202654069873
:10086000C000395C10220A433A5403F0ABFF2D0359
:1008700029E00D95322F354625D82046C83043341F
:1008800021463A461C4604F010F9C82000210D9A72
:1008900011540698C000215C10220A432254089883
:1008A000C0B203F07DFF092005030CE00920050319
:1008B0000A98002807D00698C000195C10220A4345
:1008C0001A5403F089FFA8B21DB0F0BDE81F002044
:1008D0003C2100207C18002082690000201D00209F
:1008E00006020000EA960000A8960000EC950000C1
:1008F000F6830000B0B5692300218522002807D0C7
:100900000C480D49085A0D4941180B32002001E0EE
:1009100010461A468BB20A4CE2548A1C054B064D0F
:10092000EA52491C89B2605491B2202004F03CFB89
:10093000B0BDC046060200007C180020FEFF00008B
:10094000E81F0020F0B593B00920C701C24D002672
:10095000EE51C24C285D02281FD0012800D078E15A
:10096000C84FEE51BE48295A002900D155E1BF4871
:10097000285C0122FD2846D3FE283AD0FD2800D06D
:1009800067E1032900D248E1BF48295CA12080002B
:10099000285C00020843032235E0B14C295B092999
:1009A00000D23AE1AF4BE85CFD22FC2801D80922D5
:1009B0000EE0904200D04CE10B2900D22DE1AA4874
:1009C000281800210A4601F031FDA64B295B0B22B5
:1009D0001018884200D920E10A9000200126A3497E
:1009E0002A18525C401C002A21D100240728F7D97C
:1009F0002BE0052900D210E1A348281800210A465F
:100A000001F038FD0522E851022129558F21C90046
:100A10006850964828188118914C16462A5B921BFC
:100A200004F043F8285B801B28530126F5E0691881
:100A300011AC0822204601F026FF8D4828180146F7
:100A4000224602F09DF8874B34460497EF1838464B
:100A500001F0FAFD0590384601F0C4FB07903846D6
:100A600001F0F8FB02908348006840210391405C4C
:100A7000002111280891099108460FD17B2081009F
:100A80000691384601F002FE09903846069901F0B9
:100A900035FE08903846069901F035FE019038463B
:100AA00001F0FAFB1F2211010691695802290ED8A4
:100AB00000920390384601F047FB0799084300284D
:100AC0000A9A3AD006982858012852D8C1E06948B5
:100AD00000680399405C11280A9A07993B4614D193
:100AE00018461F4601F030FB3B4607990A9A084317
:100AF00000280AD10898099B1843002C01D1059BB6
:100B0000184300283B4600D1A3E05A480068039FE1
:100B1000C05D11282DD001200021059A002A00D0A7
:100B200008460443184601F00FFB07990843012CBF
:100B30000A9A1ED100281CD18BE00898099B184303
:100B4000002C06D00028BDD106982858002807D1CF
:100B50007FE0059B18430028B4D100980001285875
:100B6000039B002B01D1012873D0002B01D1022857
:100B70006FD00998089B0343002B6AD10598002881
:100B8000049F3FD13C48285C00283BD0029B0B438C
:100B900004240320002B00D00446019808430028B9
:100BA0000CD136482918E0B228182E4A8018142291
:100BB00003F09AFF07990A9A002838D03D20C00018
:100BC00000291FD0285C00281CD009940BAC1422EB
:100BD000089262700020207028482918A01C03F099
:100BE00064FF16212046224601F0DFFD0998C0B2BD
:100BF00028181C4940182146089A03F075FF002860
:100C00000ED00A9A06996858401C6850EA51412053
:100C1000C000295C10220A432A54304613B0F0BDAC
:100C2000144800684421405C400712D50A9A1448D1
:100C3000295C00290DD10121295406996858401CCE
:100C400068508F20C0002958491E2950002AE4D03E
:100C5000DFE6012003F05EFF7C1800208404000022
:100C6000760400008A0200008B020000820200006D
:100C700085040000201D00207E0200006A020000A2
:100C80008D0400007C0400008302000070B59EB05B
:100C90000C4601AD69460D600126002214AB3146B9
:100CA00001F0FBFD0948784404F038FE08358179ED
:100CB0004120314203D1284601F09CF9212081B224
:100CC0002846224601F071FD1EB070BD169000004E
:100CD000F0B59FB0DE4A94786B210E021179002C9A
:100CE00004D0FF2C02D0802C00D098E10A90D94B80
:100CF000D94F3D20C0000990385C0025002806919E
:100D000012D0F85C00280FD150790125FD21FD2873
:100D10000AD34A1CD5B205220023A84200D01A46A5
:100D20000325884200D015460BAE304607F0C4FEBE
:100D3000B085CA49084208D00BA8002181851598C2
:100D400005F0A6F86F20060246E10BA805F0A0F812
:100D50001590387DC24E092800D03AE10221C843DF
:100D6000801CC0B2844240D1787F002800D11CE1B1
:100D70000520C401385D002800D12AE10025582251
:100D80000A98294603F0A7FEB1494879002800D106
:100D90000BE10A9E2336491D2922304603F085FEC9
:100DA000B64839183046FFF771FF3D55B04801216C
:100DB000395434463046AA4D01F0B6FD002800D122
:100DC000F3E025204001385C00282E4600D000E1E9
:100DD000A648042139544120C000395C10220A433E
:100DE0003A54204603F002FDDFE00791F520400071
:100DF0000890385C002813D1E8B206990B1A3446E3
:100E0000FB36002B00DAE4E000216A4611605160F5
:100E10008F4A1018421D3846283004F0FBFE264643
:100E2000787F00282FD08F4C385B069D4119FB3608
:100E30007D229200914200D9CBE038188A494018AF
:100E40008349491D2A4603F030FE385B4019385368
:100E5000FFF778FD002804D04120C000385CC006B0
:100E6000F6D58F20C000385800287D4E0BD1412088
:100E7000C100795C1022114205D17C4B0324FC5443
:100E80001143C00039540998385C714A917800299F
:100E900024D0002811D120206946486017A8086096
:100EA000384694306A494A1D0121069B04F0B2FE7F
:100EB00067490998385C002850D00898385C0028A9
:100EC00022D020206946486017A80860172000013A
:100ED0003A1838469430012160233CE000280BD1B9
:100EE000002168460160416038469430584A521DDE
:100EF000069B04F08FFE564A5F480121395255483F
:100F000039540020107050E0202468461B2109014C
:100F1000791801600A46039244603D462835012154
:100F2000049100230593284604F074FE284604F03B
:100F300091FE6846039A14C02846049D294623461C
:100F400004F068FE6846446017A901603846943092
:100F50003F4A2946059B04F05DFE3D49787F002805
:100F600029D04348385C002804D1002158220A982F
:100F700003F0B1FD3F48006801790A9C61708079F7
:100F8000A07020464C30082104F036FE3A480799FC
:100F9000395200202E4908704870787F002811D0FF
:100FA000E01C17A9202203F080FD159804F070FFC3
:100FB0000920060333E03048079A3A52002048706F
:100FC00008700A9CE11C17A8202201F0D7FB00281A
:100FD00028D0159804F05CFF274C00203853387552
:100FE000204D7A5B20483918194803F05EFD785B84
:100FF000385304F041FF0BA9884202D1159804F040
:1010000047FF1A4801213954164800243C521C4815
:1010100038180822214603F05EFD1A483C54B0B24D
:101020001FB0F0BD0898385C7B218900795C0143D2
:1010300009983A5C0A20002A05D0090603D101204C
:10104000089978540020387509200603D1E7C04676
:10105000E81F0020810200007C180020FFFF000034
:10106000856900007604000082020000840400000C
:101070007E020000201D0020060200006A0200001F
:10108000850400008D04000070B521200001134D7F
:101090002818FFF71DFE04464120C600A85DC006C3
:1010A00019D50F48295C042904D0032905D103F080
:1010B00029FB04E0012129540DE003F0FDFA00288A
:1010C00009D1084800212952A85DEF220240AA5503
:1010D0002975D520C401204670BDC0467C1800206B
:1010E0008404000006020000F0B581B08F20C70024
:1010F0003D4DE8593D4C295D022901D1401EE85182
:1011000009210E030028009629D039482818CE015D
:10111000AA598118374C2B5B9A1A03F0C6FCA859C0
:10112000295B081A28534120C600A85DEF21014021
:10113000A955FFF707FC002802D0A85DC006F8D526
:10114000A85DC006009E294C09D503F0B5FA0146FA
:101150000120002945D100202875D520C601295D30
:1011600002290AD1E859002807D10320285503F0A5
:10117000C9FA002807D0295D0AE0320A0020009B46
:101180009E420CD12DE0002129552975D520C6019C
:1011900001200022009B9E4200D01046320A164FCA
:1011A000EB5B164CE2549A1CEA535B1C9BB2E65470
:1011B000002801D003290FD101200C4968540D48A3
:1011C00000242C520E4828180822214603F083FCE4
:1011D0000C482C5408482A5A91B2202003F0E4FE0F
:1011E000002001B0F0BDC0467C180020840400003F
:1011F000820200007604000006020000E81F0020C2
:10120000850400008D040000F0B585B0744D2F7981
:101210007C4C7C44204604F081FB808801F0A7FCD4
:10122000204604F07BFB6F4EF21C8088C0B204287D
:1012300000D9D2E0049701273946814016200142A7
:1012400000D1CAE0A878684A7632802808D0002801
:1012500000D0C2E03902654B03245C5400211975AB
:10126000EC788023052C59D8012C57D0002874D154
:10127000581CC1B200208C4200D00746A01E02902C
:101280005A48407F002803930CD118462A30C0B238
:101290000090019104F080FD0199009A904232463D
:1012A00000D09AE07B208000504A13461F541F2034
:1012B000000100221A5001208C4201461E4600D037
:1012C0001146029BDBB2042B034600D3134619439D
:1012D0003D23DB00F1547077F283454909684023D0
:1012E000CB5C444972540326744002265E40264378
:1012F000002E00D01046FF263246EA323B49885481
:101300001A2B14D8012098403B4A10420FD0E8789D
:10131000052808D004280AD1012005E0802C1CD023
:10132000812CA3D059E00220324A304988543348F6
:1013300000242E4F3C54F52040003C5430483818CF
:101340001822214603F0C7FBEC36BC550520C0012E
:1013500001213954EC78A878039B049FFF21EC31DC
:10136000224E3D22D2009C422BD0B25C002A28D0D3
:10137000725C002A25D1984223D128790A38C0B25C
:1013800031281ED8687902281BD8012808D1A879ED
:10139000382805D1E879322802D1287A002810D0DF
:1013A00025204001305C00280F4A16D101207054DE
:1013B0004120C000315C10220A43325403F036FA57
:1013C000049F7D20800037543F20C000691D3150AC
:1013D000022001F091FC0920020390B205B0F0BD9B
:1013E000E81F0020826900008A6A00007C18002043
:1013F000201D00208E040000800140048F040000A6
:101400006A020000AA8A0000F0B593B0724C7C44D6
:10141000204604F083FA808801F0A9FB204604F0FE
:101420007DFA8088C0B2634F04283ED80125294642
:1014300081401620014238D05F4E6B200002B17807
:10144000002902D0F178002930D1672000023179DB
:1014500007292BD305AC204607F02EFBA085574962
:10146000084208D005A8002181850F9804F010FDDE
:101470006F2007020EE005A804F00AFD0F90504906
:10148000087D0A2803D1FB3770790B2811D30F98F8
:1014900004F0FEFC4A480021017504F0EDFC05A9AA
:1014A000884202D10F9804F0F3FC384680B213B0A2
:1014B000F0BD44480818741D29220490214603F009
:1014C000F4FA707980002843215C20184418601CCD
:1014D00000262946324600F0CDFF039064793A4851
:1014E00037490C543D48784404F018FA80790421B7
:1014F00008420DD1354800684021415C022902D0E4
:10150000816B002951D0412CC1D1806B0002044372
:101510002F482B49085C00281DD111AD284603999E
:1015200001F03BF9281D214601F037F97B208000AE
:101530002349085C002804D011A8082100F0E2FD2E
:1015400009E06846066046600846283011AA08236C
:10155000314604F05FFB0021049D284601F036FA75
:10156000002805D00120014600F03AF8144C09E0AB
:101570004120C000124C215C10220A43225428460C
:1015800003F044F925204001205C09210F030028C5
:1015900083D010488168491C81604268914200DA1A
:1015A0007BE75D210122425477E7012C2C46AFD026
:1015B0006DE7C04685690000E81F0020FFFF0000BE
:1015C0007C1800203302000066020000201D00206D
:1015D0008E04000000180020AE880000D6870000AE
:1015E000F0B5B1B0002818D0039100216846016021
:1015F0003448354C201827AB0A4601F04EF97B20C1
:101600008000205C00280FD02020694648601FAA77
:101610000A604120800020180DE02D4B2A4A00204E
:10162000D052692285263BE02020694648601FAAE7
:101630000A60204628300121002304F0EBFA04AFB1
:10164000384604F007FB2025684645601FAE06605B
:1016500001243846214632462B4604F0DBFA1E4868
:10166000784404F05BF98079400820406946FF2205
:1016700052320A60486027A8144C31462A46234655
:1016800001F042FA6178C81C114A0F4B9852114A76
:101690009A5C61188A707A21CA430B32002603993A
:1016A00000290DD183B2094CE254821C084B064D2F
:1016B000EA52401C80B2265491B2202003F074FC00
:1016C00031B0F0BD330200007C180020E81F00207C
:1016D00006020000660200005C860000F0B581B0E2
:1016E00067200602284D287901282AD1284C7C44FD
:1016F000204604F013F9808801F039FA204604F0FE
:101700000DF98088C0B2214FFF2819D021487844B4
:1017100004F004F98088FF21084211D0FE1E04F075
:101720003BFBAA280DD16C791B48784404F0F6F8ED
:10173000092109038088C0B2844205D10E4600E029
:101740003E46B0B201B0F0BD3E46FB36082CF8D89C
:1017500000910120A0408B2149000842F1D00F4D9B
:101760007D44284604F0DAF8408801F000FA284663
:1017700004F0D4F8408820423E46E2D0204600F0F3
:1017800041FC009EDDE7C046E81F0020856900009F
:10179000CE850000AE850000928500005C850000CB
:1017A0006D20000270470000F0B58BB009AD00213C
:1017B00006262846324603F08EF90A200A9901438C
:1017C000297101242846214601F0CAF90220284344
:1017D000214601F0C5F9124F7F44384604F09EF8C7
:1017E000801C2946324604F0F9F96D462026284629
:1017F000314604F001FA384604F090F808302946E2
:10180000324604F0EBF908AD2C70384604F086F847
:10181000401C2946224604F0E1F90BB0F0BDC04659
:10182000E4840000F0B581B0017800250091002922
:1018300018D0441C002701250026204629463246A0
:1018400000F018FE80B2094988420BD0084988424E
:1018500007D0241D7F1CF8B2009988423546EAD390
:1018600000E00225E8B201B0F0BDC0461DB10000A5
:101870001EB10000F0B597B08E4FBC788020204399
:101880006B210E0280286BD138790990FD78002CED
:1018900003D1022D01D3802D62D1D520C6010A9635
:1018A000FE3E04F079FAAA285AD10BAE304607F072
:1018B00003F9B0858049084208D00BA80021818532
:1018C000159804F0E5FA6F20040238E00BA804F044
:1018D000DFFA1590002C14D099218900774C615AB9
:1018E0004D22D200002927D0A25A8A4224D174481E
:1018F0002018FFF797FF002835D000F0EBF80446DA
:1019000025E0012D0DD8212000016C4E3018002457
:101910005822214603F0DFF878790B282FD3159849
:101920000AE099218C00654D295B4D22D600AA5B07
:10193000099BD2188A423ED904F0AAFA0A9C2120B7
:1019400000015E4908180021582203F0C4F804F091
:1019500093FA0BA9884202D1159804F099FA264609
:10196000B0B217B0F0BD4120C000215C10220A4384
:101970002254159804F08CFA09200603F0E7524827
:1019800000680179514AB1548079514970544C48EA
:101990003018791D292203F088F878798100012315
:1019A00019437A185079002D08932FD092790002AC
:1019B000104307222BE0039400246846046044602F
:1019C000284628307A1D029221461D4604F022F94D
:1019D000684604604460394894302146029A2B4698
:1019E00004F018F93548805B4019344A90533C7034
:1019F0000399515A80B2814204D1324802211152D6
:101A00007C7054E02F480121115250E006229923A6
:101A10009B00F0528918F62807D0B42805D000287A
:101A20000A9C159804F034FA89E74D20C5007453D8
:101A3000283630460793059104F00CF91F4894307E
:101A4000049004F007F9059A079B06951B48405B34
:101A50000999491D891ACDB228181849C95A8842CE
:101A600000D95CE7684604604460BA1830462146F5
:101A700016462B4604F0CEF868460460446004988D
:101A8000214632462B4604F0C5F80C48024606991A
:101A9000505A281850523C700799515A80B28142CE
:101AA0001146089A01D17C70022206480A52092088
:101AB00004034CE7E81F0020FFFF00007C18002013
:101AC0003302000006020000201D00201102000069
:101AD00012020000F0B5A1B03748384F00243C5244
:101AE00003AD284606F0E8FFA8853549084207D02F
:101AF00003A884850D9804F0CBF96F20040242E01E
:101B000003A804F0C5F90D902021029168464160B8
:101B100019AE0660294F2837012538462946324636
:101B2000234604F077F8384604F094F868460660D7
:101B3000029B436038462946324604F06BF86846FB
:101B4000046020481D4908180FAF214622463B4635
:101B500000F0A3FE1D48784403F0E0FE80794008C1
:101B60002840694664220A604860174C3846134F83
:101B70003146029A234600F0C7FF6078801C0E4968
:101B800078520920040304F077F903A9884202D1AE
:101B90000D9804F07DF92120000138180021582209
:101BA00002F099FF03A8808D002802D1204621B0C1
:101BB000F0BD02F0AFFFC046060200007C18002016
:101BC000FFFF000033020000E81F002066810000D4
:101BD00070B525204001094D285C002801D0084C33
:101BE00009E04120C600FFF745FE0446A85DC00697
:101BF00001D502F0BFFD204670BDC0467C18002014
:101C000082690000B0B5014669228520002902D012
:101C1000FFF760FF020A0749074B5C5A074D2A5538
:101C2000A21C5A52611C89B2685491B2202003F060
:101C3000BBF9B0BD060200007C180020E81F0020A0
:101C40006D20000270470000F0B589B01E461746AF
:101C50000A460024E543782A00D987E0002A06D006
:101C60000024015D002902D1641C9442F9D3049040
:101C7000111B8A2048436421069206F06BFC034640
:101C80005A1C306898423FD9019602950021384687
:101C90000092059302F01FFF059B0394069884426F
:101CA00026D21946039A04980792805C491E08912F
:101CB0001C46395D09020E183D463A273046394622
:101CC00006F0D2FC4743F11B2F46395539360899A7
:101CD0008C4201D8732E04D3611E002C0C46E8DC24
:101CE00000E02146079A521C06988242059BDAD1F1
:101CF0000021039A029D019E785C002806D1481CB1
:101D000099420146F8D302E032602FE0084600997C
:101D10008918091A336831608B4227D3131A002BB4
:101D200010DB481E0028059B19DB134878447C18FB
:101D30001E46BB5DC35C635533465B1E491E0029CE
:101D4000F5DC0CE08A420AD20A49794414463B5C2D
:101D5000CB5C3B55401C641C33689C42F7D307485E
:101D600078440178384602F0B6FE0025284609B0CE
:101D7000F0BDC046766F0000946F0000606F0000F9
:101D8000F0B595B000920F4602900AAC2A21204689
:101D900006F056FD022004430594790001400D220F
:101DA0000A4303924140881D0190132500210298A7
:101DB0000491405C0690002107200991401A0121FE
:101DC00008918140069801400791ECB2142C0ED87E
:101DD0001520021B60000AA90E183188C81C0429AE
:101DE00000D808463080521EB61C002AF5D160008B
:101DF0000AA9085AFF34072800D82C46E0B2132855
:101E000017D814210D1A400005990A180AA90E5A6C
:101E1000138801210027072B084600D83846760092
:101E20000E2737400743C8431752921C6D1E1E46AB
:101E3000EED107980028089A00D102461498400075
:101E40000E21014011430AA801850999491C08295E
:101E50002546B1D10499491C08292546A7D100215E
:101E60000B460A460C46009ED8B240000AAD285ADE
:101E7000240603D1002801D10C4604E0D4B230304E
:101E80003055521C01245B1CD8B2039D8542EBD80F
:101E90001106019D02D1302131700122002421461A
:101EA000CEB2B5420D4622D9361876000AAFBE5BD7
:101EB0006D1C002E04D1EEB2019FB742F4D816E09B
:101EC0002506009F04D1D4B22E253D55521C012475
:101ED000DDB26D000AAE755B3035D6B2BD55521C11
:101EE0005B1C491CCDB2019EAE423546D8D8D0B25B
:101EF00015B0F0BD80B583218900044A52580449C9
:101F00000968496CFFF73CFF80BDC0467C18002083
:101F1000201D0020F0B583B02B4D00262B4A28460B
:101F2000314602F0D8FD2846314600F019FE284817
:101F30002E52252040012E54264801242C54264898
:101F400028180822314602F0C6FDFF20EC302E543E
:101F500022482E542248784403F0E0FC40780128BF
:101F600001D0FFF721FC1F48784403F0D7FC4078EC
:101F7000002807D01C48784403F0D0FC808800F08B
:101F8000F6FD02E0FF2000F03DF81848784403F029
:101F9000C5FC0078002814D102AD2C7001AE34705D
:101FA000134F7F44384603F0B9FC293031462246AE
:101FB00003F014FE384603F0B1FC2946224603F034
:101FC0000DFE03B0F0BDC0467C180020A404000044
:101FD0007604000084040000850400008D040000E5
:101FE000667D0000547D0000467D0000307D0000CD
:101FF0001A7D00004021415C01220A400221114368
:102000000170704710B582B0014601AC204600F067
:10201000A7FD0548784403F081FC001D02222146FB
:1020200003F0DCFD02B010BDA87C0000F0B58DB05F
:1020300007464120800032490D180C46284603F01F
:1020400009FE002668460660466077208000221858
:1020500004232846314603F0DDFD684606604660ED
:10206000172000012218202428463146234603F079
:10207000D1FD6846066046601920000120490A1813
:1020800028463146234603F0C5FD0C960B96039770
:1020900008377D2084000CAA0BAB3846214600F09F
:1020A0000DFA002828D00B980C9900266A46166075
:1020B00056600B18083328463146039A03F0AAFDF0
:1020C00004AA3846214600F023FB002813D06846B6
:1020D0000660466004AA1A232846314603F09AFD9A
:1020E000684606604660082328463146039A03F096
:1020F00091FD012600E0002630460DB0F0BDC0463F
:102100007C180020F0B583B00C46054600266846D2
:1021100006604660412080000A490F181B2000011C
:102120000A1820233846314603F074FD68460660DD
:102130004660384631462A46234603F06BFD03B01D
:10214000F0BDC0467C18002070B504461E4E3068B5
:10215000416B002911D01D4979440322204602F029
:10216000C3FC012500282CD01949794403222046BC
:1021700002F0BAFC002824D030684021405C1328CB
:102180000CD1144979440422204602F0ADFC002809
:1021900016D118341049794428220BE00F497944AC
:1021A0000422204602F0A0FC002809D118340C4972
:1021B00079440222204602F097FC0125002800D035
:1021C0000025284670BDC046201D0020296B000058
:1021D0001A6B0000036B0000F56A0000AF6A000094
:1021E000A16A0000B0B50446154800684021405C73
:1021F000132810D1134979440322204602F074FCBD
:1022000000281AD11734104979442722204602F0B9
:102210006BFC01250FE00D4979440322204602F0B2
:1022200063FC002809D11734094979440125204667
:102230002A4602F059FC002800D000252846B0BDEF
:10224000201D0020616A0000526A00003B6A000005
:102250002C6A0000B0B504460C480068406B0028AA
:1022600010D00B4979440322204602F03DFC0125A1
:10227000002808D0074979440322204602F034FCA4
:10228000002800D000252846B0BDC046201D0020F3
:102290001D6A00000E6A0000B0B504461B4979446F
:1022A000032202F021FC002809D1204623301849DE
:1022B000794401252A4602F017FC002824D015494C
:1022C00079440322204602F00FFC002809D1204661
:1022D00023301149794401252A4602F005FC0028E3
:1022E00012D00E4979440322204602F0FDFB00285B
:1022F00009D143340A497944012520462A4602F08F
:10230000F3FB002800D000252846B0BD156A000068
:102310000C6A0000F6690000E8690000D569000059
:10232000C6690000F0B586B0FF2414700468002769
:102330008C421AD20B9E002B01D000241C60002E70
:1023400001D00024346005684C1B012C0DDB059284
:102350002A46551C056014784E2C5FD804954C2CE9
:10236000039704D22746049D45E03C4659E00027E8
:102370004E2C26D04D2C0DD04C2CF4D10294374647
:10238000049C0E1B0024012E3E464ADB951C056072
:1023900057782FE002940196049C0E1B0024022E15
:1023A00015463EDB009300231C461F46049AD65C6C
:1023B000E4B2A640F7195B1C0834022BF7D1ED1CE0
:1023C00015E002940196049C0E1B0024042E154671
:1023D00027DB0093002423462746049A165DDBB2D0
:1023E0009E40F719641C0833042CF7D16D1D05605D
:1023F000009B019E029C491B002915DB0495254684
:10240000B942039C0DD3002B01D004991960002E12
:102410002C4600D037600168C91901600598047026
:102420000124204606B0F0BD039CFAE7F0B581B068
:1024300000920722D34308240029224600D01A46DE
:10244000002900D10C4600252946465D7F273740EC
:10245000002D334600D13B46009F002F00D01E4682
:10246000E3B29E4071189C186D1C022DEDD10846F8
:1024700001B0F0BDF0B581B000920722D34308222D
:10248000002900D01A461824002900D10C46002546
:102490002946465D7F273740002D334600D13B4615
:1024A000009F002F00D01E46E3B29E4071189C187A
:1024B0006D1C042DEDD1084601B0F0BDF0B5044609
:1024C00000201060186000291FD02578FD26FC2D03
:1024D00001D8012710E0032917D3B54215D1601C9C
:1024E000002426462546075DF6B2B7407D19641CD8
:1024F00008360327022CF6D115601F601068C31937
:10250000012000228B4200D91046F0BDF0B585B005
:10251000144602460020FD26002B029608D0002318
:1025200000291BD01578B54205D201212B4616E0B3
:102530000B46014613E0032910D3B54219460ED1CC
:10254000561C00252F462B46715DFFB2B940CB18B3
:102550006D1C08370321022DF6D100E01946029DBB
:10256000AD1C04AE357055180395D2185518002BC4
:1025700017D0002637466846066003A804AA2946F5
:102580003346FFF7CFFE00280AD004A80178781C54
:10259000A14200D038460399A9420746EBD100E09A
:1025A000384605B0F0BDF0B585B002920027FD2297
:1025B000002B08D0002300291BD00478944205D2B8
:1025C0000121234616E00B46394613E0032910D3B8
:1025D000944219460ED1441C00252E462B46615DBF
:1025E000F6B2B140CB186D1C08360321022DF6D18E
:1025F00000E01946921C04AC227042180392C018E5
:10260000451802980128019716DB002B019F13D073
:102610000B9C0A9E00276846046003A804AA29466A
:102620003346FFF77FFE002806D07F1C02988742C2
:1026300002DA0398A842EED1012002998F4200D01D
:10264000019805B0F0BD000070B501464A7801233D
:1026500000246A2A184600D020460B4D2D684026DB
:10266000AD5D022D00D023461843022D0AD16A2AFF
:1026700008D00020002A05D18A78012000216A2A8A
:1026800000D0084670BDC046201D002080B5C12284
:1026900000F002F880BD0000F0B581B015460E468E
:1026A0000746FFF751FD0024002804D13846FFF704
:1026B00099FD002802D0204601B0F0BD0E48006808
:1026C0004021405C7978022807D16A2905D0002989
:1026D00007D1B8786A28EED003E06A29EBD0022847
:1026E000E9D00123384631462A46FFF70FFF002480
:1026F0000128E0D10446DEE7201D002080B5C2227B
:10270000FFF7CAFF80BD80B5C422FFF7C5FF80BDBB
:10271000F0B585B0144600270497039703AA6B46CB
:102720005A6004AA1A60022201263346FFF73BFFD3
:1027300001283D4600D1054604990029304600D1C4
:10274000084605400398142800D03E463540002D29
:1027500011D076206070192020701422E27077204A
:10276000C64330462130A070201D02F09EF9243669
:10277000667688202076284605B0F0BD70B5002327
:10278000002A08D00023521E94B2055D0E5D6E40F3
:102790003343002CF7D1D8B270BD01700A0A4270E1
:1027A0000A0C8270090EC1707047F0B5A3B01646CE
:1027B00003AC202522462B4603F058FA0BAF3846CF
:1027C00003F03CFA142069460E6048600121384647
:1027D00022462B4603F01EFA23B0F0BD70B588B038
:1027E00014466D4620262A46334603F03FFA284613
:1027F00031462A46334603F039FA04222046294658
:1028000002F053F908B070BDF0B58BB01D46144608
:102810000346109E02270120FF2E00D8074611987C
:10282000002808D014203843C2B202A8194602F08A
:102830003CF9FFB20EE0FFB202A8C2191846FFF73A
:10284000B4FF300A04D002A84670310A017001E0DA
:1028500002A806701421394302AEF2191432304630
:10286000FFF7BCFF01951821394301AB30462246E2
:10287000FFF7EAF9002803DB01A800880BB0F0BDE0
:10288000012002F047F9002A06D0491E8B5C037034
:10289000521E401C002AF9D17047F0B58DB0174682
:1028A00006780B2E3CD201910293002E13D0401CCF
:1028B0000021182200252B46445DD2B29440E31833
:1028C0006D1C083A042DF7D18A0003ACA350491CB3
:1028D000001DB142EDD102F007FD684607602127D7
:1028E00003AD3846294632462B4603F037FA2022FC
:1028F00038462946029C234603F0DCF9019800285B
:1029000005D0129921200123224603F0E3F902F0B9
:10291000EBFC03A80021202202F0DDF80DB0F0BD91
:10292000022002F0F7F80000F0B58DB002461078F2
:102930000B2843D2012600283DD002960191521C5B
:102940000024182500273E46D35DEDB2AB409E190A
:102950007F1C083D042FF7D1A30003ADEE50641C8B
:10296000121D8442EDD10528029E24D10126F207D2
:10297000039B53402C2B03D0542B01D0312B1AD165
:1029800010490B681C88002C06D0049D5540A542B8
:1029900002D059888D420ED16432059991420ADCE9
:1029A00006990198814206D1074A079B012600211A
:1029B000934200D80E4630460DB0F0BD022002F022
:1029C000A9F8C046201D002050C30000F0B58DB00E
:1029D00002461F4803681C880120002C33D0107861
:1029E000022801D208462EE0019102930B282CD236
:1029F000521C0025182600273B46D15DF6B2B14097
:102A0000CB187F1C083E042FF7D1A90003AE7350EA
:102A10006D1C121D8542EDD10122D3070398584049
:102A20002C280299019D04D0542802D03128284630
:102A300009D1049D5D40A542104604D04A8801207A
:102A400000219542CED10DB0F0BD022002F062F817
:102A5000201D0020F0B585B004920C4602780B2AA8
:102A60004CD2202121700121002A3DD00499891ED9
:102A70000191461C00230121029203931820002299
:102A80001546B35CC0B283405D19521C0838042A55
:102A9000F7D1C9B26018049A511A0122D2072B4605
:102AA0009343184A7A4402F065FD2746204604996C
:102AB00006F0BCF8C1B2361D019A91421BDA002D16
:102AC000039B01DB3C4603E027223C466254401C4A
:102AD000C1B22F226254411CC8B2002222545B1C96
:102AE000D8B2029A9042C8D3C8B2401E00212154E5
:102AF000C0B205B0F0BD032002F00CF8022002F0D5
:102B000009F8C04619620000F0B587B01C461746A8
:102B10000591064602F0E8FB0020069006AD6846E7
:102B2000C5600C998160446007600D98002801D051
:102B30000A4900E0084903223046059B03F0DAF811
:102B40002878C00703D0207801210143217002F0CA
:102B5000CBFB07B0F0BDC046010400000106000039
:102B60000A020A43FF21090251400180704780B5E3
:102B7000FF218143000A814201D003F025F880BD86
:102B8000F0B5002307241E46155D0F5DF619751973
:102B900005550126FF2D00D81E46671E002C3C4619
:102BA000F2D101200021FF2D00D80846F0BDF0B57C
:102BB00081B0002607240096155D0F5D330604D012
:102BC000AF4204D97F1E002303E0009B01E0FF37E2
:102BD0003346BFB27E1B06550126AF4200D31E46C8
:102BE000631E002C1C46E7D1F0B201B0F0BD00001E
:102BF00070B582B0044601263002114D285C304287
:102C00000DD03F20C0002A58002168460160416075
:102C100028462830234602F0FDFF3002285C80075A
:102C20000BD53F20C0002A58002168460160416052
:102C300094352846234602F0EDFF02B070BDC04631
:102C40007C180020F0B581B07D208600294DA85D5C
:102C5000002848D03F20C700E8590478FC2C05D84C
:102C600001252846FFF7C4FFFF2031E0FE2C19D0D4
:102C7000FD2C3BD10120FFF7BBFFE859411CE95176
:102C8000A95DFF31A955C9B201292CD9417800911C
:102C9000847802252846FFF7ABFF240200980443FE
:102CA000FE2015E00120FFF7A3FFE859401CE85182
:102CB000A95DFF31A955C9B2032914D900210A46DB
:102CC000FFF7D8FB044604252846FFF791FFFC20B8
:102CD00008490A46D1594919D151915D401890557A
:102CE000204601B0F0BD012001F014FF022001F0E8
:102CF00011FFC0467C180020F0B5BFB00646E94879
:102D0000784402F00BFE857933AC204605F0D4FE02
:102D1000A085ED0801273D4084B2002C01D000F0D1
:102D200065FC33A803F0B4F83D90002D199700D14D
:102D300019951B951DA8C01D189025A8011D169159
:102D400028301790F1481C961A9707466AE2072820
:102D500000D067E23C69002C00D161E27D20850053
:102D6000785D002801D100F030FC844200D3044695
:102D7000002CE64F01D100F028FCE0B2FFF738FF4D
:102D80003F20C000395809193950785D001B78552B
:102D90003869001B386145E24E783446083CE1B2A0
:102DA000302901D900F01FFCB11C1191C9B2884231
:102DB00001D200F018FCD648784402F0AFFDD349A8
:102DC000149D49596A46566025AB059313608A1CC9
:102DD00008302021234602F059FFCC484059801981
:102DE000811F08220598FFF7C9FC002800D0FAE3EC
:102DF000C64D149EA8593D21C9006A5C002A0DD019
:102E00003A22825C3223C254A859401DA851EA5D7F
:102E1000F332EA55695C012200293DD1811C25AEBF
:102E20003046224601F041FE3078322800D0DAE305
:102E3000B6480546149EAC591698A8512420FFF7B1
:102E4000D7FE11996018A851E85D401AE8552F4641
:102E50001DA808221799FFF716FD0020014602461B
:102E6000189E735C7C18257F5219D3182377012292
:102E7000FF2B00D80246491E0C460834F1D101252B
:102E8000FF2B00D885E0AEE33D20C0009F49085CE1
:102E90000022002800D1A6E3139201263046FFF756
:102EA000A7FE9A4D14996858421C6A50E85DFF309D
:102EB000E855C0B2232800D895E3F5204000285CEF
:102EC000002826D034022E552420FFF791FE002042
:102ED0000C942855149C295924312951E85DDC3083
:102EE000E855C0B2072800D87DE30F20400128181C
:102EF0000822039201F0D9FD0398FFF779FE0C98A0
:102F00002E54285908302851E85DF830E855139DB3
:102F10003FE0002168460160416017200001281849
:102F20002424234602F076FE2046FFF761FE149823
:102F3000295824312950E85DDC30E855C0B2072813
:102F400000D850E31DA80822FFF79DFC0020014691
:102F50000246189B5B5C6D4C6418257F5219D31890
:102F60002377FF2B324600D80246491E0C46083410
:102F7000EFD1FF2B139D00D935E30820FFF738FE72
:102F800062480146149A885808308850C85DF83065
:102F9000C8553D20C0005D4A105C002802D10120C8
:102FA000010250541C9E159CFFF74CFE574F386190
:102FB000022171403D22D200BB5C2B430B43002217
:102FC000002B214600D0114600281A9A00D1044651
:102FD0000C4054401B98002802D1002C00D102E381
:102FE000022038757D25AC00385D002800D1ECE268
:102FF000396901291A9B20D13F20C600B8590078B1
:1030000001210022AE2800D11146199A114301294D
:1030100006D101210022AE2800D111465940F9778E
:103020000120FFF7E5FDB859401CB851385DFF306D
:1030300038553969491E39611C9E002917D04D1E2B
:10304000C0B2854200D30546002D304F00D1BCE20E
:10305000E8B2FFF7CDFD3F20C0003958491939507B
:10306000385D401B38553869401B3861DAE0022E64
:103070001ED13D21C900795C002915D0F5214900F8
:10308000795C002914D000216846016041600F205E
:1030900040013A1838462830082302F0BBFDA8004A
:1030A000385C05E0BC6F00000121090203227A545C
:1030B000C0B2032800D896E2F52040003D21C900A7
:1030C000795C00290ED0385C00280BD13F20C0006D
:1030D0003A58002168460160416038462830042390
:1030E00002F098FD0420FFF783FD3F20C00039580F
:1030F000091D3950385DFC30385501203875B868E5
:10310000401EB860F868401CF8608BE07C18002016
:10311000046F0000F5204200B95C3D25E800385CF2
:1031200000284FD000294DD120266846466025A9A9
:1031300009910160172000013C180B9401210491B2
:103140000023089320460F92099F3A460E9502F0FD
:1031500061FD204602F07EFD68460760466020461D
:10316000049D29463A46334602F054FD68464660BF
:103170001DAF0760ED4C2834204629463A46089B8F
:1031800002F048FD204602F065FD68460760466093
:10319000204629463A46334602F03CFD0B980999F1
:1031A000324601F082FC19200001E0490818394636
:1031B000DE4F32461C9E01F078FC0F98395C0E9869
:1031C000C000385C002822D0002920D0D848385CC4
:1031D00000280BD100216846016041601B200001DE
:1031E0003A1838462830202302F014FD0A2038759A
:1031F00018E0052816D17D208400385D002800D114
:10320000E3E13D69002D00D01BE7042076E70921AA
:103210003975002806D03846283002F01BFD01E041
:1032200008203875397D00E03975C8B2042807DCFC
:1032300002286EDD03282AD00428F3D1B86836E0CE
:10324000062800DDBBE1D4D17D208400385D002854
:1032500000D1BAE1032800D8C5E10420FFF7C8FC7B
:103260003F20C000E74F3958091D3950385DFC3008
:1032700038550821FF221042D6D001242502002013
:103280007855FFF7DFFC7C5538610721CCE7022E2B
:1032900000D13FE77D208000385C002800D194E118
:1032A000FFF7D0FC0021B860F960042139750621D0
:1032B0000028B9D07D208400385D002800D184E149
:1032C000072800D88FE1012ECE4F11D101204002F6
:1032D0003858F96881420BD13F20C0003958384630
:1032E0001530082201F0E1FB7F20800001213954D4
:1032F0000820FFF77DFC3F20C000395808313950C5
:10330000385DF8303855FFF79DFC38610520387579
:1033100071E7002806D0012802D0022882D161E698
:10332000B868E0E00026BE60FE603E6138461530B9
:103330000822314601F0CFFB3D462835284602F0F1
:1033400089FC3C469434204602F084FC3D20C000B9
:10335000385C00283AD0012000023E54F52040009D
:10336000385C00282DD068460660466077208000D3
:103370003A1804232846314602F04CFC68460660A1
:103380004660172000013A18079220200690284630
:103390003146069B02F03EFC6846066046601920F6
:1033A00000013A1828463146069B02F033FC684675
:1033B00006604660602320463146079A02F02AFCE8
:1033C00004E017200001381802F044FC7D20109022
:1033D0008600B85D032800D805E13F20C500795973
:1033E000772080001290381804240A90224601F0B9
:1033F0005CFB2046FFF7FCFB7859001D0D957851CA
:10340000B85DFC30B8558049795C002917D0C0B24E
:10341000032800D8E7E07B4F0D9D79594920000132
:1034200038180424224601F040FB2046FFF7E0FB59
:103430007859001D7851B85DFC30B8551FE07348CD
:1034400000684021405C16280A9C18D80121814060
:103450006F48014213D0002120460A46FFF70AF8C0
:1034600000280CDA002120460A46FFF703F86949D4
:10347000884204DB109880006249085CC7E7634813
:1034800000684421415C890718D5007A022806D0DB
:10349000042813D15B481299405C01280ED8594C7E
:1034A000A05D032800D89EE00420FFF7A1FB0D9942
:1034B0006058001D6050A05DFC30A055FFF7C2FBB6
:1034C000504FB860252149011C9E022E524A08D156
:1034D000795C002905D05168002900D15060002195
:1034E00011600121397500281DD07D2039468700E3
:1034F000C85D002869D00124022E1BD0012E25466C
:1035000000D051E523286ED92420FFF771FB3F201E
:10351000C0003C490A46115824311150D05DDC30BE
:10352000D055012540E5032038757BE67C18002046
:103530008E040000012856D93F21CA001492314957
:1035400089580A78022A159400D19DE4012A00D1F5
:1035500022E4002A47D13D20C0002A49085C002807
:1035600041D12E4C7C44204602F0D8F98088FFF7E8
:10357000FEFA204602F0D2F98088C0B2042806D0B4
:10358000022804D001282ED11B9800282BD01D4CD6
:10359000149D6059401C6051E05D401EE055C0B272
:1035A000232820D92420FFF723FB605924306051C1
:1035B000E05DDC30E0550120A0770025E9E401461C
:1035C0000839032901D3FFF7C2FB02F055FC33A9E8
:1035D000884202D13D9802F05BFC33A8808D002820
:1035E0000DD13FB0F0BD012001F094FA33A80025C1
:1035F00085853D9802F04CFC02480575204601F097
:1036000089FAC0467C1800208E040000201D00208E
:10361000800140000300008000180020586700006F
:10362000F0B581B000900B09012213405B42194CA8
:103630001C40CD0815406D42174E2E404701774083
:1036400067404C09144064421448204078408E0979
:1036500016407642124F37404740C809104040425A
:10366000104A02407A4098272F40009DED0E4901F4
:103670002943C9B2794079251D404D40F3212140AD
:103680006940AE2333404B401E2101405940104653
:1036900001B0F0BDE2996DB7618EBCF2C4B35F3E7C
:1036A000A8E2AB2E70E4434FF0B581B015460E464C
:1036B00007463C78012000210090FFF7B1FF002C65
:1036C00012D07F1C1F22224042403C781046FFF758
:1036D000A7FF7F1C002CF5D106E0FFF7A1FF0246F3
:1036E000307850406D1E761C002DF6D10824FFF76F
:1036F00097FF641EFBD1009A504001B0F0BD00005E
:1037000070B514460A4601460D487844FFF7CCFFD1
:1037100023220546D54020239E1A0B46B3402B4357
:103720001646203E0D46F540002E00DA1D461F23AA
:103730002B402370531F641C002A1A46E9D170BD28
:103740004E560000F0B599B01D4603460020179074
:103750001690107014296FD11E990020002904D0F2
:10376000012969D10192082000E001920CAF387064
:10377000781C1422194601F098F9152100263246CA
:1037800030463B7800021843134608337F1C491E1D
:103790000224E443A2420EDB0D3213460A3B0446E8
:1037A000DC401F23234002ACA355521F761C092A7C
:1037B000F3DC521F00E01A460029E2D1002A019FE3
:1037C00007D00521891A88401F21014002A8815590
:1037D000761C02A816AA3146FFF792FF0020002EA1
:1037E000394611D002A801780023144A7A442029CE
:1037F00020D2581CAB421DD202ACE45C145DFC54D8
:10380000B0420346F3D3391800220D4B7B4416AC6B
:103810002478202C0ED28418641CAC420AD816AC32
:10382000A45C1C5D8C54521C082AF0D300238B54DA
:10383000801801E00020387019B0F0BD7855000004
:103840005855000070B594B014460A46014601A8C8
:10385000FCF7F3FB01460020002912D001A80278F2
:1038600000216B461960011D21250CAE2846334608
:1038700002F074FA202228463146234602F01AFA52
:10388000012014B070BDF0B59DB0144613AAFFF727
:10389000D9FF0025002811D021266F4613AA012543
:1038A000304639462B4602F015FA08373846FEF7FF
:1038B000A1FB20463946324601F0F7F828461DB0F4
:1038C000F0BD0000F0B58BB00746119C012F17D05A
:1038D000129E032F12D1212205AF084611463A4607
:1038E000FEF763FF0025684605601421384622462E
:1038F0003346FFF727FF002836D136E0022F25D1C7
:103900000393049405A81425457000240470861CB4
:103910002122084611463246FEF747FF022F0DD1FD
:103920001099002908D068460560002204983346A3
:1039300002F0BCF8002817D1002516E0684603996C
:1039400012C005A816219623049D09E025460024EF
:10395000684614C00648301883B221220846114632
:103960002A46FEF751FF2C54012528460BB0F0BD26
:10397000FFFF000070B59AB00E460446206900258E
:1039800000282AD0217BA068401CFF31C9B211AAAF
:1039900000252B46FFF777FF00281ED0F388B2885A
:1039A000A0680078716B33256E46B56004AD22C601
:1039B00011A9FFF787FF002500280ED0246904AD68
:1039C000284605F09BF8421C2846214604F04EFF8D
:1039D00001250021002800D00D4628461AB070BDF0
:1039E000F0B585B00A4606460020B07334460E3462
:1039F000317B082927D803AF0021019108253846DB
:103A000002922A4601F067F8327BA81A3818B1688A
:103A100001F04BF8029D2735284605F06FF8C6B235
:103A200020462946324601F040F82020A055A01932
:103A3000421C0298416C3846FEF7A2F93018201853
:103A400001994170012005B0F0BD000070B598B03B
:103A500004466D466021284604F0F2FEA16928461E
:103A60001C30402205F0ACF85C20295C00200029C5
:103A700017D1227B082A14D8267D082E11D86D462E
:103A8000A81A1430A16804F0E1FEA81B1C302169BB
:103A9000324604F0DBFE04486022294604F0D6FEDC
:103AA000012018B070BDC0460018002010B50C49A8
:103AB0000860FEF72FFA252040010A4901240C5422
:103AC00001F062F92102084804F0BAFE002003F078
:103AD0003FFE204603F03CFEFCF780FB10BDC046D5
:103AE000201D00207C180020241D002080B50648E1
:103AF0000078002801D104F089FC044979440020B1
:103B0000024604F031F880BD241D0020A4570000B7
:103B100080B582B001900648784401F0FFFE29305C
:103B200001A9012202F05AF8FFF7E0FF02B080BDC0
:103B3000A461000001460020022903D88800024940
:103B4000794408587047C046BC56000080B501282B
:103B500005D0002807D10020FFF7DAFF80BD012043
:103B6000FFF7D6FF80BD002003497944034A7A4419
:103B700004F046FC80BDC046130000002700000092
:103B800001460020012903D88800024979440858D9
:103B90007047C0467C56000080B5002802D0FFF771
:103BA000A5FF80BD0648784401F0B8FE2921435C9A
:103BB000002004497944044A7A4404F003FC80BD9F
:103BC000166100007DFFFFFF91FFFFFF80B5002021
:103BD00003497944034A7A4404F012FC80BDC0468C
:103BE000ABFFFFFFBFFFFFFF80B5FF2002F010F922
:103BF00080BD80B50120FCF77DFEFFF777FF80BD1B
:103C000080B50020FCF776FEFFF770FF80BD80B521
:103C10000120FCF76FFEFFF769FF80BD80B5002033
:103C2000FCF768FEFFF762FF80BD80B50020FCF75F
:103C300061FEFFF75BFF80BD80B50120FCF75AFEF7
:103C4000FFF754FF80BD80B500200146FDF7C8FC9A
:103C5000FFF74CFF80BD80B501200021FDF7C0FCBF
:103C6000FFF744FF80BD80B50020FCF743FEFFF75F
:103C70003DFF80BD80B50120FCF73CFEFFF736FF1D
:103C800080BD80B50178490601D001F0F3F880BD10
:103C9000B0B50546072028400024012814D002288A
:103CA00014D1002909D00B4802F0BEF868B20028F0
:103CB0000ADA01F089FF002406E0FF2152310548AD
:103CC000002202F0C9F804462046B0BD022000F0F0
:103CD00021FFC046E81F0020F0B581B0E04D2878F4
:103CE0000C2810DD0D286CD00E2800D1C7E0152857
:103CF0000FD1DC48807901280BD1A879000708D4BE
:103D0000102000F007FF052800D111E10C2800D198
:103D100081E2D54C0027676001202070204602F028
:103D200047F8042002F0C0F86060692800D05DE127
:103D300001F044F801F044F8BE25F84E7753042012
:103D400002F0B2F86060002800D164E2972800D148
:103D500061E2C0243059002800D15CE2705BAA27E0
:103D6000C421715C80B2884200D354E202F068F84A
:103D7000002800D04FE201F0E5FFB84204D102F084
:103D80000BF8B84200D046E23059715B4901401847
:103D9000CC217158002902D0884700280AD0012878
:103DA00003D13059715B490140180178490601D0AF
:103DB00001F060F8705B401C705331590029CFD17D
:103DC00029E2D54C0027676001202070204601F0D1
:103DD000EFFF042002F068F86060002800D11AE2CA
:103DE000972800D117E2692800D099E100F0E6FF9A
:103DF00000F0E6FFBE25C94E7753042002F054F8C8
:103E00006060002800D106E2972800D103E2C024B8
:103E10003059002800D1FEE1705BAA27C421715CF3
:103E200080B2884200D3F6E102F00AF8002800D000
:103E3000F1E101F087FFB84204D101F0ADFFB842D3
:103E400000D0E8E13059715B49014018CC2171582C
:103E5000002902D0884700280AD0012803D1305910
:103E6000715B490140180178490601D001F002F860
:103E7000705B401C705331590029CFD1CBE1EA4D22
:103E800000276F6001202870284601F091FF042070
:103E900002F00AF804466C60692C00D0E6E000F0FD
:103EA0008DFF00F08DFFBE24E04E3753042001F05B
:103EB000FBFF6860002800D1ADE1972800D1AAE19E
:103EC000C0257059002800D1A5E1305BAA27C42184
:103ED000715C80B2884200D39DE101F0B1FF0028FF
:103EE00000D098E101F02EFFB84204D101F054FF58
:103EF000B84200D08FE17059315B49014018CC21A4
:103F00007158002902D0884700280AD0012803D11F
:103F10007059315B490140180178490601D000F021
:103F2000A9FF305B401C305371590029CFD172E199
:103F3000BD4C0027676001202070204601F038FF4B
:103F4000042001F0B1FF6060002800D163E19728F0
:103F500000D160E1692800D018E100F02FFF00F0E7
:103F60002FFFBE25B14E7753042001F09DFF606006
:103F7000002800D14FE1972800D14CE1C0243059EE
:103F8000002800D147E1705BAA27C421715C80B290
:103F9000884200D33FE101F053FF002800D03AE10E
:103FA00001F0D0FEB84204D101F0F6FEB84200D0D4
:103FB00031E13059715B49014018CC217158002919
:103FC00002D0884700280AD0012803D13059715BFC
:103FD000490140180178490601D000F04BFF705BA1
:103FE000401C705331590029CFD114E1C0258F4CAA
:103FF0006059002800D106E1BE26A05BAA27C42193
:10400000615C80B2884200D3FDE001F019FF002816
:1040100000D0F8E001F096FEB84204D101F0BCFEF9
:10402000B84200D0EFE06059A15B49014018CC21B3
:104030006158002902D0884700280AD0012803D1FE
:104040006059A15B490140180178490601D000F090
:1040500011FFA05B401CA05361590029CFD1D2E0D1
:10406000241E00203C210020501F0020D8206F4D2E
:104070002958002911D0642264290B4600D3134625
:10408000CA1A2A50D421002A07D16958002904D01D
:10409000DC22AA582A5000208847002C00D1BAE020
:1040A000972C00D1B7E0C024285900282FD0BE2675
:1040B000A85BAA27C421695C80B2884227D201F09C
:1040C000BFFE002823D101F03DFEB84203D101F02C
:1040D00063FEB8421BD12859A95B49014018CC2185
:1040E0006958002902D0884700280AD0012803D146
:1040F0002859A95B490140180178490601D000F010
:10410000B9FEA85B401CA85329590029D2D1C4206C
:10411000285CBE21695A7AE0501F0020241D00202F
:10412000C025424C605900286DD0BE26A05BAA274E
:10413000C421615C80B2884265D201F081FE002812
:1041400061D101F0FFFDB84203D101F025FEB84274
:1041500059D16059A15B49014018CC21615800290F
:1041600002D0884700280AD0012803D16059A15BFA
:10417000490140180178490601D000F07BFEA05BA0
:10418000401CA05361590029D2D13CE0D020274CDB
:104190002058002803D0E978490800F0AFFEC02578
:1041A000605900282FD0BE26A05BAA27C421615CDD
:1041B00080B2884227D201F043FE002823D101F0CB
:1041C000C1FDB84203D101F0E7FDB8421BD16059EF
:1041D000A15B49014018CC216158002902D08847D1
:1041E00000280AD0012803D16059A15B4901401879
:1041F0000178490601D000F03DFEA05B401CA053B1
:1042000061590029D2D1C420205CBE21615A81426B
:1042100001D301F015FE01F013FE002801D100F0DA
:1042200081FC012001B0F0BD501F0020241D0020A2
:10423000F0B5A5B01E4614460F460546FEF704FA33
:10424000002807D0A74979440A22204604F0FEFA44
:1042500025B0F0BD0494A14800684024005D1128F9
:1042600044D128463946FEF74EFA03909B48006831
:10427000005D11283AD128463946FEF707FA002892
:1042800012D07B208000039C002C07D09449085C4E
:10429000002803D0083D2846FDF7C8FE002C0498EE
:1042A0007ED0924979447DE08C480068005D1128F9
:1042B0001CD128463946FEF721FA002816D07B206B
:1042C00080000399002907D08549085C002803D0A5
:1042D00028460838FDF7AAFE2C78FD2C7F4F64D1C4
:1042E0006878A97809020143C81C5FE02846FDF7F9
:1042F000B1FF002810D079480068406B0028A7D093
:1043000001F00CFB0146A8786A461060EB1C002205
:10431000049801F0CBFB9BE7704F3868C4882846AF
:10432000FDF712FF0321002802D038688488042199
:10433000200A04D005AA54701070022702E005A8D4
:104340000470012705A8C0196918142503902A468E
:1043500000F0ABFBFF20EA306149085C002810D078
:104360005E480068C28801200021944200D00846BF
:104370006946086014210398049A3346FFF7E2F96E
:1043800066E7012069460C6048602F43B9B2B3B2BA
:1043900005A8049C2246FEF737FA0021215457E76E
:1043A0005149794404F0A2FB52E7601C29181539E1
:1043B00020AE1422304604F049FA307800281CD090
:1043C000002020A94E4A7A440B781C09145D05ADE3
:1043D0002C542C180F251D40535D6370491C801C04
:1043E0002928F1D3282005AB002119544121454A41
:1043F0007A44049801F0BEF82AE703200121FD2C3D
:1044000000D00846295C4018295C41180398002810
:104410000CD0685C0818401C295C00290AD04C2983
:1044200009D1291849784018801C04E068184078A0
:10443000891C09E0401C291849784018801C295C17
:104440000818401C295C491C08182A5C411C4C2A8D
:1044500000D001466C186078A17809020143E07829
:10446000227912020243100408431F901FA820491A
:104470007944042204F070FB00280DD01FA81E49C7
:104480007944042204F068FB002800D0E0E61B49D0
:1044900079440B220498D9E63D68287919AE30702A
:1044A00021461131701C15273A4604F0CFF9A8882F
:1044B00001216A4603C205AD5023304639462A46DB
:1044C000FEF7A2F9002129544420205C69460860C7
:1044D0004121084A7A4404982B468BE7201D00208E
:1044E0007C1800206A530000BC4D0000A94E00005B
:1044F000F84C0000994C0000084D00002C510000C1
:10450000C74D0000AE4D0000F0B597B001AD50248E
:104510002846214604F094F94548464F391815A815
:104520000822FEF7B0F9444838187B2189002A4652
:104530002346FFF77DFE414E40223046294604F0D7
:104540003FFBA3208000385C142811D13C48381868
:1045500040497944042200F0C7FA002808D13948BC
:1045600038183D497944042200F0BEFA00282FD0C3
:10457000354C374626682736304604F0BFFA0246E7
:104580003D4641352846314600F08FFA26682736E9
:10459000304604F0B3FA2021295430463E4604F058
:1045A000ADFA2818401C83218900224A505015A8D2
:1045B000FDF7A0FC05462068273004F09FFA281874
:1045C000401C3018412100224254012017B0F0BD98
:1045D0001E48381801210022FDF74CFF03463046E3
:1045E00041301F2B06D0032B07D0012B0BD11B49C9
:1045F000794404E01A49794401E01A4979440622D1
:1046000004F024F904E01421174A7A4400F0B2FFC0
:1046100035464135284604F071FAC4B22819832181
:10462000890078500A483818FDF764FC2018C8E75C
:10463000820200007C1800208A020000001800207E
:104640008D02000091020000201D00209502000054
:10465000990200005D4C000063500000C44B000054
:10466000C44B0000C44B0000BC4B000070B58CB0C4
:1046700020206946486004AE0E600C4894300C4D12
:104680002A46413201240023214601F0C3FA68463C
:10469000082306601836436086604121054A7A4443
:1046A000284600F067FF20460CB070BD7C18002043
:1046B00000180020374B000010B5252040010D4C9C
:1046C000215C0020002900D010BDFFF71DFF8F20C6
:1046D000C000205808496158491C0B1A074855303A
:1046E0001421074A7A4400F045FFFCF7FDFC012045
:1046F00010BDC0467C1800207C040000001800207B
:10470000FD4A0000B0B582B025204001164D285C5E
:10471000A97F01430024002902D0204602B0B0BD89
:1047200012482A18294615316846FEF740FA002833
:10473000F3D00F48285C01240328EED100206877CD
:10474000F52040003D21C900695C002907D0295CA3
:10475000002904D101242C5400202875DDE70A200B
:1047600028750124D9E7C0467C1800208504000084
:104770008404000080B5FFF779FF0120FDF742FABD
:1047800080BD000010B5044604497A22FEF762F9A4
:1047900000212046FEF7C8F810BDC04600180020D2
:1047A00010B5074CC834204604F0A8F92021215444
:1047B0002018002141700120FCF79CF810BDC04674
:1047C000E81F002080B5034979440020024603F029
:1047D000CBF980BD544B000080B5034979440020DB
:1047E000024603F0C1F980BDB04B000080B5054919
:1047F0007A22FEF72FF9044979440020024603F09B
:10480000B3F980BD00180020384C000080B5054980
:104810007A22FEF71FF9044979440020024603F08A
:10482000A3F980BD00180020C44C000080B50349E6
:1048300079440020024603F097F980BD684D0000DE
:1048400010B58CB06C46204604F036F9A0850D49B1
:10485000084206D1684601F01BFB0A90FF2001F0D8
:10486000D7FA01F009FB6946884202D10A9801F0A3
:104870000FFB6846808D002801D10CB010BD00F000
:1048800049F9C046FFFF0000F0B59FB00446002C78
:104890002FD10DAC002648222046314600F01BF9EE
:1048A000032525720D9633480E9020460930344971
:1048B00079440526324603F0C9FF20461730314FB0
:1048C0007F443946324603F0C1FF2046273039463F
:1048D000324603F0BBFF26462D362B49794430463D
:1048E0002A4603F0B3FF4020112121541A960420D8
:1048F0001E9021480460214C01200102204603F053
:104900009FFF01AD284604F0D7F8A88585B2002D99
:104910000BD001A8002181850B9801F0B9FA0B9802
:1049200001F0B6FA102DE7D01FE001AD284601F0E6
:10493000AFFA0B9000F028FAFDF7ECFA002002F035
:1049400007FF012002F004FFFFF7D0F8FBF746FC59
:1049500001F092FAA84202D10B9801F099FA01A84D
:10496000808D0028C8D000F0D5F8FFF769FF1FB090
:10497000F0BDC0463A003200201D0020241D00205A
:104980003C490000314900001A490000F0B59FB0D1
:104990000446A068002831D10DAD002748222846E2
:1049A000394600F098F80320009028720D97374898
:1049B0000E90284609303749794405273A4603F0D6
:1049C00045FF28461730344E7E4431463A4603F0C0
:1049D0003DFF2846273031463A4603F037FF2E4642
:1049E0002D362E4979443046009A03F02FFF40209F
:1049F000112129541A9604201E90A5600027244EE8
:104A000001AD284604F058F8A885304207D101A826
:104A100001F03EFA0B90F8070FD001F0D5F901F044
:104A20002BFA01A9884202D10B9801F031FA01A8B2
:104A3000808D002828D10127E2E70A2001F0B8F88C
:104A40006068022817D004280BD00328E5D1E0685D
:104A500000218161A168E068FEF78CFFE168886150
:104A6000DBE7E0680021C162A168E068FEF7B8FFFB
:104A7000E168C862D1E7E068FEF7E8FF0028CCD023
:104A8000A068FFF713F8C8E700F044F83A003200D6
:104A9000FFFF0000344800002948000012480000D1
:104AA00080B5002001F0F4F980BDB0B5884208D986
:104AB000002A0FD0491E401E8B5C8354521EFBD12E
:104AC00008E0002A06D000239CB20D5D05555B1C52
:104AD000521EF9D1B0BD80B50B46002A03D0114655
:104AE0001A4603F0BBFE80BDB0B50023002A0FD0EC
:104AF000401E491E8C5C855C521EA54202D1002AD4
:104B0000F8D105E00020C0430123A54200D80346A8
:104B1000D8B2B0BD10B5044601F0AEF9214603F09D
:104B2000D7FF000080B501F08BF9002800D080BDD0
:104B30000648002141706022027002228270C1701A
:104B40000171052101F070F980BDC046241E0020CE
:104B5000B0B51A48C078032807DC01280DD0022818
:104B600028D1174802F073F9B0BD04281FD00828D7
:104B700020D1134802F069F9B0BD114C0121204643
:104B800002F05EF9204602F03DF90E4CA0790028B3
:104B900011D120460C30002504222946FFF79BFF47
:104BA0001034082220462946FFF795FFB0BD04487F
:104BB00002F049F9B0BD1020FFF7ACFF241E002021
:104BC000FC2100203C2100207F21014000200329FE
:104BD00003D8C8B201490818007B70473C21002067
:104BE00080B516480179042918D0022906D0012978
:104BF00022D1811D134802F00DF880BDC2787F21BB
:104C00001140032918D8C9B24A000D4B9A18002345
:104C10001382821D0B4802F082F880BDC2787F218A
:104C20001140032908D8C9B2054A521843791373B1
:104C3000821D044802F01CF880BDC046241E0020DE
:104C40003C210020FC21002070B515460E4604468C
:104C5000FF2D1BD80E485021017020210171457194
:104C6000E91C817080222243C270090A417006212A
:104C700001F0DAF83046294601F0D6F87F202040CE
:104C80004000044908187D210901018270BDC04619
:104C9000241E00203C21002080B50A4601468220C7
:104CA0001423FFF7D1FF80BD80B50A46014683205B
:104CB0001423FFF7C9FF80BD80B50C480178002997
:104CC00000D080BD062181710A21017008498B78CE
:104CD0004A7812021A43FF232A339A4200D31A4613
:104CE0004280C91C0348FFF7E0FE80BD3C21002044
:104CF000241E0020E81F0020B0B5204882784178AB
:104D00000902114300780F280ADC0E2810D00F2862
:104D100023D10020012927D1FFF71AFF0120B0BDC0
:104D200010281ED0162818D1FFF7C6FF0120B0BDED
:104D300013488168643181601621124A435A002B5E
:104D400008D06424642B1D4600D325465B1B4352C8
:104D500013420ED0891E0E29F0D10220FEF7BCFFAF
:104D6000B0BD0020032900D2B0BDFFF739FF0120FC
:104D7000B0BD002101701020FFF7CCFE241E0020E2
:104D80003C210020FFFF0000B0B50A2000F010FF1A
:104D9000084C0025182220462946FFF79CFE658016
:104DA0002570A571A56000F061FB034805604560B2
:104DB000B0BDC0463C2100205421002070470000B7
:104DC00002480021016041607047C0465421002024
:104DD000F0B589B00546084600F0A0FD0446002C59
:104DE00043D02069002840D0284600F097FD0146B6
:104DF00002AD1C2228460192FFF757FE2168E98088
:104E000062682A81A0681A4F65233B7089B292B20A
:104E10004A434243D1084E1C07231A4200D10E4692
:104E2000314600910426864070181D30B870000A83
:104E300078700321384600F0F7FF2846019900F00A
:104E4000F3FFA06838700121384600F0EDFFE068FC
:104E500000F064FDB1B200F0E7FF009885B2206970
:104E600000F05CFD294600F0DFFF09B0F0BDC04650
:104E7000241E002070B500F051FD044620787F26E6
:104E8000064000F0DDFF002830D1002E2ED0E06972
:104E900000281DD000F042FD0546052E02D1A07E5F
:104EA000002824D0284603F029FE06461248652132
:104EB000017031461C318170090A4170032100F0F4
:104EC000B3FF1C21204600F0AFFFB1B228460BE033
:104ED000094800214170652101701C25857003215E
:104EE00000F0A2FF2046294600F09EFF70BD20463C
:104EF0002946FFF76DFF70BD241E002070B50446E3
:104F0000002C28D01448066845688E4201D16D1CDB
:104F100045600E43002902D00660324605E00022BB
:104F2000026042600D4B5B1C1E438A4201D000218F
:104F30004160082D0CD30321284603F091FB012288
:104F400090073043002900D03046D107884300E065
:104F500030462946A04770BD54210020FFFFFF7F47
:104F6000F0B581B00F4E01243470B11CFF275037CB
:104F70007A1C204600F03EFF054675707A1B7719B3
:104F8000F91C022000F036FFB8702D187619F47065
:104F900000F024FF3071902070710020B071E81D86
:104FA00001B0F0BDE81F0020F0B58BB00A46064600
:104FB00007210E4207D03346D8B291B2FEF768FE01
:104FC00080B20BB0F0BD4B20840083200390AA4D2B
:104FD000A84F3346019109E06920A9490870039858
:104FE000801C487002220199079B2DE11021304658
:104FF0000840049292B20592002A069600D1B5E0CC
:10500000002800D0B2E007930091029007E0A1B21F
:105010000022384600F020FF012000F03FF900F0A8
:105020000FFF0028F3D17D200001A9680E18287811
:105030000928079A42DC072848D0092863D10021B3
:105040008E48079101F0F8FB10E0FFF76BFDA1B26D
:105050000022384600F000FFA868B04200D3FEE00E
:10506000FFF74AFE00F0ECFE0028F0D1834801F083
:1050700039F90028E9D0059AD01D4008A92800D3A5
:10508000F3E003980D307E4B9854981807994170BF
:10509000581D0499891C8AB205921946FFF705FD2F
:1050A000052277480799FFF716FD0598401D83B242
:1050B00072480399724A01F0D3FB3FE00A28049931
:1050C0000AD00B2822D17148784401E06E48784418
:1050D000059900F035FA31E02046253080B2059E72
:1050E000864200D9C1E053203870B970080A787040
:1050F0000321384600F098FE6148314600F094FEE6
:10510000002028701DE0002800D1ABE0D0B2059946
:10511000FEF7BEFD002811D0A4E0FFF703FDA1B209
:105120000022384600F098FEA868B04200D396E00E
:10513000FFF7E2FD00F084FE0028F0D12878002877
:10514000EBD10020A87128706880069EB10600D5BA
:1051500036E7FFF7E7FC30060298009906D508917C
:1051600008AA484B1846114601DF0298002804D1CE
:1051700070066ED40020A87128700020688000F0AE
:105180005FFE002801D1FFF7CDFCA1B20022384616
:10519000079200F061FE022806D8B9787A781202E8
:1051A0000A43D11C81423DD1FFF7A6FD68882978CA
:1051B0000029E4D00028E2D0354979440422304E59
:1051C0003046FFF791FC00282ED032497944042262
:1051D0003046FFF789FC00282BD02F497944042260
:1051E0003046FFF781FC002837D103982730C6B23C
:1051F00000F0D2FDB04200D0EEE60120204E30702B
:10520000B01C402100F0BAFD7070811C184A121DBC
:105210001140039B0D337354C11C11400023735480
:10522000021D10E00020A7E7FFF79AFE02460023C8
:1052300009E00020707003980D30307080200699CE
:10524000014302220B460199DEB20B4200D1CDE6AA
:10525000B2E6688806494018B2E66888B0E61020D1
:10526000FFF758FC0920FFF755FC0220FFF752FC1E
:10527000FBFF0000241E00203C2100205C210020B8
:10528000E81F0020BE9A0060C7FBFFFFDDFBFFFFA9
:105290001244000005440000FA43000070B50446C3
:1052A00000F0CEFD002801D1FFF73CFC4B2081002F
:1052B0000B4E002530462A4600F0CEFD30781528EA
:1052C00006D8012181400748014201D0002C05D1B8
:1052D000FFF712FD0125002800D10546284670BDC4
:1052E000241E00202070200010B5FFF71BFC084C86
:1052F0004B2081000022204600F0AEFD20780E28D1
:1053000001D0FFF7F9FC00F09BFD0028F0D110BDA3
:10531000241E0020F0B581B000920F4604464B4E8B
:10532000B74210D0494D0021402628463246FFF7AB
:10533000D2FB00984028024600D332462846394620
:10534000FFF7B3FB414EB07801280ADC002828D0D3
:10535000012869D1F01C042100F04EFC40213046A8
:105360002BE0022827D005285ED13079F178090298
:105370000143374C2068002781425BD12068002818
:105380001ED03448009D2918334A13686D1FADB2F2
:10539000AB4200D21168051D0D4030480068711DF8
:1053A00034E0F01C002704223946FFF794FB40212B
:1053B0003046A0473EE025484021A047002739E07D
:1053C000B0797179090201432548016001684908F3
:1053D000A8292FD80168204801607178327812021C
:1053E0000A4320490A601D491F4A0A60009D691F3F
:1053F0008AB218495218D21C0368ED1FADB2AB42F5
:1054000000D202680D1D1540F11D17482A46FFF70E
:105410004CFB11480168491B01601048016849199B
:1054200001602068401C20600B48016801200227B1
:10543000002907D10648002101600848016006489C
:1054400001603846C0B201B0F0BDC046A0210020C6
:10545000E0210020FBFF0000E8210020EC210020DB
:10546000E4210020F0210020E81F00200348002153
:10547000016003480160034801607047E02100209B
:10548000EC210020E8210020F0B581B0264F3A68D9
:10549000264C2168002921D0002A1FD00090264DDB
:1054A000002140222846FFF716FB0520A87023485C
:1054B0000168090A2970006868701D490868000AB7
:1054C000E870086828710968206800290ED03B261A
:1054D0003B2800D826683968681D12E0144800216E
:1054E000016039601348017021601BE039263928BA
:1054F00000D826682068000A68712068A871396899
:10550000E81D3246FFF7D1FA009A09492068801B4E
:1055100020603868801938600868401C08600648B8
:105520004021904701B0F0BDEC210020E82100208F
:10553000E02100203C210020A0210020F0210020BB
:1055400080B500290BD0064A00231360054A11607C
:10555000054A064B1360064A1160FFF795FF80BDB0
:10556000E0210020E8210020EC210020E81F00209D
:10557000E421002081B0F0B58EB015460C460690AF
:105580001393022C00D2BAE10698002800D1B6E1AC
:10559000002D00D1B3E10698214603F051F913A87C
:1055A00009902978002900D1A9E1671E002602E0B0
:1055B000A8194178761CC8B2002801D02528F7D157
:1055C000BE4200D33E46069C20462946324603F0A2
:1055D00041F9BF1BA4190694002F00D18FE1A95DEA
:1055E000AD19252900D087E16B1C002020210A225B
:1055F00008920490059007900446084604E0099933
:105600000A1D0992096804911D46224629786D1CDD
:1056100000242D29F9D0472918DC2F2926DD0B4637
:10562000303B0A2B00D366E13029044600D10C46FA
:10563000079B002B00D004460A23079843435818C1
:10564000303807902B4620461446DDE7672904DDF5
:10565000722921DD73293AD122E062293CDC4829F4
:105660004BD1014601200590084617E0252958D066
:105670002A2926D02E2900D03DE129782A2900D0D8
:105680003AE16A786B1C01242A21482AB7D0682A9B
:10569000B5D0732AB3D02FE1682936D110210891F3
:1056A00009990B1D0993032313400968012B00D1AD
:1056B000BBE0022B00D1BAE0032B2B461446A3D04B
:1056C000C6E02978022473292B4698D014E1752965
:1056D00029D078291CD00EE1632900D19BE06429F0
:1056E00000D008E1029003970998011D0991006814
:1056F000C11742184A40C00F1CE0582900D0FAE0F8
:10570000014601200590084602E0702900D0F2E031
:10571000029003970998011D099102680020102743
:1057200009E025207BE0029003970998011D09916B
:10573000026800200A27012497420892049012D898
:10574000012638460446394602F004FFB04209D12A
:10575000384660430799491E0791089988422646B2
:10576000F0D900E034460798411E049B002B00D17D
:1057700007990026F243002B029800D11A460192A5
:10578000C2B2302A06D1002B04D00AA82D23037000
:1057900000230126881E0D280BD80AA83043491E75
:1057A000049303F05BF8049B079880190199401853
:1057B000461E002B03D00AA82D218155761C059882
:1057C000002C1AD0002802D05348784401E05148F8
:1057D000784407900898214602F0BCFE394602F052
:1057E0003FFF0798405C0AA988552046394602F0D9
:1057F000B1FE761CA7420446ECD9039FBE4200D3FB
:105800003E460AA9069C2046324603F023F8BF1BF9
:10581000A41906946DE00998011D09910068069984
:1058200008707F1E491C069163E0049E16E008780C
:10583000002860D10499B94200D339462022069C41
:105840002046049103F00AF804983F1A24183DE01A
:1058500000228B5C521C002BFBD1561E089810288E
:105860002AD1002E47D000243B46085D0F2202407B
:105870000009022B1F4642D3059B002B05D0012BAC
:105880000ED10794224B7B4402E007941F4B7B44CC
:10589000D2B29A5C069C6270C0B2185C2070079C01
:1058A0003846871E02282AD0641C0698801C069061
:1058B000B4423B46D9D30DE0BE4200D33E46069CDF
:1058C0002046324602F0C6FFBF1BA4190694002FE3
:1058D000079C14D0B4420ED9A41BBC4200D33C4652
:1058E0002022069E3046214602F0B8FF3F1B3619A3
:1058F0000696002F03D02978002900D056E6002014
:105900000EB0F0BC02BC01B00847C0464D3D0000DF
:10591000653D00000B3E0000213E000080B50449BB
:10592000884204D30349884201D200F005F880BDC3
:105930000000D0C0009DD0C07A460249C91C891A17
:10594000401A70473959D0C010B54101104A0A4079
:10595000430E01210B405B420E4C1C405440820E12
:105960000A4052420C4B13406340C20E0A4052425E
:105970000A4C14405C40020F0A405242084B13404C
:105980006340400F0840414206480840584010BD5F
:10599000E0FFFF3FB2576A3B6D8E5026FA19A11EF9
:1059A000DD33423DB362142AF0B587B0059304920B
:1059B000064602910D7800270120002D03971BD089
:1059C0000298401C0690012000272C460197214692
:1059D0004139E2B2202A5FD3C9B21A295CD3FFF75A
:1059E000B3FF01460698C25DE020044060094840CC
:1059F0007F1C002A1446EAD10599C919C91D5A29E4
:105A000003994CD8FFF7A0FF002D0ED002994C1C33
:105A1000FFF79AFF014635701F2028404840611C5F
:105A2000761C2578002D0C46F2D131213170711C85
:105A300006910599002914D000241A4E7E4403943F
:105A400004990F5D1F2F29D8F55DFFF77DFF06999B
:105A50000D557840641C05998C42F1D306990919BB
:105A600006910624FFF770FF641EFBD10121484018
:105A700019220D497944069B0446D4401F25254030
:105A80004C5D1C70541F5B1C002A2246F4D1002080
:105A900006998871012102E0019900E00399084606
:105AA00007B0F0BD28330000F0320000F0B595B02B
:105AB0000C46054600200390102A1EDC1A99002A85
:105AC00003D08E1E262E04D917E0142901D02029D8
:105AD00013D104AE327001206A46082782C21060DA
