:02000004C0D06A
:1000000010B5044662B605F05BF8002C0DD0012057
:1000100000022168814205D1606801280AD1A068E8
:10002000002803D104F01CFF02E0002004F03CFF94
:10003000002010BD204604F0B9FFF0B581B00446A1
:100040000020002A1CD00B780A2B19D89D0001260D
:100050003543954214D82370002B10D00096271DED
:100060004D1C002601210022284602F029FA01C772
:100070002D1D761C20788642F4D3009800E030468F
:1000800001B0F0BDF0B58FB0012040024A4C00270E
:1000900001902754FF2040000290275203AE3046C3
:1000A00009F0B6F90546B585A8B2002812D0102887
:1000B00077D003A887850D9806F026FB02200299C9
:1000C00060523F486F21017045700121204602F0C7
:1000D0008BFD58E003A806F017FB0D90208802F076
:1000E0008AFD2078002802D03448029D2FE0344A4F
:1000F000507813780021354D7D44354E7E446F5C39
:10010000BB4202D1775CB8420AD0491C0D29F6D314
:100110006D200002CBB20D210D2B029D01D116E006
:10012000029D2C487844405C002809D07F20830041
:10013000672000021279002A09D0E25A052A06D067
:10014000880025497944085806F024F880471D495D
:1001500060529321C900615C00290CD0019BE15CD5
:10016000EF220A40E25409210903884203D05D21AD
:10017000154A01235354615B020A114B5A545A1811
:100180005070881C605306F0B3FA03A9884202D16C
:100190000D9806F0B9FA03A8808D002809D10FB098
:1001A000F0BD03A887850D9806F0AEFA102004F084
:1001B000C1FF04F0BFFFC0467C180020AA6F0000FA
:1001C000E01F00200202000000180020E995000056
:1001D000F2950000D7950000C4950000F0B583B0FB
:1001E00019480026FF243146224604F084FF0120EE
:1001F00001904002154D02902E5464002E535D264E
:100200001348815D0298285C9322D700EA5D002A9A
:1002100006D0002904D020210843019949026854DE
:10022000295B05F0FDFA7F2189006852E85D00280E
:1002300006D00748805D002802D0002006F024FA8E
:10024000FFF720FFDBE7C046E01F00207C180020FE
:1002500000180020F0B581B0304C7C44204605F0F9
:1002600099FF808802F0C7FC204605F093FF808844
:10027000C0B2264CFF2845D02948784405F08AFFB3
:100280008088FF2108423DD0214804680546A088A7
:10029000204F7870000A3870E088F870000AB87053
:1002A000207A387109342046009109F017F9024686
:1002B0007A71B81D214604F008FF2C6820460930E9
:1002C00009F00CF90546AE1D2734204609F006F961
:1002D000F1B27854EE1DF0B23D18204609F0FEF858
:1002E00002462846214604F0F0FE094800682730FF
:1002F00009F0F4F88019C0B200994900064A50523A
:1003000009200403204601B0F0BDC0468569000005
:10031000181D0020E01F00207C180020A2A800006B
:1003200082A8000010B51148784405F033FF8079A9
:10033000FF2149000B4A082353520B4930224A70CF
:1003400001228A700523CB7003230B714A710024AC
:100350008C71CB7110401B2242400A7009200003AF
:1003600010BDC0467C180020E01F0020D4A700006C
:1003700070B5194C7C44204605F00CFF808802F0D3
:100380003AFC204605F006FF8088C0B20F4CFF28DB
:1003900019D01248784405F0FDFE8088FF252842D8
:1003A00011D06B2004020A4EB07800280BD10C4803
:1003B000784405F0EFFE80886900064A0123535215
:1003C000307009200403204670BDC04685690000D6
:1003D000E01F00207C18002088A7000068A700000C
:1003E0004CA7000010B50720C0430A49097900292D
:1003F00000D00846C4B267200002F82C09D805488E
:10040000214606F035F8FF20400003490C52092030
:10041000000310BDE01F00207C180020F0B585B05F
:10042000524E3779554D7D44284605F0B3FE8088FD
:1004300002F0E1FB284605F0ADFE8088C0B24C4CCE
:10044000042800D98CE0012529468140162001426C
:1004500000D185E00497B1786B2007020020802945
:100460001CD000297FD1701D00262946324602F09B
:1004700027F83F21C9003F4A50507D208000165484
:10048000280215543D20C00016543B4816547B20CA
:10049000800016541675D677344E0420F178002962
:1004A00061D10499091AFF252A46EE32314FB95419
:1004B0003018401D1F2109017850012002F060FC16
:1004C00009200203387D08284CD1049535460026C2
:1004D0003E757D2080003946385CFB340028274675
:1004E00041D0202468462F463037076044600846D4
:1004F0002830012103923246334605F0C7FF082118
:100500000291284605F0B4FF322028706E702A1D33
:10051000384621462346264605F0E4FF3F20C0002A
:10052000144C21582846243002F07BF92846283004
:1005300021461531029A04F0C8FD1148784405F0AF
:1005400029FE69460F604E600830302331462A4646
:1005500005F0D8FF0498400038212152039F02E0A3
:10056000274600E01746B8B205B0F0BDE01F0020F6
:10057000856900007C18002086040000D6A60000D3
:10058000C0A50000F0B59FB014460E4602AD694606
:100590000D60012115AF1A463B4602F0C2F908353D
:1005A0004127002E03D1284601F090FD212741224A
:1005B0002046294604F089FD38461FB0F0BD0000F2
:1005C000F0B59DB0C44E7E44304605F0E3FD85791C
:1005D000BC4CA0780D90304605F0DCFD2927C05DAD
:1005E000012635400B95002500282A460AD0A07820
:1005F00002282A4606D1B448817901220020072921
:1006000000D002460C92B548784405F0C3FDC05DA9
:100610000D9B012B29460DD00C990029294609D1A3
:100620000028294606D0A84881790020072900D053
:10063000064631460A910127012B384600D128464B
:100640009321C900A14A515CA14EFE36E2780029EF
:1006500003D0002801D1354630E16B200502A07897
:10066000022800D92AE1022A11D3032A08D0022A3B
:1006700000D023E197480068406B002807D11DE1B6
:10068000944800684021405C022800D016E16720B1
:1006900005022079002800D110E1012B099202D136
:1006A000601D04F073FB08900C98002809D0607955
:1006B0008000801DC0B220180121002201F000FF3F
:1006C0001C90874D7D44284605F064FD808802F02B
:1006D00092FA284605F05EFD7D49CD1C8088C0B2A7
:1006E000042800D9EAE00121079181401620014247
:1006F00000D1E3E005F08CFFAA28754D00D0DDE0C5
:10070000651D2846394602F0A5F906904120207063
:10071000671C14AB28460B993A46FFF733FF099B39
:100720000546012B14D0032B10D1E9B20EAD38468B
:100730002A4602F07EF800206946086022464332CD
:1007400014213223284603F043F843E0022B34D12E
:100750000EA8142104914170002105910170E9B2A5
:10076000821C38461F46039202F063F8594800681D
:10077000022F17D1049F406B00282CD005F00AFDF2
:100780000146684607602746433700223846039BE8
:1007900005F0C8FD0546E8B201281CD1384608F02E
:1007A0009DFE17E0C08869460860059848602246AB
:1007B00043320EA8162196230AE046480068808836
:1007C00000216A4603C2E9B22246433296233846E4
:1007D00002F05EF80546422025540B98002801D10E
:1007E00004206070EFB2E5192846433014A9202296
:1007F00004F06BFCFF20400039466331334B195243
:100800000D98012830D0069800282DD00C9800288B
:1008100047D02425585D002808D0194620311CA84F
:10082000042204F071FC294B00283AD000265E55C2
:10083000184620301CA904221F4604F046FC1C9BCD
:100840002046C8300925274A7A44294605F0CEFAC1
:10085000D020265407984002395C10220A433A54AB
:1008600004F0C0FA2D0329E00D95322F354625D826
:100870002046C830433421463A461C4604F025FC45
:10088000C82000210D9A115407984002215C1022C3
:100890000A4322540898C0B204F086FA09200503DE
:1008A0000CE0092005030A98002807D007984002A9
:1008B000195C10220A431A5404F09EFAA8B21DB023
:1008C000F0BDC046E01F0020342100207C1800202D
:1008D00082690000181D002036A50000F4A4000065
:1008E00038A40000E08D0000B0B569230021852206
:1008F000002808D0FF2040000C49085A0C49411834
:100900000B32002001E010461A468BB2094CE2542B
:10091000FF2252008B1C054DAB52491C89B260541A
:1009200099B2202004F07CFFB0BDC0467C180020A6
:10093000FEFF0000E01F0020B0B50848084D01216F
:100940002954084800242C52074828180822214618
:1009500004F0D1FB05482C54B0BDC0467C04000017
:100960007C1800206E0400007D0400008504000057
:10097000F0B595B08F20C500BB4F00267E51BB4C13
:10098000385D022822D0012800D069E1C14D7E5196
:10099000B748395A002900D14AE1B848385C0122E9
:1009A000FD281FD27851022139554721090178507D
:1009B000B24838188118AE4C15463A5B521B04F009
:1009C00084FB385B401B3853012631E1A84C395B6E
:1009D000092900D22CE1A74BF85CFD22FC2812D893
:1009E00009221FE0FE282FD0FD2800D038E103297E
:1009F00000D21DE1A848395C9F208000385C0002CD
:100A000008430322CEE7904200D029E10B2900D20F
:100A10000EE19948381800210A4601F02DFD954B4A
:100A2000395B0B221018884200D901E103950B9025
:100A30000020012691493A18525C401C002A0ED130
:100A400000240728F7D918E0052900D2F0E09248E1
:100A5000381800210A4601F033FD0522A2E7791873
:100A600013AC0822204601F052FF85483818014691
:100A7000224602F0C9F87F4B3446FD18284601F0A3
:100A800009FE0790284601F019FC05900A952846B2
:100A900001F04CFC02907B4800684023C05C0022BF
:100AA0001128114609920492089230D17B208100CE
:100AB00006910A9D2846019301F00EFE08902846F3
:100AC000069901F041FE09902846069901F041FE81
:100AD000019B01466B480068C05C112817D1099D35
:100AE00006910A9801F09CFB05990843002802D062
:100AF0000699019B0BE0284608990843002C01D178
:100B00000799084300280699019B00D1A8E05D4899
:100B10000068C05C11280B9A06911DD01D4601206B
:100B20000021079A002A00D0084604430A9801F0E1
:100B300077FB05990843012C069B02D1002800D1C0
:100B40008EE050480068415D0124002011290B9A75
:100B500000D1044604941946089D09980543002DC8
:100B60000A981CD000291AD00B460499002919466E
:100B700015D100210C9112917B218C000CAA12AB93
:100B8000214601F021FE395D1298002901D100288B
:100B900066D0002901D0002862D10B9A06990798E7
:100BA00000283DD13848385C002839D00B46059CD8
:100BB0000299214304250320002900D00546234340
:100BC000002B0BD131483918E8B23818294A80185F
:100BD000142204F099FA0B9A002833D03D20C0006B
:100BE000002C1DD0385C00281AD00CAC14220A92BC
:100BF00062700020207025483918A01C04F065FAA6
:100C000016212046224601F014FEE8B23818194990
:100C1000401821460A9A04F077FA00280BD00B9A64
:100C200003983A5001204002395C10220A433A549A
:100C3000304615B0F0BD134800684421405C4007C1
:100C40000ED50B9A1248395C002909D1012139547B
:100C5000472000013958491E3950002AE8D0A7E63C
:100C6000012004F067FAC0467C1800207C040000D4
:100C70006E04000082020000830200007A0200007D
:100C80007D040000181D00207602000062020000B2
:100C900085040000740400007B02000070B59EB063
:100CA0000C4601AD69460D600126002214AB3146A9
:100CB00001F037FE0948784405F06CFA083581796F
:100CC0004120314203D1284601F000FA212081B2AF
:100CD0002846224601F0ADFD1EB070BD469E0000C4
:100CE000F0B59FB0E04A94786B210E021179002C88
:100CF00004D0FF2C02D0802C00D09CE10A90DB4B6A
:100D0000DB4F3D20C0000990385C0025002806918B
:100D100012D0F85C00280FD150790125FD21FD2863
:100D20000AD34A1CD5B205220023A84200D01A4695
:100D30000325884200D015460BAE304608F068FB0C
:100D4000B085CC49084208D00BA8002181851598B0
:100D500005F0DAFC6F20060249E10BA805F0D4FC8F
:100D60001590387DC44E092800D03DE10221C843CA
:100D7000801CC0B284423FD1787F002800D11FE19F
:100D80004F20C400385D002800D12DE100255822F5
:100D90000A98294604F0AFF9B3494879002800D1F0
:100DA0000EE10A9E2336491D2922304604F08DF9B2
:100DB000B74839183046FFF771FF3D55B248012555
:100DC0003D5434463046AC4E294601F0F1FD002832
:100DD00000D1F5E09320C000385C002800D003E18A
:100DE000A848042139546802395C10220A433A5455
:100DF000204604F00BF8E3E00791F520400008904E
:100E0000385C002813D1E8B206990B1A3446FB3639
:100E1000002B00DAE8E000216A4611605160924A36
:100E20001018421D3846283005F030FB2646787FE2
:100E300000282FD0914C385B069D4119FB367D224E
:100E40009200914200D9CFE038188D494018864968
:100E5000491D2A4604F039F9385B40193853FFF729
:100E600087FD002804D001204002385CC006F6D57A
:100E700047200001385800287F4E0BD10120410245
:100E8000795C1022114205D17E4B0324FC5411439E
:100E9000400239540998385C734A9178002925D06A
:100EA00000280A9C11D120206946486017A80860D4
:100EB000384694306C494A1D0121069B05F0E6FA3C
:100EC00069490998385C002853D00898385C002894
:100ED00023D020206946486017A808601720000129
:100EE0003A1838469430012160233FE000280BD1A6
:100EF0000021684601604160384694305A4A521DCC
:100F0000069B05F0C3FA584A012058497854FF213E
:100F1000490078520020107052E020220392684667
:100F20001B2109017C18046042603D4628350121DF
:100F30000491002305932846224605F0A7FA284687
:100F400005F0C4FA684622460260039B43602846C7
:100F50000A9C04991D4605F099FA6846456017A950
:100F6000016038469430404A0499059B05F08EFA9A
:100F70003D49787F002829D04348385C002804D1B7
:100F800000215822204604F0B6F840480068017954
:100F900061708079A07020464C30082105F068FA15
:100FA000FF2040000799395200202F4908704870EF
:100FB000787F002811D0E01C17A9202204F085F8C2
:100FC000159805F0A1FB0920060334E0FF2040003E
:100FD000079A3A52002048700870E11C17A8202296
:100FE00001F010FC002829D0159805F08DFBFF209A
:100FF0004400002038533875204D7A5B204839185A
:10100000194804F062F8785B385305F071FB0BA9BE
:10101000884202D1159805F077FB1A48012139540E
:10102000164800243C521B4838180822214604F078
:1010300062F819483C54B0B21FB0F0BD0898385C53
:101040007B218900795C014309983A5C0A20002AD7
:1010500005D0090603D1012008997854002038757D
:1010600009200603D1E7C046E01F002079020000F6
:101070007C180020FFFF0000856900006E0400005E
:101080007A0200007C04000076020000181D002097
:10109000620200007D0400008504000070B541205C
:1010A000C000134D2818FFF71BFE0446012046021E
:1010B000A85DC0061AD50F48295C042904D003296D
:1010C00005D103F031FE04E0012129540EE003F0C4
:1010D000FFFD00280AD1FF20400000212952A85D11
:1010E000EF220240AA552975D520C401204670BDC3
:1010F0007C1800207C040000F0B581B009210D03AC
:10110000002800954BD0472007014B4EF0594B4B20
:10111000F15C022901D1401EF051002828462AD056
:10112000474830188F21CC0032598118454D735BE8
:101130009A1A03F0CAFF3059715B081A70530124E0
:101140006502705DEF2101407155FFF711FC002829
:1011500002D0705DC006F8D5705DC006009D2846BF
:10116000364B08D503F0B4FD002862D1002030755D
:101170003548FB30314BF15C022917D1F259002A76
:1011800014D103201F46F05403F0CEFD01240028A3
:101190004FD10022F2552C48FB3011461DE0264865
:1011A000002202752549415C27481CE0032915D11E
:1011B00000217177F5214B00F15C7B229200B45C39
:1011C0000C433D21C900755C03210A22002D04D087
:1011D000240602D10122F25400223275FF2252006D
:1011E000B25A1A4BD21893B2040A194DEC54FF2686
:1011F0007400931C104F3B53521C92B2A854009A97
:10120000904201D103290FD10C48012139540D48D6
:1012100000243C520F4838180822214603F06BFF87
:101220000D483C5470003B5A99B2202004F0F8FA63
:101230000024204601B0F0BD7C1800207C04000092
:101240007A0200006E04000085690000FEFF0000C5
:10125000E01F00207D04000085040000F0B585B08B
:10126000704D2F79784C7C44204604F093FF8088A1
:1012700001F0C1FC204604F08DFF6B4EF21C80880B
:10128000C0B2042800D9C9E004970127394681403B
:101290001620014200D1C1E0A878644A7632802845
:1012A00008D0002800D0B9E03902614B03245C5417
:1012B00000211975EC788023052C55D8012C53D0CA
:1012C00000286DD1581CC1B200208C4200D00746C6
:1012D000A01E02905648407F002803930CD1184668
:1012E0002A30C0B20090019105F092F90199009A5C
:1012F0009042324600D091E07B2080004C4A134659
:101300001F54012000228C4201461F4600D0114686
:10131000029BDBB2042B034600D3134619433D2343
:10132000DB00F9547877FA83424909684023CB5CA3
:1013300041497A540326744002265E402643002E1B
:1013400000D01046FF263246EA32B8541A2B12D883
:1013500001209840394A10420DD0E878052808D07D
:10136000042808D1012005E0802C19D0812CA7D0B9
:1013700054E002207854324800243C54F5204000C8
:101380003C54304838181822214603F0B4FEEC369D
:10139000BC554F20C00001213954EC78A878039B3C
:1013A000FF273946EC31224E3D22D2009C4229D003
:1013B000B25C002A26D0725C002A23D1984221D147
:1013C00028790A38C0B231281CD86879022819D87F
:1013D000012808D1A879382805D1E879322802D126
:1013E000287A00280ED09320C000305C00280F4AD5
:1013F00014D1012070544002315C10220A4332544F
:1014000003F024FDEE370498F0551F200001691DFC
:101410003150022001F0B4FC0920020390B205B063
:10142000F0BDC046E01F0020826900008A6A00000B
:101430007C180020181D0020860400008001400454
:10144000870400006202000096980000F0B593B097
:101450006F4C7C44204604F09DFE808801F0CBFB5D
:10146000204604F097FE8088C0B2604F04283ED822
:101470000124214681401620014238D05C4E6B2069
:101480000002B178002902D0F178002930D167201C
:101490000002317907292BD305AD284607F0B8FFA4
:1014A000A8855449084208D005A8002181850F98D5
:1014B00005F02AF96F2007020EE005A805F024F9CF
:1014C0000F904D49087D0A2803D1FB3770790B280E
:1014D00011D30F9805F018F947480021017505F060
:1014E00007F905A9884202D10F9805F00DF9384691
:1014F00080B213B0F0BD41480818751D2922049030
:10150000294603F0E2FD707980002043295C281809
:101510004518681C00222146039200F0D1FF02907A
:101520006E79354D36482E543A48784404F032FEF0
:101530008079042108420DD1324800684021415C85
:10154000022902D0816B00294BD0412EC1D1806B82
:10155000000206432C48285C00281CD111AF3846F5
:10156000029901F05EF9381D314601F05AF97B20ED
:101570008000285C002804D011A8082100F02EFE6D
:1015800009E068460399016041602846283011AAA5
:10159000082304F07BFF0021049E304601F05AFA34
:1015A000002804D00120014600F036F807E0600270
:1015B000295C10220A432A54304603F037FC93205A
:1015C000C000285C09210F03002888D00F488168DB
:1015D000491C81604268914281DB5D2101224254B5
:1015E0007DE7012E2646B5D073E7C0468569000029
:1015F000E01F0020FFFF00007C1800202B020000ED
:101600005E020000181D0020860400000018002063
:10161000AA960000D2950000F0B5B1B0002818D00D
:1016200003910021684601603648374C201827ABEB
:101630000A4601F076F97B208000205C002810D05B
:101640002020694648601FAA0A60412080002018B7
:101650000EE0FF2043002C4A0020D052692285264C
:101660003CE02020694648601FAA0A6020462830D6
:101670000121002304F00AFF04AF384604F026FFDE
:101680002025684645601FAE066001243846214685
:1016900032462B4604F0FAFE1E48784404F07AFDE8
:1016A0008079400820406946FF273A4652320A6056
:1016B000486027A8154C31462A46234601F068FAAF
:1016C00079006278D01C104B58521149595CA2180D
:1016D00091707A21CA430B320026039900290ED15A
:1016E00083B20A4CE254FF225200831C064DAB52D7
:1016F000401C80B2265499B2202004F091F831B0F9
:10170000F0BDC0462B0200007C180020E01F002026
:101710005E02000062940000F0B581B0672006020E
:10172000284D287901282AD1284C7C44204604F0F1
:1017300031FD808801F05FFA204604F02BFD80889F
:10174000C0B2214FFF2819D02148784404F022FD6F
:101750008088FF21084211D0FE1E04F059FFAA28FC
:101760000DD16C791B48784404F014FD092109035C
:101770008088C0B2844205D10E4600E03E46B0B239
:1017800001B0F0BD3E46FB36082CF8D80091012090
:10179000A0408B2149000842F1D00F4D7D442846DE
:1017A00004F0F8FC408801F026FA284604F0F2FC28
:1017B000408820423E46E2D0204600F08FFC009E4A
:1017C000DDE7C046E01F002085690000D2930000DD
:1017D000B293000096930000609300006D20000219
:1017E00070470000F0B58BB009AD002106262846F1
:1017F000324603F080FC0A200A9901432971012432
:101800002846214601F0F0F902202843214601F044
:10181000EBF9124F7F44384604F0BCFC801C29468B
:10182000324604F017FE6D4620262846314604F065
:101830001FFE384604F0AEFC08302946324604F05C
:1018400009FE08AD2C70384604F0A4FC401C294663
:10185000224604F0FFFD0BB0F0BDC046E892000048
:10186000F0B581B0017800250091002918D0441C02
:1018700000270125002620462946324600F020FE9A
:1018800080B2094988420BD00849884207D0241DFC
:101890007F1CF8B2009988423546EAD300E0022561
:1018A000E8B201B0F0BDC0461DB100001EB100009D
:1018B000F0B59BB0B54A9778802038436B210E0273
:1018C000802800D034E110790C90D578002F04D115
:1018D000022D02D3802D00D02AE1D520C401264656
:1018E000FE3EAA200B9004F093FEAA2800D01FE130
:1018F0000FAE304607F08CFDB085A549084208D0F0
:101900000FA800218185199804F0FEFE6F200402C3
:10191000FDE00FA804F0F8FE1990002F16D09721D3
:1019200089009C4D695A13225201002900D1ECE034
:10193000AA5A8A4200D0E8E097482818FFF790FF9B
:10194000002864D000F032F90446E8E0012D2AD8DE
:101950004120C0008F4F381800265822314603F02E
:10196000CAFB8A4B58790B2800D3CDE08B4800681E
:1019700001798B4AB95480798A4978548648381855
:10198000591D292203F0A1FB8048024650798100AD
:101990000120084312185179002D49D0927909028B
:1019A0001143072245E097218F007A4DE95B13220E
:1019B0005601AA5B0C9BD2188A4200D9A5E00024EC
:1019C0006846046044602846283070494A1D0392E6
:1019D000214604971F4604F059FD684604604460A0
:1019E000284694302146039A3B4604F04FFD674A4F
:1019F000A85BC019A85314700499695A80B2814237
:101A000011D1FF204000022129525470BBE0012077
:101A10004002295C10220A432A54199804F074FEEB
:101A20000920060384E0FF20400001212952AAE09A
:101A3000062297239B00F9528018002964D0089051
:101A40001320400135460A903D523E46283738461D
:101A5000069304F03BFD30469430079004F036FDC9
:101A60004E4E3068093007F039FD11300EAA107063
:101A7000684605604560012338462946099304F00D
:101A800005FD36680936304607F028FD03466846EE
:101A90000560456038462946324604F0F7FC684642
:101AA00005604560404A7A4411233E46384629463F
:101AB00004F0ECFC06993748405AFC280F4603D83E
:101AC0000DA90870012307E00DA948700B9A533245
:101AD0000A70000A8870032330463E460590694626
:101AE0000D604D600DAA294604F0D0FC0C98FB381F
:101AF0000899401A0EA90870264F0A9AB95AC3B21B
:101B00005818B95B884216D9199804F0FDFD412098
:101B1000C000204908180021582203F0ECFA04F014
:101B2000E7FD0FA9884202D1199804F0EDFD264681
:101B3000B0B21BB0F0BD6846056045602C46134E40
:101B40000899761805982146324604F09FFC0EADA0
:101B50002B7868460460446007982146324604F0BA
:101B600095FC0A4E0A9AB85A29784018B85234702F
:101B70000699795A80B28142099901D17470022183
:101B8000FF204000395209200403C8E7E01F00206D
:101B9000FFFF00007C1800202B020000181D002011
:101BA000090200000A0200002A7C0000F0B5A3B080
:101BB000FF204600374F0024BC5305AD284607F0F0
:101BC00027FCA8853449084207D005A884850F98CA
:101BD00004F09AFD6F20040243E005A804F094FD90
:101BE0000F90202103916846416004961BAE066069
:101BF000284F28370125384629463246234604F027
:101C000045FC384604F062FC68460660039B43606E
:101C100038462946324604F039FC684604601F48BD
:101C20001C49081811AF214622463B4600F079FEB8
:101C30001C48784404F0AEFA807940082840694690
:101C400064220A604860164C3846124F3146039AA7
:101C5000234600F09DFF6078801C0499785209208B
:101C6000040304F045FD05A9884202D10F9804F051
:101C70004BFD4120C00038180021582203F03BFAE8
:101C800005A8808D002802D1204623B0F0BD03F0C6
:101C900051FAC0467C180020FFFF00002B02000014
:101CA000E01F0020CA8E000070B59320C000094DCF
:101CB000285C002801D0084C09E001204602FFF70B
:101CC000F7FD0446A85DC00601D503F053F8204691
:101CD00070BDC0467C18002082690000B0B5014686
:101CE00069228520002902D0FFF760FF020AFF2148
:101CF0004900074B5C5A074D2A55A21C5A52611CD9
:101D000089B2685491B2202003F08AFDB0BDC0466C
:101D10007C180020E01F00206D20000270470000AA
:101D2000F0B589B01E4617460A460024E543782AD6
:101D300000D987E0002A06D00024015D002902D1E5
:101D4000641C9442F9D30490111B8A2048436421F7
:101D5000069207F0ABF803465A1C306898423FD908
:101D600001960295002138460092059303F0C3F9CD
:101D7000059B03940698844226D21946039A049838
:101D80000792805C491E08911C46395D09020E18B5
:101D90003D463A273046394607F012F94743F11BD2
:101DA0002F463955393608998C4201D8732E04D301
:101DB000611E002C0C46E8DC00E02146079A521C0C
:101DC00006988242059BDAD10021039A029D019E6A
:101DD000785C002806D1481C99420146F8D302E0FD
:101DE00032602FE0084600998918091A336831607B
:101DF0008B4227D3131A002B10DB481E0028059BAB
:101E000019DB134878447C181E46BB5DC35C6355E0
:101E100033465B1E491E0029F5DC0CE08A420AD2DB
:101E20000A49794414463B5CCB5C3B55401C641C1E
:101E300033689C42F7D3074878440178384603F06A
:101E40005AF90025284609B0F0BDC0467478000054
:101E5000927800005E780000F0B595B000920F46D1
:101E600002900AAC2A21204607F096F9022004438A
:101E70000594790001400D220A4303924140881DD8
:101E800001901325002102980491405C06900021E6
:101E900007200991401A01210891814006980140CC
:101EA0000791ECB2142C0ED81520021B60000AA971
:101EB0000E183188C81C042900D808463080521EEC
:101EC000B61C002AF5D160000AA9085AFF34072879
:101ED00000D82C46E0B2132817D814210D1A400060
:101EE00005990A180AA90E5A138801210027072B01
:101EF000084600D8384676000E2737400743C843C7
:101F00001752921C6D1E1E46EED107980028089AA3
:101F100000D10246149840000E21014011430AA846
:101F200001850999491C08292546B1D10499491C04
:101F300008292546A7D100210B460A460C46009EDB
:101F4000D8B240000AAD285A240603D1002801D196
:101F50000C4604E0D4B230303055521C01245B1CD6
:101F6000D8B2039D8542EBD81106019D02D13021E4
:101F70003170012200242146CEB2B5420D4622D94D
:101F8000361876000AAFBE5B6D1C002E04D1EEB28F
:101F9000019FB742F4D816E02506009F04D1D4B2C1
:101FA0002E253D55521C0124DDB26D000AAE755B35
:101FB0003035D6B2BD55521C5B1C491CCDB2019EBA
:101FC000AE423546D8D8D0B215B0F0BD80B581212B
:101FD0008900044A525804490968496CFFF73CFFDC
:101FE00080BDC0467C180020181D0020F0B583B0CD
:101FF0002B4D00262B4A2846314603F07CF8284614
:10200000314600F0F1FD28482E529320C0002E5496
:10201000264801242C54264828180822314603F06B
:102020006AF8FF20EC302E5422482E54224878447F
:1020300004F0B0F84078012801D0FFF7D3FB1F4827
:10204000784404F0A7F84078002807D01C4878446A
:1020500004F0A0F8808800F0CEFD02E0FF2000F040
:102060003DF81848784404F095F80078002814D119
:1020700002AD2C7001AE3470134F7F44384604F02B
:1020800089F829303146224604F0E4F9384604F054
:1020900081F82946224604F0DDF903B0F0BDC046C0
:1020A0007C1800209C0400006E0400007C040000EA
:1020B0007D04000085040000CE8A0000BC8A000078
:1020C000AE8A0000988A0000828A00004021415CAC
:1020D00001220A40022111430170704710B582B0FD
:1020E000014601AC204600F07FFD0548784404F02D
:1020F00051F8001D0222214604F0ACF902B010BDD7
:10210000108A0000F0B58DB00746412080003249AA
:102110000D180C46284604F0D9F9002668460660DA
:10212000466077208000221804232846314604F0B8
:10213000ADF9684606604660172000012218202489
:1021400028463146234604F0A1F9684606604660F9
:102150001920000120490A1828463146234604F078
:1021600095F90C960B96039708377D2084000CAAEE
:102170000BAB3846214600F0C7F9002828D00B9851
:102180000C9900266A46166056600B1808332846DC
:102190003146039A04F07AF904AA3846214600F041
:1021A000DDFA002813D068460660466004AA1A23A8
:1021B0002846314604F06AF96846066046600823FE
:1021C00028463146039A04F061F9012600E0002612
:1021D00030460DB0F0BDC0467C180020F0B583B08D
:1021E0000C46054600266846066046604120800091
:1021F0000A490F181B2000010A18202338463146CF
:1022000004F044F9684606604660384631462A467E
:10221000234604F03BF903B0F0BDC0467C18002013
:1022200070B504461E4E3068416B002911D01D491F
:1022300079440322204602F067FF012500282CD0B4
:10224000194979440322204602F05EFF002824D079
:1022500030684021405C13280CD114497944042291
:10226000204602F051FF002816D118341049794455
:1022700028220BE00F4979440422204602F044FF53
:10228000002809D118340C4979440222204602F072
:102290003BFF0125002800D00025284670BDC04620
:1022A000181D002031740000227400000B7400001F
:1022B000FD730000B7730000A9730000B0B50446B9
:1022C000154800684021405C132810D11349794417
:1022D0000322204602F018FF00281AD117341049B3
:1022E00079442722204602F00FFF01250FE00D4917
:1022F00079440322204602F007FF002809D1173451
:1023000009497944012520462A4602F0FDFE0028AD
:1023100000D000252846B0BD181D002069730000BC
:102320005A7300004373000034730000B0B50446D4
:102330000C480068406B002810D00B4979440322F8
:10234000204602F0E1FE0125002808D00749794423
:102350000322204602F0D8FE002800D0002528469F
:10236000B0BDC046181D0020257300001673000084
:10237000F0B586B0FF241470046800278C421AD28E
:102380000B9E002B01D000241C60002E01D00024E5
:10239000346005684C1B012C0DDB05922A46551C48
:1023A000056014784E2C5FD804954C2C039704D20A
:1023B0002746049D45E03C4659E000274E2C26D098
:1023C0004D2C0DD04C2CF4D102943746049C0E1B9E
:1023D0000024012E3E464ADB951C056057782FE00D
:1023E00002940196049C0E1B0024022E15463EDB2F
:1023F000009300231C461F46049AD65CE4B2A64014
:10240000F7195B1C0834022BF7D1ED1C15E0029480
:102410000196049C0E1B0024042E154627DB009316
:10242000002423462746049A165DDBB29E40F71926
:10243000641C0833042CF7D16D1D0560009B019EC0
:10244000029C491B002915DB04952546B942039CD3
:102450000DD3002B01D004991960002E2C4600D01A
:1024600037600168C919016005980470012420468D
:1024700006B0F0BD039CFAE7F0B581B000920722E8
:10248000D34308240029224600D01A46002900D14F
:102490000C4600252946465D7F273740002D3346F0
:1024A00000D13B46009F002F00D01E46E3B29E4065
:1024B00071189C186D1C022DEDD1084601B0F0BDBD
:1024C000F0B581B000920722D3430822002900D042
:1024D0001A461824002900D10C4600252946465DDD
:1024E0007F273740002D334600D13B46009F002F09
:1024F00000D01E46E3B29E4071189C186D1C042D3E
:10250000EDD1084601B0F0BDF0B5044600201060E2
:10251000186000291FD02578FD26FC2D01D8012741
:1025200010E0032917D3B54215D1601C00242646BC
:102530002546075DF6B2B7407D19641C08360327AF
:10254000022CF6D115601F601068C319012000220B
:102550008B4200D91046F0BDF0B585B01446024656
:102560000020FD26002B029608D0002300291BD056
:102570001578B54205D201212B4616E00B460146DF
:1025800013E0032910D3B54219460ED1561C00257D
:102590002F462B46715DFFB2B940CB186D1C083732
:1025A0000321022DF6D100E01946029DAD1C04AEB8
:1025B000357055180395D2185518002B17D00026E2
:1025C00037466846066003A804AA29463346FFF743
:1025D000CFFE00280AD004A80178781CA14200D0C0
:1025E00038460399A9420746EBD100E0384605B0CA
:1025F000F0BDF0B585B002920027FD22002B08D077
:10260000002300291BD00478944205D201212346DF
:1026100016E00B46394613E0032910D394421946BD
:102620000ED1441C00252E462B46615DF6B2B1400A
:10263000CB186D1C08360321022DF6D100E0194697
:10264000921C04AC227042180392C01845180298DC
:102650000128019716DB002B019F13D00B9C0A9ECB
:1026600000276846046003A804AA29463346FFF7FA
:102670007FFE002806D07F1C0298874202DA03986A
:10268000A842EED1012002998F4200D0019805B0F6
:10269000F0BD000070B501464A78012300246A2A83
:1026A000184600D020460B4D2D684026AD5D022D0A
:1026B00000D023461843022D0AD16A2A08D00020F0
:1026C000002A05D18A78012000216A2A00D0084614
:1026D00070BDC046181D002080B5C12200F002F870
:1026E00080BD0000F0B581B015460E460746FFF7E5
:1026F00097FD0024002804D13846FFF7DFFD0028AD
:1027000002D0204601B0F0BD0E4800684021405C78
:102710007978022807D16A2905D0002907D1B8782D
:102720006A28EED003E06A29EBD00228E9D0012321
:10273000384631462A46FFF70FFF00240128E0D132
:102740000446DEE7181D002080B5C222FFF7CAFF4D
:1027500080BD80B5C422FFF7C5FF80BDF0B585B050
:10276000144600270497039703AA6B465A6004AAED
:102770001A60022201263346FFF73BFF01283D463F
:1027800000D1054604990029304600D1084605408D
:102790000398142800D03E463540002D11D07620F5
:1027A0006070192020701422E2707720C6433046F2
:1027B0002130A070201D02F088FC24366676882027
:1027C0002076284605B0F0BDF0B583B01D4616460C
:1027D0000024002E13D0002D11D06A4616605560DB
:1027E000032201273B46FFF704FF002807D030688B
:1027F000002804D02868002800D107463C4620461F
:1028000003B0F0BD70B50023002A08D00023521E8B
:1028100094B2055D0E5D6E403343002CF7D1D8B203
:1028200070BD01700A0A42700A0C8270090EC170F4
:102830007047F0B5A3B0164603AC202522462B46C0
:1028400003F050FE0BAF384603F034FE1420694607
:102850000E6048600121384622462B4603F016FEE2
:1028600023B0F0BD70B588B014466D4620262A46C8
:10287000334603F037FE284631462A46334603F0F6
:1028800031FE04222046294602F01FFC08B070BD2C
:10289000F0B58BB01D4614460346109E022701205A
:1028A000FF2E00D807461198002808D0142038437E
:1028B000C2B202A8194602F008FCFFB20EE0FFB255
:1028C00002A8C2191846FFF7B4FF300A04D002A8C4
:1028D0004670310A017001E002A8067014213943E4
:1028E00002AEF21914323046FFF7BCFF01951821F1
:1028F000394301AB30462246FFF712FA002803DBCA
:1029000001A800880BB0F0BD012002F013FC002AE2
:1029100006D0491E8B5C0370521E401C002AF9D160
:102920007047F0B58DB0174606780B2E3CD201915A
:102930000293002E13D0401C0021182200252B46A4
:10294000445DD2B29440E3186D1C083A042DF7D1CF
:102950008A0003ACA350491C001DB142EDD103F025
:10296000FFF868460760212703AD384629463246FE
:102970002B4603F02FFE202238462946029C234690
:1029800003F0D4FD0198002805D0129921200123DD
:10299000224603F0DBFD03F0E3F803A80021202228
:1029A00002F0A9FB0DB0F0BD022002F0C3FB000055
:1029B000F0B58DB0024610780B2843D201260028CE
:1029C0003DD002960191521C0024182500273E4656
:1029D000D35DEDB2AB409E197F1C083D042FF7D1AB
:1029E000A30003ADEE50641C121D8442EDD10528F6
:1029F000029E24D10126F207039B53402C2B03D0C7
:102A0000542B01D0312B1AD110490B681C88002C93
:102A100006D0049D5540A54202D059888D420ED162
:102A20006432059991420ADC06990198814206D1E7
:102A3000074A079B01260021934200D80E463046E4
:102A40000DB0F0BD022002F075FBC046181D00203D
:102A500050C30000F0B58DB002461F4803681C88C3
:102A60000120002C33D01078022801D208462EE035
:102A7000019102930B282CD2521C00251826002706
:102A80003B46D15DF6B2B140CB187F1C083E042F07
:102A9000F7D1A90003AE73506D1C121D8542EDD114
:102AA0000122D307039858402C280299019D04D095
:102AB000542802D03128284609D1049D5D40A54202
:102AC000104604D04A88012000219542CED10DB095
:102AD000F0BD022002F02EFB181D0020F0B585B0DD
:102AE00004920C4602780B2A4CD22021217001213D
:102AF000002A3DD00499891E0191461C0023012122
:102B000002920393182000221546B35CC0B28340A2
:102B10005D19521C0838042AF7D1C9B26018049A0A
:102B2000511A0122D2072B469343184A7A4403F0E4
:102B30005DF927462046049906F068FDC1B2361DAE
:102B4000019A91421BDA002D039B01DB3C4603E016
:102B500027223C466254401CC1B22F226254411CC1
:102B6000C8B2002222545B1CD8B2029A9042C8D349
:102B7000C8B2401E00212154C0B205B0F0BD0320F0
:102B800002F0D8FA022002F0D5FAC046676B0000C6
:102B9000F0B587B01C4617460591064602F0E0FFE7
:102BA0000020069006AD6846C5600C9981604460BF
:102BB00007600D98002801D00A4900E00849032267
:102BC0003046059B03F0D2FC2878C00703D020785C
:102BD00001210143217002F0C3FF07B0F0BDC046E0
:102BE00001040000010600000A020A43FF21090255
:102BF00051400180704780B5FF218143000A814226
:102C000001D003F01DFC80BDF0B5002307241E4653
:102C1000155D0F5DF619751905550126FF2D00D8B4
:102C20001E46671E002C3C46F2D101200021FF2DDC
:102C300000D80846F0BDF0B581B000260724009604
:102C4000155D0F5D330604D0AF4204D97F1E00230B
:102C500003E0009B01E0FF373346BFB27E1B065501
:102C60000126AF4200D31E46631E002C1C46E7D14E
:102C7000F0B201B0F0BD000070B582B0044601268C
:102C80003002114D285C30420DD01F2000012A581F
:102C9000002168460160416028462830234603F041
:102CA000F5FB3002285C80070BD51F2000012A5855
:102CB000002168460160416094352846234603F0B0
:102CC000E5FB02B070BDC0467C180020F0B581B0B5
:102CD000FF26EE36294DA85D002848D01F200701A9
:102CE000E8590478FC2C05D801252846FFF7C4FFD5
:102CF000FF2031E0FE2C19D0FD2C3BD10120FFF745
:102D0000BBFFE859411CE951A95DFF31A955C9B282
:102D100001292CD941780091847802252846FFF7B3
:102D2000ABFF240200980443FE2015E00120FFF7CA
:102D3000A3FFE859401CE851A95DFF31A955C9B26C
:102D4000032914D900210A46FFF7BAFB04460425DB
:102D50002846FFF791FFFC2008490A46D159491936
:102D6000D151915D40189055204601B0F0BD012031
:102D700002F0E0F9022002F0DDF9C0467C180020E4
:102D8000F0B5BFB00646EA48784403F003FA857907
:102D900033AC204606F03CFBA085ED0801273D4002
:102DA00084B2002C01D000F067FC33A803F0ACFC27
:102DB0003D90002D199700D119951B951DA8C01D98
:102DC000189025A8011D169128301790F2481C96DE
:102DD0001A9707466CE2072800D069E23C69002C8C
:102DE00000D163E2FF25EE35785D002801D100F0C7
:102DF00032FC844200D30446002CE74F01D100F09E
:102E00002AFCE0B2FFF738FF1F20000139580919EA
:102E10003950785D001B78553869001B386147E2EE
:102E20004E783446083CE1B2302901D900F021FC4B
:102E3000B11C1191C9B2884201D200F01AFCD748E6
:102E4000784403F0A7F9D449149D49596A4656605D
:102E500025AB059313608A1C08302021234603F01C
:102E600051FBCD4840598019811F08220598FFF772
:102E7000C9FC002800D0FCE3C74D149EA8593D2191
:102E8000C9006A5C002A0DD03A22825C3223C25407
:102E9000A859401DA851EA5DF332EA55695C012248
:102EA00000293DD1811C25AE3046224602F00DF9A5
:102EB0003078322800D0DCE3B7480546149EAC5980
:102EC0001698A8512420FFF7D7FE11996018A85131
:102ED000E85D401AE8552F461DA808221799FFF70C
:102EE00016FD002001460246189E735C7C18257F63
:102EF0005219D31823770122FF2B00D80246491E0E
:102F00000C460834F1D10125FF2B00D885E0B0E351
:102F10003D20C000A049085C0022002800D1A8E3A1
:102F2000139201263046FFF7A7FE9B4D149968586F
:102F3000421C6A50E85DFF30E855C0B2232800D833
:102F400097E3F5204000285C002826D034022E5557
:102F50002420FFF791FE00200C942855149C295939
:102F600024312951E85DDC30E855C0B2072800D88B
:102F70007FE30F20400128180822039202F0A5F8F1
:102F80000398FFF779FE0C982E54285908302851E1
:102F9000E85DF830E855139D3FE000216846016088
:102FA00041601720000128182424234603F06EFAFC
:102FB0002046FFF761FE1498295824312950E85D16
:102FC000DC30E855C0B2072800D852E31DA808221B
:102FD000FFF79DFC002001460246189B5B5C6E4C8F
:102FE0006418257F5219D3182377FF2B324600D857
:102FF0000246491E0C460834EFD1FF2B139D00D921
:1030000037E30820FFF738FE63480146149A8858D2
:1030100008308850C85DF830C8553D20C0005E4A71
:10302000105C002802D10120010250541C9E159C06
:10303000FFF74CFE584F3861022171403D22D2000B
:10304000BB5C2B430B430022002B214600D01146D2
:1030500000281A9A00D104460C4054401B980028BE
:1030600002D1002C00D104E302203875FF252C4644
:10307000EE34385D002800D1EDE2396901291A9B50
:1030800020D11F200601B859007801210022AE2866
:1030900000D11146199A1143012906D101210022BC
:1030A000AE2800D111465940F9770120FFF7E4FD21
:1030B000B859401CB851385DFF3038553969491E40
:1030C00039611C9E002917D04D1EC0B2854200D325
:1030D0000546002D304F00D1BDE2E8B2FFF7CCFD30
:1030E0001F200001395849193950385D401B3855A7
:1030F0003869401B3861DBE0022E1FD13D21C90039
:10310000795C002916D0F5214900795C002915D099
:1031100000216846016041600F2040013A1838469E
:103120002830082303F0B2F9EE35785D06E0C0469A
:10313000747D00000121090203227A54C0B20328E1
:1031400000D896E2F52040003D21C900795C0029B5
:103150000ED0385C00280BD11F2000013A58002106
:1031600068460160416038462830042303F08EF938
:103170000420FFF781FD1F2000013958091D395037
:10318000385DFC30385501203875B868401EB8608D
:10319000F868401CF8608BE07C180020BC7C0000C4
:1031A000F5204200B95C3D25E800385C00284FD08E
:1031B00000294DD120266846466025A90991016065
:1031C000172000013C180B9401210491002308935F
:1031D00020460F92099F3A460E9503F057F9204674
:1031E00003F074F96846076046602046049D29464E
:1031F0003A46334603F04AF9684646601DAF076019
:10320000ED4C2834204629463A46089B03F03EF907
:10321000204603F05BF96846076046602046294671
:103220003A46334603F032F90B980999324601F0D9
:103230004CFF19200001E04908183946DE4F32469C
:103240001C9E01F042FF0F98395C0E98C000385C5C
:10325000002822D0002920D0D848385C00280BD183
:1032600000216846016041601B2000013A18384681
:103270002830202303F00AF90A20387518E00528C1
:1032800016D1FF24EE34385D002800D1E3E13D691A
:10329000002D00D01AE7042076E7092139750028AF
:1032A00006D03846283003F011F901E008203875BF
:1032B000397D00E03975C8B2042807DC02286EDDCC
:1032C00003282AD00428F3D1B86836E0062800DDA8
:1032D000BBE1D4D1FF242546EE35785D002800D12E
:1032E000B9E1032800D8C4E10420FFF7C5FC1F2082
:1032F0000001E74F3958091D3950785DFC30785589
:1033000008212042D6D00124250200207855FFF75D
:10331000DDFC7C5538610721CCE7022E00D13FE768
:10332000FF20EE30385C002800D194E1FFF7CEFC9E
:103330000021B860F9600421397506210028B9D050
:10334000FF24EE34385D002800D184E1072800D83E
:103350008FE1012ECE4F11D13F20C0003858F968BF
:1033600081420BD11F200001395838461530082200
:1033700001F0ABFE7D208000012139540820FFF7C9
:103380007BFC1F200001395808313950385DF83076
:103390003855FFF79BFC38610520387571E7002828
:1033A00006D0012802D0022882D15FE6B868E0E0AA
:1033B0000026BE60FE603E61384615300822314668
:1033C00001F099FE3D462835284603F07FF83C463B
:1033D0009434204603F07AF83D20C000385C002881
:1033E0003AD0012000023E54F5204000385C00280D
:1033F0002DD0684606604660772080003A18042386
:103400002846314603F042F86846066046601720B9
:1034100000013A1807922020069028463146069B64
:1034200003F034F8684606604660192000013A1837
:1034300028463146069B03F029F868460660466038
:10344000602320463146079A03F020F804E0172055
:103450000001381803F03AF8FF261096EE36B85DF2
:10346000032800D805E11F20050179597720800045
:103470001290381804240A90224601F026FE2046B5
:10348000FFF7FAFB7859001D0D957851B85DFC30B7
:10349000B8558049795C002917D0C0B2032800D8FC
:1034A000E7E07B4F0D9D79599120C0003818042426
:1034B000224601F00AFE2046FFF7DEFB7859001D88
:1034C0007851B85DFC30B8551FE073480068402162
:1034D000405C16280A9C18D8012181406F4801429F
:1034E00013D0002120460A46FEF7EAFF00280CDA36
:1034F000002120460A46FEF7E3FF6949884204DBC3
:103500001099EE316248405CC7E763480068442187
:10351000415C890718D5007A022806D0042813D107
:103520005B481299405C01280ED8594CA05D0328D5
:1035300000D89EE00420FFF79FFB0D996058001D06
:103540006050A05DFC30A055FFF7C0FB504FB86045
:103550009321C9001C9E022E524A08D1795C002991
:1035600005D05168002900D150600021116001216F
:10357000397500281DD03846FF27EE37C05D00287A
:1035800069D00124022E1BD0012E254600D04FE524
:1035900023286ED92420FFF76FFB1F2000013C4930
:1035A0000A46115824311150D05DDC30D055012528
:1035B0003EE5032038757BE67C1800208604000079
:1035C000012856D91F210A011492314989580A78D5
:1035D000022A159400D19BE4012A00D120E4002A9C
:1035E00047D13D20C0002A49085C002841D12E4C1B
:1035F0007C44204602F0CEFD8088FFF7FCFA20468E
:1036000002F0C8FD8088C0B2042806D0022804D089
:1036100001282ED11B9800282BD01D4C149D6059D9
:10362000401C6051E05D401EE055C0B2232820D907
:103630002420FFF721FB605924306051E05DDC302D
:10364000E0550120A0770025E7E401460839032969
:1036500001D3FFF7C0FB03F04BF833A9884202D136
:103660003D9803F051F833A8808D00280DD13FB06C
:10367000F0BD012001F05EFD33A8002585853D9851
:1036800003F042F802480575204601F053FDC0469C
:103690007C18002086040000181D002080014000D6
:1036A00003000080001800200C750000F0B581B008
:1036B00000900B09012213405B42194C1C40CD08BD
:1036C00015406D42174E2E404701774067404C0928
:1036D000144064421448204078408E0916407642D7
:1036E000124F37404740C80910404042104A02403C
:1036F0007A4098272F40009DED0E49012943C9B219
:10370000794079251D404D40F32121406940AE2389
:1037100033404B401E2101405940104601B0F0BDDE
:10372000E2996DB7618EBCF2C4B35F3EA8E2AB2EE6
:1037300070E4434FF0B581B015460E4607463C781D
:10374000012000210090FFF7B1FF002C12D07F1C58
:103750001F22224042403C781046FFF7A7FF7F1C03
:10376000002CF5D106E0FFF7A1FF0246307850406B
:103770006D1E761C002DF6D10824FFF797FF641EFE
:10378000FBD1009A504001B0F0BD000070B5144666
:103790000A4601460D487844FFF7CCFF2322054630
:1037A000D54020239E1A0B46B3402B431646203E9D
:1037B0000D46F540002E00DA1D461F232B402370D6
:1037C000531F641C002A1A46E9D170BDA65F000091
:1037D000F0B599B01D460346002017901690107062
:1037E00014296FD11E990020002904D0012969D124
:1037F0000192082000E001920CAF3870781C14226E
:10380000194601F062FC15210026324630463B780D
:1038100000021843134608337F1C491E0224E44368
:10382000A2420EDB0D3213460A3B0446DC401F2346
:10383000234002ACA355521F761C092AF3DC521F09
:1038400000E01A460029E2D1002A019F07D0052195
:10385000891A88401F21014002A88155761C02A8C0
:1038600016AA3146FFF792FF0020002E394611D0EC
:1038700002A801780023144A7A44202920D2581C37
:10388000AB421DD202ACE45C145DFC54B042034672
:10389000F3D3391800220D4B7B4416AC2478202C2E
:1038A0000ED28418641CAC420AD816ACA45C1C5D11
:1038B0008C54521C082AF0D300238B54801801E04A
:1038C0000020387019B0F0BDD05E0000B05E00007E
:1038D000F0B58BB00AAC55202070099401206946E0
:1038E000886009A8486000250D607B487844402125
:1038F0009F232A4601F042FC002800D1E3E0207813
:10390000012800D0DFE005F0FFF9284605F070FA45
:10391000C4266E4F0323BB55C022704979440892D8
:10392000B9502C46D0206E49794403903950CC21AF
:1039300007917C5066480370446002F075FE0425D0
:10394000284602F0EDFE6249486001F073FE01F086
:1039500073FEBE2005903C52284602F0E1FE5C4911
:103960004860002837D0972835D008983858002864
:1039700031D00598385AAA24B95D80B288422AD23B
:1039800002F09AFE002826D102F018FEA04203D1D0
:1039900002F03EFEA0421ED1089838580599795A87
:1039A0004901401807997958002902D08847002812
:1039B00009D0012805D1089838580599795A490144
:1039C000401800F011FB0599785A401C785208996C
:1039D00079580029D0D1BC5D05983D5A4B20810013
:1039E0003C480022049102F073FE01F0BFFDA542A5
:1039F00043D2AA240898385800282DD0BE25785BD9
:103A0000B95D80B2884227D202F056FE002823D149
:103A100002F0D4FDA04203D102F0FAFDA0421BD176
:103A200008983858795B4901401807997958002956
:103A300002D08847002808D0012804D108983858B7
:103A4000795B4901401800F0CFFA785B401C78534D
:103A5000089979580029D3D1B85D06903546059864
:103A60003E5A049881B200221A4802F031FE01F059
:103A70007DFD069886422E46BCD301F08DFC04984D
:103A800084B2144D00222846214602F021FE01F0A6
:103A900083FC039E00222846214602F019FE01F015
:103AA00065FD02F009FE002802D0B8590028F1D1C6
:103AB00005F046F901F0BEFD01F0BEFD054800220B
:103AC000214602F005FE0BB0F0BDC0461C1D0020D3
:103AD000481F00201C1E002050720000645E000081
:103AE000B901000004490840884203D1D0200349AD
:103AF00000220A5000207047030000801C1D002097
:103B000070B594B014460A46014601A8FCF795FA30
:103B100001460020002912D001A8027800216B463E
:103B20001960011D21250CAE2846334602F052FDD6
:103B3000202228463146234602F0F8FC012014B02A
:103B400070BDF0B59DB0144613AAFFF7D9FF00254C
:103B5000002811D021266F4613AA01253046394688
:103B60002B4602F0F3FC08373846FEF7AFFA204642
:103B70003946324601F0A9FA28461DB0F0BD0000D2
:103B8000F0B58BB00746119C012F17D0129E032F62
:103B900012D1212205AF084611463A46FEF749FEEA
:103BA0000025684605601421384622463346FFF753
:103BB0000FFE002836D136E0022F25D1039304945E
:103BC00005A81425457000240470861C212208468F
:103BD00011463246FEF72DFE022F0DD11099002915
:103BE00008D06846056000220498334602F09AFB2C
:103BF000002817D1002516E06846039912C005A8D1
:103C000016219623049D09E025460024684614C029
:103C10000648301883B22122084611462A46FEF78C
:103C200037FE2C54012528460BB0F0BDFFFF0000E5
:103C300070B59AB00E4604462069002500282AD0A7
:103C4000217BA068401CFF31C9B211AA00252B4678
:103C5000FFF777FF00281ED0F388B288A0680078AD
:103C6000716B33256E46B56004AD22C611A9FFF70E
:103C700087FF002500280ED0246904AD284605F0F2
:103C80002DFC421C2846214605F09CFA0125002106
:103C9000002800D00D4628461AB070BDF0B585B09A
:103CA0000A4606460020B07334460E34317B08299C
:103CB00027D803AF002101910825384602922A46F1
:103CC00001F019FA327BA81A3818B16801F0FDF931
:103CD000029D2735284605F001FCC6B2204629463C
:103CE000324601F0F2F92020A055A019421C02989A
:103CF000416C3846FEF7B0F8301820180199417031
:103D0000012005B0F0BD000070B598B004466D46C6
:103D10006021284605F040FAA16928461C3040225F
:103D200005F03EFC5C20295C0020002917D1227B95
:103D3000082A14D8267D082E11D86D46A81A1430EA
:103D4000A16805F02FFAA81B1C302169324605F046
:103D500029FA04486022294605F024FA012018B007
:103D600070BDC0460018002010B50C490860FEF771
:103D70003DF99320C0000A4901240C5401F03EFC97
:103D80002102084805F008FA002004F01DF9204639
:103D900004F01AF9FCF722FA10BDC046181D0020E5
:103DA0007C1800201C1D002080B5064800780028E3
:103DB00001D104F0A9FF044979440020024604F02F
:103DC0000FFB80BD1C1D0020845F000080B582B009
:103DD00001900648784402F0DDF9293001A901225A
:103DE00002F038FBFFF7E0FF02B080BD286D000055
:103DF00001460020022903D8880002497944085866
:103E00007047C0469C5E000080B5012805D00028A0
:103E100007D10020FFF7DAFF80BD0120FFF7D6FFB2
:103E200080BD002003497944034A7A4404F066FFC8
:103E300080BDC0461300000027000000014600209E
:103E4000012903D888000249794408587047C046C0
:103E50005C5E000080B5002802D0FFF7A5FF80BDA2
:103E60000648784402F096F92921435C0020044971
:103E70007944044A7A4404F023FF80BD9A6C000020
:103E80007DFFFFFF91FFFFFF80B5002003497944CC
:103E9000034A7A4404F032FF80BDC046ABFFFFFF07
:103EA000BFFFFFFF80B5FF2002F0EEFB80BD80B5B5
:103EB0000120FDF713FFFFF777FF80BD80B50020DD
:103EC000FDF70CFFFFF770FF80BD80B50120FDF707
:103ED00013F9002800D080BDFFF766FF80BD80B5D4
:103EE0000020FDF709F9002800D080BDFFF75CFF36
:103EF00080BD80B50120FDF7FFF8002800D080BD0F
:103F0000FFF752FF80BD80B50020FDF7F5F80028CF
:103F100000D080BDFFF748FF80BD80B50120FDF7D0
:103F2000EBF8002800D080BDFFF73EFF80BD80B5D4
:103F30000020FCF7D9FCFFF737FF80BD80B50120DA
:103F4000FCF7D2FCFFF730FF80BD80B50020FCF706
:103F5000CBFCFFF729FF80BD80B50120FCF7C4FC36
:103F6000FFF722FF80BD80B50020FCF7BDFCFFF706
:103F70001BFF80BD80B50120FCF7B6FCFFF714FFE6
:103F800080BD80B50020FCF7AFFCFFF70DFF80BDC2
:103F900080B50020FCF7A8FCFFF706FF80BD80B5C8
:103FA0000120FCF7A1FCFFF7FFFE80BD80B50020DB
:103FB0000146FDF731FBFFF7F7FE80BD80B501201C
:103FC0000021FDF729FBFFF7EFFE80BD80B5002043
:103FD000FCF78AFCFFF7E8FE80BD80B50120FCF706
:103FE00083FCFFF7E1FE80BD80B50178490601D072
:103FF00001F07CFB80BD0000B0B5054607202840DD
:104000000024012814D0022814D1002909D00B481B
:1040100002F046FB68B200280ADA02F011FA002426
:1040200006E0FF2152310548002202F051FB044610
:104030002046B0BD022001F07DF8C046E01F002000
:10404000F0B581B0E04D28780C2810DD0D286CD03B
:104050000E2800D1C7E015280FD1DC48807901284F
:104060000BD1A879000708D4102001F063F80528C7
:1040700000D111E10C2800D181E2D54C0027676006
:1040800001202070204602F0CFFA042002F048FB05
:104090006060692800D05DE101F0CCFA01F0CCFA53
:1040A000BE25F84E7753042002F03AFB60600028EA
:1040B00000D164E2972800D161E2C0243059002881
:1040C00000D15CE2705BAA27C421715C80B2884297
:1040D00000D354E202F0F0FA002800D04FE202F0E0
:1040E0006DFAB84204D102F093FAB84200D046E229
:1040F0003059715B49014018CC217158002902D018
:10410000884700280AD0012803D13059715B490142
:1041100040180178490601D001F0E8FA705B401CB4
:10412000705331590029CFD129E2D54C002767605F
:1041300001202070204602F077FA042002F0F0FA05
:104140006060002800D11AE2972800D117E26928A0
:1041500000D099E101F06EFA01F06EFABE25C94E69
:104160007753042002F0DCFA6060002800D106E2F8
:10417000972800D103E2C0243059002800D1FEE185
:10418000705BAA27C421715C80B2884200D3F6E13B
:1041900002F092FA002800D0F1E102F00FFAB842E2
:1041A00004D102F035FAB84200D0E8E13059715B31
:1041B00049014018CC217158002902D088470028B5
:1041C0000AD0012803D13059715B490140180178A8
:1041D000490601D001F08AFA705B401C70533159D6
:1041E0000029CFD1CBE1EA4D00276F600120287074
:1041F000284602F019FA042002F092FA04466C6094
:10420000692C00D0E6E001F015FA01F015FABE24A1
:10421000E04E3753042002F083FA6860002800D192
:10422000ADE1972800D1AAE1C0257059002800D13E
:10423000A5E1305BAA27C421715C80B2884200D31B
:104240009DE102F039FA002800D098E102F0B6F9B9
:10425000B84204D102F0DCF9B84200D08FE17059C5
:10426000315B49014018CC217158002902D08847A0
:1042700000280AD0012803D17059315B4901401848
:104280000178490601D001F031FA305B401C30530F
:1042900071590029CFD172E1BD4C00276760012020
:1042A0002070204602F0C0F9042002F039FA606064
:1042B000002800D163E1972800D160E1692800D08F
:1042C00018E101F0B7F901F0B7F9BE25B14E775307
:1042D000042002F025FA6060002800D14FE1972801
:1042E00000D14CE1C0243059002800D147E1705B77
:1042F000AA27C421715C80B2884200D33FE102F05A
:10430000DBF9002800D03AE102F058F9B84204D1B4
:1043100002F07EF9B84200D031E13059715B4901B9
:104320004018CC217158002902D0884700280AD0B3
:10433000012803D13059715B4901401801784906C1
:1043400001D001F0D3F9705B401C70533159002942
:10435000CFD114E1C0258F4C6059002800D106E16F
:10436000BE26A05BAA27C421615C80B2884200D32C
:10437000FDE002F0A1F9002800D0F8E002F01EF9FB
:10438000B84204D102F044F9B84200D0EFE06059DD
:10439000A15B49014018CC216158002902D088470F
:1043A00000280AD0012803D16059A15B49014018B7
:1043B0000178490601D001F099F9A05B401CA05397
:1043C00061590029CFD1D2E01C1E002034210020E9
:1043D000481F0020D8206F4D2958002911D0642291
:1043E00064290B4600D31346CA1A2A50D421002A46
:1043F00007D16958002904D0DC22AA582A5000208D
:104400008847002C00D1BAE0972C00D1B7E0C02437
:10441000285900282FD0BE26A85BAA27C421695C92
:1044200080B2884227D202F047F9002823D102F057
:10443000C5F8B84203D102F0EBF8B8421BD12859B5
:10444000A95B49014018CC216958002902D088474E
:1044500000280AD0012803D12859A95B4901401836
:104460000178490601D001F041F9A85B401CA8532E
:1044700029590029D2D1C420285CBE21695A7AE08A
:10448000481F00201C1D0020C025424C60590028F8
:104490006DD0BE26A05BAA27C421615C80B2884291
:1044A00065D202F009F9002861D102F087F8B8421C
:1044B00003D102F0ADF8B84259D16059A15B49016E
:1044C0004018CC216158002902D0884700280AD022
:1044D000012803D16059A15B4901401801784906C0
:1044E00001D001F003F9A05B401CA05361590029E1
:1044F000D2D13CE0D020274C2058002803D0E978C6
:10450000490801F037F9C025605900282FD0BE2690
:10451000A05BAA27C421615C80B2884227D202F046
:10452000CBF8002823D102F049F8B84203D102F0B9
:104530006FF8B8421BD16059A15B49014018CC21EA
:104540006158002902D0884700280AD0012803D1E9
:104550006059A15B490140180178490601D001F07A
:10456000C5F8A05B401CA05361590029D2D1C420DA
:10457000205CBE21615A814201D302F09DF802F015
:104580009BF8002801D100F007FF012001B0F0BD29
:10459000481F00201C1D0020B0B582B019481A4DDC
:1045A0002A18294615316846FEF745FB00240028E5
:1045B00025D1164914316846082204F003FE00286C
:1045C0001DD100206877F5214A003D21C9006B5CB0
:1045D0000A21002B05D0AB5C002B02D10121A9548C
:1045E0000021092212030A4BEA52FF225200022341
:1045F000AB522975074990220A7048700124204661
:1046000002B0B0BD7D0400007C180020001800201E
:1046100002020000E01F0020F0B583B02A4EB07FF8
:1046200000280BD0294C204655302B4979440722CD
:1046300000F04BFD5C20002121543FE0244832185B
:104640003146153101A8FEF7F6FA224F3D680028E1
:104650000DD04020285C082833D11C4C2046553012
:104660001E497944062200F030FD5B3424E02735F2
:10467000284604F033FF0246144C553420462946A0
:1046800000F023FD3D682735284604F027FF202150
:104690002154284604F022FF2018401C8121890063
:1046A000705001A8FDF792FC05463868273004F0E9
:1046B00015FF28182018441C00202070012003B08A
:1046C000F0BD0020FBE7C0467C1800200018002049
:1046D0007D040000181D0020B15500008355000026
:1046E000F0B5A5B01E4614460F460546FDF7D2FFAD
:1046F000002807D0A74979440A22204604F052FD39
:1047000025B0F0BD0494A14800684024005D112844
:1047100044D128463946FEF71CF803909B480068B0
:10472000005D11283AD128463946FDF7D5FF00280B
:1047300012D07B208000039C002C07D09449085C99
:10474000002803D0083D2846FDF7DCFC002C049827
:104750007ED0924979447DE08C480068005D112844
:104760001CD128463946FDF7EFFF002816D07B20E4
:1047700080000399002907D08549085C002803D0F0
:1047800028460838FDF7BEFC2C78FD2C7F4F64D1FD
:104790006878A97809020143C81C5FE02846FDF744
:1047A000C5FD002810D079480068406B0028A7D0CC
:1047B00001F0F0FC0146A8786A461060EB1C00226C
:1047C000049801F0AFFD9BE7704F3868C488284615
:1047D000FDF726FD0321002802D0386884880421D3
:1047E000200A04D005AA54701070022702E005A820
:1047F0000470012705A8C0196918142503902A46DA
:1048000000F063FCFF20EA306149085C002810D00A
:104810005E480068C28801200021944200D008460A
:104820006946086014210398049A3346FEF7D0FFC6
:1048300066E7012069460C6048602F43B9B2B3B205
:1048400005A8049C2246FEF723F80021215457E7CF
:104850005149794404F03AFE52E7601C2918153991
:1048600020AE1422304604F09DFC307800281CD085
:10487000002020A94E4A7A440B781C09145D05AD2E
:104880002C542C180F251D40535D6370491C801C4F
:104890002928F1D3282005AB002119544121454A8C
:1048A0007A44049801F0A2FA2AE703200121FD2CA2
:1048B00000D00846295C4018295C4118039800285C
:1048C0000CD0685C0818401C295C00290AD04C29CF
:1048D00009D1291849784018801C04E068184078EC
:1048E000891C09E0401C291849784018801C295C63
:1048F0000818401C295C491C08182A5C411C4C2AD9
:1049000000D001466C186078A17809020143E07874
:10491000227912020243100408431F901FA8204965
:104920007944042204F008FE00280DD01FA81E4977
:104930007944042204F000FE002800D0E0E61B4980
:1049400079440B220498D9E63D68287919AE307075
:1049500021461131701C15273A4604F023FCA88823
:1049600001216A4603C205AD5023304639462A4626
:10497000FDF78EFF002129544420205C6946086021
:104980004121084A7A4404982B468BE7181D0020E1
:104990007C180020EE5C0000AB530000985400002F
:1049A000E752000088520000F7520000B05A0000A1
:1049B000B65300009D530000F0B597B001AD5024F0
:1049C0002846214604F0E8FB4548464F391815A80B
:1049D0000822FDF79CFF444838187B2189002A46AD
:1049E0002346FFF77DFE414E40223046294604F023
:1049F000D7FDA1208000385C142811D13C4838181C
:104A000040497944042200F07FFB002808D139484E
:104A100038183D497944042200F076FB00282FD055
:104A2000354C374626682736304604F057FD024697
:104A30003D4641352846314600F047FB266827367B
:104A4000304604F04BFD2021295430463E4604F008
:104A500045FD2818401C81218900224A505015A884
:104A6000FDF7B4FA05462068273004F037FD281812
:104A7000401C3018412100224254012017B0F0BDE3
:104A80001E48381801210022FDF71AFD0346304662
:104A900041301F2B06D0032B07D0012B0BD11B4914
:104AA000794404E01A49794401E01A49794406221C
:104AB00004F078FB04E01421174A7A4401F096F9D7
:104AC00035464135284604F009FDC4B22819812134
:104AD000890078500A483818FDF778FA2018C8E796
:104AE0007A0200007C1800208202000000180020DA
:104AF0008502000089020000181D00208D020000C0
:104B0000910200004C520000E7590000B351000030
:104B1000B3510000B3510000AB51000070B58CB030
:104B200020206946486004AE0E600C4894300C4D5D
:104B30002A46413201240023214601F0A7FC6846A1
:104B4000082306601836436086604121054A7A448E
:104B5000284601F04BF920460CB070BD7C180020AF
:104B60000018002026510000F0B59BB007A8502186
:104B700004F012FB4F4F39680020002959D10090F2
:104B80004E4C0120029038604B482118264605AC57
:104B90000825204601912A46FDF7B9FE39460C3119
:104BA00020462A4604F00EFB002841D14448301824
:104BB0007B21890007AD50232A46FFF791FD394636
:104BC0001C31284604F03EFC0028344630D13D48D4
:104BD000205C022808D14720000121584A1E22509B
:104BE00002230121002A30D08F20C500635901988B
:104BF000C118354A1646A25BD21A00F066FA60590F
:104C0000A15B081AA053029E7502605DEF2101406E
:104C10006155FBF7ADFE002804D001204002205C66
:104C2000C006F6D5605DC00605D538680028A8D056
:104C300000981BB0F0BD472000012158002000293A
:104C400000D006461F48235C3146022B19D10029AB
:104C500017D003201B4960541C48221821461531E7
:104C600003A8FDF7E8FF002807D1143703A808229E
:104C7000394604F0A7FA002801D00020D9E71148EE
:104C8000235C0120032BD4D100206077F520410064
:104C90003D20C000225C0A20002A05D0625C002A68
:104CA00002D10120605400202075FBF745FE012051
:104CB000BFE7C046001800207A0200007C180020E0
:104CC000820200007C0400006E0400007D040000ED
:104CD00010B59320C0000F4C205C002802D0FFF7D5
:104CE00043FF10BDFFF768FE4720000120580A4926
:104CF0006158491C0B1A094855301421084A7A4456
:104D000001F074F8074979440020024603F068FB7B
:104D1000012010BD7C180020740400000018002041
:104D2000824F0000AA51000010B59320C0000E4C25
:104D3000205C002802D0FFF72FFC10BDFFF76CFCB1
:104D40000146002000290ED07B208000205C002836
:104D500002D00649794401E0054979440020024621
:104D600003F03EFB012010BD7C18002054520000CF
:104D70003A52000080B5FFF7D1FE03497944002084
:104D8000024603F02DFB80BD7450000010B50446B0
:104D900004497A22FDF7A2FE00212046FDF708FE15
:104DA00010BDC04600180020B0B504460A4DC835F5
:104DB000284604F093FB202129542918002048702C
:104DC000002C02D00649794401E0044979440246A6
:104DD00003F006FBB0BDC046E01F002010530000EA
:104DE000F252000080B5034979440020024603F0E6
:104DF000F7FA80BD6853000080B50349794400206C
:104E0000024603F0EDFA80BDC453000080B50549A9
:104E10007A22FDF763FE044979440020024603F03C
:104E2000DFFA80BD001800204C54000080B5054911
:104E30007A22FDF753FE044979440020024603F02C
:104E4000CFFA80BD00180020D854000080B5034977
:104E500079440020024603F0C3FA80BD7C5500006F
:104E600010B58CB06C46204604F0D2FAA0850D49EE
:104E7000084206D1684601F047FC0A90FF2001F085
:104E800003FC01F035FC6946884202D10A9801F022
:104E90003BFC6846808D002801D10CB010BD00F0AD
:104EA00049F9C046FFFF0000F0B59FB00446002C52
:104EB0002FD10DAC002648222046314600F01BF9C8
:104EC000032525720D9633480E902046093034494B
:104ED00079440526324604F065F920461730314FF3
:104EE0007F443946324604F05DF920462730394682
:104EF000324604F057F926462D362B497944304680
:104F00002A4604F04FF94020112121541A9604201A
:104F10001E9021480460214C01200102204604F02B
:104F20003BF901AD284604F073FAA88585B2002D3F
:104F30000BD001A8002181850B9801F0E5FB0B98AF
:104F400001F0E2FB102DE7D01FE001AD284601F093
:104F5000DBFB0B9000F052FBFDF748F8002003F05C
:104F600033F8012003F030F8FEF71EFFFBF736F9A7
:104F700001F0BEFBA84202D10B9801F0C5FB01A8CD
:104F8000808D0028C8D000F0D5F8FFF769FF1FB06A
:104F9000F0BDC0463A003200181D00201C1D002044
:104FA000BB4D0000B04D0000994D0000F0B59FB022
:104FB0000446A068002831D10DAD002748222846BC
:104FC000394600F098F80320009028720D97374872
:104FD0000E90284609303749794405273A4604F0AF
:104FE000E1F828461730344E7E4431463A4604F004
:104FF000D9F82846273031463A4604F0D3F82E46F1
:105000002D362E4979443046009A04F0CBF84020E2
:10501000112129541A9604201E90A5600027244EC1
:1050200001AD284604F0F4F9A885304207D101A863
:1050300001F06AFB0B90F8070FD001F001FB01F0C3
:1050400057FB01A9884202D10B9801F05DFB01A832
:10505000808D002828D10127E2E70A2001F0E4F939
:105060006068022817D004280BD00328E5D1E06837
:1050700000218161A168E068FEF7DAFDE1688861DE
:10508000DBE7E0680021C162A168E068FEF706FE88
:10509000E168C862D1E7E068FEF736FE0028CCD0B0
:1050A000A068FEF761FEC8E700F044F83A0032005D
:1050B000FFFF0000B34C0000A84C0000914C000022
:1050C00080B5002001F020FB80BDB0B5884208D932
:1050D000002A0FD0491E401E8B5C8354521EFBD108
:1050E00008E0002A06D000239CB20D5D05555B1C2C
:1050F000521EF9D1B0BD80B50B46002A03D011462F
:105100001A4604F057F880BDB0B50023002A0FD02E
:10511000401E491E8C5C855C521EA54202D1002AAD
:10512000F8D105E00020C0430123A54200D8034682
:10513000D8B2B0BD10B5044601F0DAFA214604F049
:1051400073F9B0B582B0019200920023002A0BD00F
:10515000401E491E0023845C8D5C65402B43521E1B
:10516000F9D100200090019000980199884202D165
:10517000D8B202B0B0BD0120FFF7DCFFF0B58BB0B4
:105180000993844B109D2C461C400026002900D119
:10519000AFE03746119E002E6DD00790089106961D
:1051A0000594581C04952840039000283E4604D1DD
:1051B00006980068002800D19BE00026002A0A9685
:1051C00001D010680A900898022800D291E0129845
:1051D000009000200190C4430998C0B20990089B38
:1051E000079F0294991EB81C002900D180E03C78EA
:1051F0007E7875B2002D22DB07460B4635460998AE
:10520000844213D1002A3AD00798381A1060072137
:1052100000240A9E864200D82146072906D000298C
:105220002DD000260A99814206D962E07F19AB424F
:10523000184600D328461B1A012BD3D858E08035D6
:1052400056D07F252E400025002E11D002994E43C6
:10525000DB1E00252946002B0FD007782D023D4389
:105260005B1E761C401C002EF5D15B1C0746C6E772
:1052700007460B46C3E73E463BE00E4639E005983D
:10528000984235D8854233D32E1A0098864202D0F0
:10529000049800282CDB9E4200D31E4600988642CC
:1052A000024600D83246059C101908998C421FD836
:1052B0008A421DD888421BD8079CA74218D305985C
:1052C000C119A14214D35018A04211D30A910899D0
:1052D0006418BC420CD30A99A14209D8A04207D84D
:1052E0000398002808D00598C019069A106000E0BD
:1052F000019E30460BB0F0BD069800680499002965
:1053000023DB0A99884228D9002A019EF1D0029E07
:10531000941B0A990919891E80190019401EF41A54
:10532000059B5B1E5B1BA34200D82346029C009D8D
:10533000641BA34200D823465B1C029D0C780470BA
:10534000491940195B1CF9D122E00A99FFF7F9FECF
:10535000012600220028CCD01AE0002A019EC8D0E5
:105360000299CB1A0599491E491B994200D8194642
:10537000029B009C1B1B994200D81946491C002324
:105380000A9E9CB2355D0555491C5B1C0029F8D16D
:105390001646AEE7FFFFFF3F80B501F08DF900280C
:1053A00000D080BD064800214170602202700222B8
:1053B0008270C1700171052101F072F980BDC04693
:1053C0001C1E0020B0B51A48C078032807DC01284D
:1053D0000DD0022828D1174802F075F9B0BD042875
:1053E0001FD0082820D1134802F06BF9B0BD114C32
:1053F0000121204602F060F9204602F03FF90E4CF0
:10540000A079002811D120460C300025042229461D
:10541000FFF771FE1034082220462946FFF76BFE85
:10542000B0BD044802F04BF9B0BD1020FFF782FE7A
:105430001C1E0020F4210020342100207F21014087
:105440000020032903D8C8B201490818007B70471F
:105450003421002080B516480179042918D002298A
:1054600006D0012922D1811D134802F00FF880BD1A
:10547000C2787F211140032918D8C9B24A000D4BC8
:105480009A1800231382821D0B4802F084F880BD15
:10549000C2787F211140032908D8C9B2054A5218A1
:1054A00043791373821D044802F01EF880BDC04684
:1054B0001C1E002034210020F421002070B5154668
:1054C0000E460446FF2D1BD80E48502101702021A6
:1054D00001714571E91C817080222243C270090A62
:1054E0004170062101F0DCF83046294601F0D8F879
:1054F0007F2020404000044908187D2109010182D5
:1055000070BDC0461C1E00203421002080B50A4614
:10551000014682201423FFF7D1FF80BD80B50A46E3
:10552000014683201423FFF7C9FF80BD80B50C48D6
:105530000178002900D080BD062181710A21017007
:1055400008498B784A7812021A43FF232A339A4279
:1055500000D31A464280C91C0348FFF7B6FD80BD40
:10556000342100201C1E0020E01F0020B0B5204880
:10557000827841780902114300780F280ADC0E284E
:1055800010D00F2823D10020012927D1FFF71AFFBF
:105590000120B0BD10281ED0162818D1FFF7C6FF75
:1055A0000120B0BD13488168643181601621124A20
:1055B000435A002B08D06424642B1D4600D3254693
:1055C0005B1B435213420ED0891E0E29F0D10220DC
:1055D000FEF736FDB0BD0020032900D2B0BDFFF7B5
:1055E00039FF0120B0BD002101701020FFF7A2FD9E
:1055F0001C1E002034210020FFFF0000B0B50A204F
:1056000000F012FF094C0025182220462946FFF71A
:1056100072FD65802570A571A56000F063FB0448EC
:1056200005604560FEF754F9B0BDC0463421002046
:105630004C210020704700000248002101604160B9
:105640007047C0464C210020F0B589B00546084699
:1056500000F0A0FD0446002C43D02069002840D073
:10566000284600F097FD014602AD1C222846019213
:10567000FFF72BFD2168E98062682A81A0681A4F34
:1056800065233B7089B292B24A434243D1084E1C13
:1056900007231A4200D10E46314600910426864067
:1056A00070181D30B870000A78700321384600F079
:1056B000F7FF2846019900F0F3FFA0683870012138
:1056C000384600F0EDFFE06800F064FDB1B200F094
:1056D000E7FF009885B2206900F05CFD294600F0E4
:1056E000DFFF09B0F0BDC0461C1E002070B500F001
:1056F00051FD044620787F26064000F0DDFF00289B
:1057000030D1002E2ED0E06900281DD000F042FDDF
:105710000546052E02D1A07E002824D0284603F09D
:10572000DDFE064612486521017031461C3181704C
:10573000090A4170032100F0B3FF1C21204600F04C
:10574000AFFFB1B228460BE0094800214170652146
:1057500001701C258570032100F0A2FF2046294618
:1057600000F09EFF70BD20462946FFF76DFF70BD1B
:105770001C1E002070B50446002C28D01448066872
:1057800045688E4201D16D1C45600E43002902D050
:105790000660324605E00022026042600D4B5B1C51
:1057A0001E438A4201D000214160082D0CD3032101
:1057B000284603F001FC012290073043002900D065
:1057C0003046D107884300E030462946A04770BDE7
:1057D0004C210020FFFFFF7FF0B581B00F4E012468
:1057E0003470B11CFF2750377A1C204600F03EFF72
:1057F000054675707A1B7719F91C022000F036FFF8
:10580000B8702D187619F47000F024FF30719020D4
:1058100070710020B071E81D01B0F0BDE01F0020E4
:10582000F0B58BB00A46064607210E4207D0334634
:10583000D8B291B2FEF7E0FB80B20BB0F0BD4B20C6
:10584000840083200390AA4DA84F3346019109E0BC
:105850006920A94908700398801C487002220199A8
:10586000079B2DE1102130460840049292B2059228
:10587000002A069600D1B5E0002800D0B2E00793D8
:105880000091029007E0A1B20022384600F020FF0C
:10589000012000F03FF900F00FFF0028F3D17D2038
:1058A0000001A9680E1828780928079A42DC072801
:1058B00048D0092863D100218E48079101F0F8FBF8
:1058C00010E0FFF769FDA1B20022384600F000FFAA
:1058D000A868B04200D3FEE0FFF748FE00F0ECFEFF
:1058E0000028F0D1834801F039F90028E9D0059A61
:1058F000D01D4008A92800D3F3E003980D307E4B5B
:105900009854981807994170581D0499891C8AB2B7
:1059100005921946FFF7D9FB052277480799FFF74B
:10592000EAFB0598401D83B272480399724A01F060
:10593000D3FB3FE00A2804990AD00B2822D17148F2
:10594000784401E06E487844059900F035FA31E07A
:105950002046253080B2059E864200D9C1E0532002
:105960003870B970080A78700321384600F098FE44
:105970006148314600F094FE002028701DE00028A8
:1059800000D1ABE0D0B20599FEF736FB002811D06C
:10599000A4E0FFF701FDA1B20022384600F098FE16
:1059A000A868B04200D396E0FFF7E0FD00F084FE67
:1059B0000028F0D128780028EBD10020A8712870A9
:1059C0006880069EB10600D536E7FFF7E5FC300695
:1059D0000298009906D5089108AA484B1846114626
:1059E00001DF0298002804D170066ED40020A8714F
:1059F00028700020688000F05FFE002801D1FFF7CA
:105A0000CBFCA1B200223846079200F061FE0228CA
:105A100006D8B9787A7812020A43D11C81423DD166
:105A2000FFF7A4FD688829780029E4D00028E2D097
:105A3000354979440422304E3046FFF765FB002893
:105A40002ED03249794404223046FFF75DFB00280E
:105A50002BD02F49794404223046FFF755FB00280C
:105A600037D103982730C6B200F0D2FDB04200D043
:105A7000EEE60120204E3070B01C402100F0BAFD4F
:105A80007070811C184A121D1140039B0D33735412
:105A9000C11C114000237354021D10E00020A7E731
:105AA000FFF79AFE0246002309E000207070039879
:105AB0000D30307080200699014302220B46019977
:105AC000DEB20B4200D1CDE6B2E668880649401846
:105AD000B2E66888B0E61020FFF72CFB0920FFF73C
